:020000040800F2
:1000000000040020DF010008CD0B00087107000884
:10001000650900081D0300085914000800000000CD
:100020000000000000000000000000004501000882
:10003000210300080000000089010008950E000857
:10004000FF010008FF010008FF010008FF01000890
:10005000FF010008FF010008BD0300087904000843
:10006000BD0400080105000845050008FF0100085F
:10007000FF010008FF010008FF010008FF01000860
:10008000FF010008FF010008FF010008FF01000850
:10009000FF010008FF010008FF0100087D050008BE
:1000A000FF010008FF010008FF010008FF01000830
:1000B000FF010008FF010008FF010008FF01000820
:1000C000FF010008FF010008FF010008FF01000810
:1000D000FF010008FF010008FF010008FF01000800
:1000E00001040008FF010008FF010008FF010008EB
:1000F000FF010008FF010008FF010008FF010008E0
:10010000FF010008FF010008FF010008FF010008CF
:10011000FF010008F10E0008FF010008FF010008C0
:10012000FF010008FF010008FF010008FF010008AF
:10013000DFF80CD000F0A4F80048004715160008BE
:10014000404A0020224B19680868B0E8F00F80F39D
:100150000988BFF36F8F4FF0000080F311884EF0D5
:100160000D0E70470000000006480068006880F32C
:10017000088862B661B6BFF34F8FBFF36F8F00DFA1
:1001800000BF00BF08ED00E0EFF30980BFF36F8F01
:100190000F4B1A6820E9F00F106008B54FF0BF0050
:1001A00080F31188BFF34F8FBFF36F8F02F0F2F926
:1001B0004FF0000080F31188BDE808401968086816
:1001C000B0E8F00F80F30988BFF36F8F704700BF6E
:1001D00064000020EFF30580704700007047084876
:1001E0008047084981F3088807480047FEE7FEE793
:1001F000FEE7FEE7FEE7FEE7FEE7FEE7FEE7FEE7D7
:10020000DD010008404A00203101000840EA0103F6
:100210009B0703D009E008C9121F08C0042AFAD2BC
:1002200003E011F8013B00F8013B521EF9D2704780
:10023000D2B201E000F8012B491EFBD27047002228
:10024000F6E710B513460A4604461946FFF7F0FFD5
:10025000204610BD30B50B46014600202022012467
:1002600009E021FA02F59D4205D303FA02F5491B84
:1002700004FA02F52844151EA2F10102F1DC30BD9A
:10028000064C074D06E0E06840F0010394E80700E3
:1002900098471034AC42F6D3FFF74EFFF031000818
:1002A000103200081FB50121042000F0F3FC4820A3
:1002B0008DF80F007020ADF80C0003208DF80E00B3
:1002C00003A9154800F0AEF90121084600F0E2FC50
:1002D0007020019000208DF808000C208DF8090096
:1002E00001208DF80A004FF4407000F0A9FC0A20AC
:1002F0008DF8000008208DF801008DF80200012023
:100300008DF80300684600F063FC17208DF80000AC
:10031000684600F05DFC1FBD0008014000BFFEE71D
:100320007047000000B585B0214800F02FFA012188
:10033000880500F08FFC0121082000F0ABFC0121B2
:10034000084600F0A7FC4FF44060ADF81000032011
:100350008DF812001C208DF8130004A9154800F038
:1003600061F90121880500F085FC00214FF480002F
:1003700000F080FC0020ADF804004BF6FF70ADF8F3
:1003800006000020ADF808004FF48060ADF80A00C8
:100390000001ADF80C00084800906946044800F0E0
:1003A00011FA0121024800F0E5F905B000BD000096
:1003B00000580040000C0140A08601001CB5002040
:1003C000019010210C4800F0B8F980B9032000F02A
:1003D000E3FB03208DF8000000208DF801000749A1
:1003E000002301AA8868694602F03EFC00BF012094
:1003F00000F0DEF81CBD000000100140B00000203D
:1004000010B54FF4805000F0D9F840B11948008879
:10041000401C184908804FF4805000F0C9F84FF490
:10042000005000F0CBF840B112484088401C114900
:1004300048804FF4005000F0BBF84FF4804000F0CB
:10044000BDF840B10B488088401C0A4988804FF4B1
:10045000804000F0ADF84FF4004000F0AFF840B13C
:100460000448C088401C0349C8804FF4004000F095
:100470009FF810BD040000201CB500200190202131
:100480000C4800F05AF980B9032000F085FB0320E6
:100490008DF80000FF208DF801000749002301AA14
:1004A0008868694602F0E0FB00BF022000F080F897
:1004B0001CBD000000100140B00000201CB5002051
:1004C000019002210C4800F038F980B9022000F0B8
:1004D00063FB02208DF8000000208DF80100074921
:1004E000002301AA8868694602F0BEFB00BF042011
:1004F00000F05EF81CBD000000080140B0000020C4
:100500001CB50020019001210C4800F016F980B9BB
:10051000022000F041FB02208DF80000FF208DF842
:1005200001000749002301AA8868694602F09CFB84
:1005300000BF082000F03CF81CBD0000000801408E
:10054000B00000201CB500200190012000F024FB29
:1005500001208DF8000000208DF8010006490023DD
:1005600001AA8868694602F07FFB102000F020F89D
:10057000102000F01DF81CBDB00000201CB50020AC
:100580000190012000F008FB01208DF80000002000
:100590008DF801000549002301AA8868694602F028
:1005A00063FB102000F004F81CBD0000B000002028
:1005B0000149086070470000140401400146002012
:1005C0000022074B1B6803EA0102054B14331B682A
:1005D0000B4013B10AB1012000E000207047000079
:1005E0000004014030B500228B071C0F0F2303FAD3
:1005F00004F20B4B8C1053F824309343084C8D10AD
:1006000044F8253023468C1053F824308C07240FEF
:1006100000FA04F42343024C8D1044F8253030BD19
:10062000080001402DE9F041024600250026002087
:1006300000230024002791F803C00CF00F0591F867
:1006400003C00CF0100CBCF1000F03D091F802C0F5
:100650004CEA050591F800C0BCF1000F31D01468D8
:1006600000202BE04FF0010C0CFA00F3B1F800C0B1
:100670000CEA03069E4220D183004FF00F0C0CFAC7
:1006800003F7BC4305FA03FC4CEA040491F803C0E9
:10069000BCF1280F06D14FF0010C0CFA00FCC2F897
:1006A00014C00AE091F803C0BCF1480F05D14FF027
:1006B000010C0CFA00FCC2F810C0401C0828D1D371
:1006C0001460B1F800C0BCF1FF0F34DD54680020A5
:1006D0002EE000F1080C4FF0010808FA0CF3B1F815
:1006E00000C00CEA03069E4221D183004FF00F0C9C
:1006F0000CFA03F7BC4305FA03FC4CEA040491F836
:1007000003C0BCF1280F05D100F1080C08FA0CF861
:10071000C2F8148091F803C0BCF1480F07D100F172
:10072000080C4FF0010808FA0CF8C2F81080401CC1
:100730000828CED35460BDE8F081024600209368BB
:100740000B400BB1012000E0002070470246002062
:10075000D3680B400BB1012000E0002070474161DD
:100760007047016170470AB1016100E04161704763
:1007700000BFFEE721B1028842F00102028004E0DE
:1007800002884FF6FE731A400280704710B5044687
:100790000B48844209D10121480500F06BFA002181
:1007A0004FF4001000F066FA08E00121880500F01F
:1007B00061FA00214FF4800000F05CFA10BD0000E7
:1007C000005400402DE9F04385B004460D46002654
:1007D000B1460427DFF8CC80A6884FF6C0700640EB
:1007E000684600F067FADDF808802F48B8FBF0F0A3
:1007F0001FFA80F946EA0906A68020884FF6FE71A6
:100800000840208000262949286888420CD828689A
:100810004000B8FBF0F087B2042F00DA04273E4313
:1008200009F10100208427E0E8884BF6FF71884237
:1008300006D1286800EB4000B8FBF0F087B209E071
:10084000286800EBC00101EB0010B8FBF0F087B2A4
:1008500047F48047C7F30B0008B947F0010747F496
:10086000004006434FF4967009FB00F04FF47A7194
:1008700090FBF1F0401C2084A683208840F001000A
:10088000208026884FF6F5300640A88869890843FD
:1008900006432680A88929890843208105B0BDE840
:1008A000F083000000127A0040420F00A086010091
:1008B00070B505460C4615B1012D0DD106E0224656
:1008C0004FF480710548FFF74EFF05E02246802176
:1008D0000248FFF748FF00BF00BF70BD0010014095
:1008E00070B5044614B1012C1CD10EE04FF4807198
:1008F0000D48FFF72BFFC0F10100C5B22A464FF4A7
:1009000080710948FFF72FFF0CE080210648FFF7B0
:100910001DFFC0F10100C5B22A4680210248FFF741
:1009200022FF00BF00BF70BD0010014008B50121CB
:10093000102000F0AFF910208DF803004FF4C070C4
:10094000ADF8000001208DF8020069460448FFF769
:1009500069FE4FF4C0710248FFF703FF08BD0000B5
:100960000010014000BFFEE71FB501211C2000F070
:1009700091F910208DF80F0001208DF80E00002451
:100980001CE0534830F81400524931F81410084361
:10099000ADF80C00504951F8240003A9FFF742FEBE
:1009A0004B4A32F814204B4B33F8143042EA03011F
:1009B000494A52F82400FFF7D2FE641C042CE0DB05
:1009C00048208DF80F0001208DF80E0000240FE064
:1009D000424830F81400424931F814100843ADF889
:1009E0000C00404951F8240003A9FFF71BFE641CCA
:1009F000042CEDDB48208DF80F0001208DF80E004F
:100A000000240BE0384830F81400ADF80C003749EA
:100A100051F8240003A9FFF705FE641C042CF1DB48
:100A20004FF23F00019000208DF808000C208DF857
:100A3000090001208DF80A004FF4407000F000F921
:100A400006208DF8000008208DF801008DF80200C6
:100A500001208DF80300684600F0BAF807208DF8F1
:100A60000000684600F0B4F808208DF800006846E1
:100A700000F0AEF809208DF80000684600F0A8F8F4
:100A80000A208DF80000684600F0A2F817208DF8C3
:100A90000000684600F09CF828208DF800006846A9
:100AA00000F096F80C210120FFF79CFD0D2101209C
:100AB000FFF798FD0E210120FFF794FD0F21012083
:100AC000FFF790FD002000E0401C0428FCDB1FBD68
:100AD000E0310008E831000834000020C831000887
:100AE000D031000814000020D83100082400002074
:100AF00010B504460E4A32F814100E4A52F824007B
:100B0000FFF71BFE80B10C4A32F814100B4A52F862
:100B10002400FFF724FE0A4A32F81410074A52F85C
:100B20002400FFF71EFE02E0204600F035F810BD5D
:100B3000C831000814000020E03100083400002013
:100B4000E831000810B504460E4A32F814100E4A77
:100B500052F82400FFF7F1FD80B10C4A32F814106E
:100B60000B4A52F82400FFF7FCFD0A4A32F8141031
:100B7000074A52F82400FFF7F2FD02E0204600F099
:100B80000BF810BDD031000814000020E03100083F
:100B900034000020E831000810B50446084A32F855
:100BA0001410084A52F82400FFF7D9FD064A32F81B
:100BB0001410044A52F82400FFF7D1FD10BD0000C4
:100BC000E031000834000020E831000870470000E0
:100BD00070B5002100230F22C47804B3154C24689B
:100BE00004F4E064C4F5E064210AC1F10403CA40DE
:100BF000447804FA03F184781440214309010E4C2F
:100C00000678A155047804F01F050124AC4005784E
:100C10006D11AD0005F1E025C5F8004109E004784B
:100C200004F01F050124AC40044D0678761145F808
:100C3000264070BD0CED00E000E400E080E100E043
:100C400002490143024A1160704700000000FA05A2
:100C50000CED00E029B1064AD2690243044BDA6187
:100C600004E0034AD2698243014BDA617047000015
:100C70000010024029B1064A12690243044B1A616E
:100C800004E0034A12698243014B1A617047000075
:100C90000010024029B1064A92690243044B9A614E
:100CA00004E0034A92698243014B9A617047000055
:100CB0000010024030B500210022002400232D4DF9
:100CC0006D6805F00C0121B1042905D0082923D154
:100CD00005E0294D056022E0284D05601FE0254D07
:100CE0006D6805F47012234D6D6805F4803402259B
:100CF00005EB92421CB9224D554305600BE01D4D9A
:100D00006D6805F400351DB11E4D5543056002E0C8
:100D10001A4D5543056002E0174D056000BF00BF46
:100D2000144D6D6805F0F0010909174D6B5C0568FD
:100D3000DD4045600F4D6D6805F4E061090A124D14
:100D40006B5C4568DD4085600A4D6D6805F4605157
:100D5000C90A0D4D6B5C4568DD40C560054D6D6889
:100D600005F44041890B094D6B5CC568B5FBF3F593
:100D7000056130BD0010024000127A00001BB70070
:100D800000093D00808D5B004D0000205D000020CB
:100D900010B500F0C3F8FFF785FAFFF7C7FDFFF7BE
:100DA000E3FDFFF7BFFA10BD10B500F001F810BD6C
:100DB0000CB50020019000903448006840F4803069
:100DC0003249086000BF3148006800F400300090EC
:100DD0000198401C0190009818B90198B0F5A06FD7
:100DE000F1D12A48006800F4003010B101200090D1
:100DF00001E0002000900098012844D124480068B8
:100E000040F01000224908600846006820F0030006
:100E100008600846006840F0020008601B4840680F
:100E20001A4948600846406848600846406840F4EF
:100E3000806048600846406820F47C10486008469E
:100E4000406840F4881048600846006840F08070B0
:100E5000086000BF0D48006800F000700028F9D05D
:100E60000A48406820F00300084948600846406886
:100E700040F00200486000BF0448406800F00C00E9
:100E80000828F9D101E000BFFEE70CBD00100240C8
:100E90000020024010B501F0E3FD10BD10B511486F
:100EA000006840F001000F490860084640680E499C
:100EB00008400C494860084600680C490840094948
:100EC00008600846006820F48020086008464068F2
:100ED00020F4FE0048604FF41F008860FFF764FFB5
:100EE00010BD0000001002400000FFF8FFFFF6FEFA
:100EF00010B540F22551074800F0EBF848B1012049
:100F000000F0E6F90449087040F22551014800F06C
:100F1000B8F810BD005000400000002000B58BB0B4
:100F200001210805FFF796FE01214804FFF792FE14
:100F300001210846FFF7AEFE01210420FFF7AAFEBB
:100F400001211020FFF7A6FE01212020FFF7A2FEBD
:100F50004FF48050ADF8140002208DF816001820D0
:100F60008DF8170005A93D48FFF75CFB0420ADF89C
:100F700014008DF8170005A93948FFF753FB4FF40B
:100F8000E13007900020ADF82000ADF82200ADF868
:100F90002400ADF828000C20ADF8260007A9314840
:100FA00000F0E6F840F225512E4800F061F80122E9
:100FB00040F225512B4800F0B6F80121294800F0F5
:100FC0006FF835208DF8180001208DF81A008DF883
:100FD0001B0006A8FFF7FCFD0820ADF81400042054
:100FE0008DF8170005A92048FFF71CFB0420ADF879
:100FF000140003208DF8160018208DF8170005A99D
:101000001948FFF70FFB4FF4E13001900020ADF8D5
:101010000800ADF80A00ADF80C00ADF810000C2087
:10102000ADF80E0001A9114800F0A2F8002240F22C
:1010300025510E4800F077F801210C4800F030F8F7
:1010400026208DF8180001208DF81A008DF81B005D
:1010500006A8FFF7BDFD0BB000BD00000010014069
:1010600000140140005000400008014000440040CE
:1010700001F40072B2F5007F00D100BFCA430280C4
:10108000704710B50022002340F66A14A14200D137
:1010900000BF0A1201249440A3B2DC43048010BDB7
:1010A00021B1828942F40052828104E082894DF6A6
:1010B000FF731A408281704702460020B1F5007F1D
:1010C00000D100BF13880B400BB1012000E00020CD
:1010D000704770B50246002400230025002040F62A
:1010E0006A16B14200D100BFC1F3421501F01F03DF
:1010F000012606FA03F3012D02D19689334006E05A
:10110000022D02D1168A334001E0968A33400C1238
:10111000012606FA04F41688344013B10CB10120FC
:1011200000E0002070BDF0B5034600240026002535
:10113000002040F66A17B94200D100BF1846C1F33B
:10114000421401F01F06012707FA06F5012C01D110
:101150000C3004E0022C01D1103000E014301AB140
:1011600007682F43076002E00768AF430760F0BDE0
:101170002DE9F04786B005460E460024A24600BF82
:1011800000BF0027B08900B100BF2F462C8A4CF663
:10119000FF700440F08804432C82AC894EF6F310B3
:1011A0000440B08831890843718908430443AC8105
:1011B000AC8A4FF6FF400440B0890443AC8201A8DA
:1011C000FFF778FD1148874202D1DDF810A001E059
:1011D000DDF80CA00AEBCA0000EB0A1031688900A8
:1011E000B0FBF1F86420B8FBF0F0040120096421A1
:1011F00001FB1089322000EB0910B0FBF1F000F088
:101200000F0004432C8106B0BDE8F0870038014090
:1012100001468888C0F308007047C1F30802828045
:10122000704700002DE9FF41012644E0FF2700BF81
:1012300080212348FFF740FF0028F9D001212048F2
:10124000FFF7EBFF6C4625780EE000BF80211C48BD
:10125000FFF732FF0028F9D021781948FFF7DDFFAA
:1012600014F8010B47406D1E002DEED100BF802108
:101270001348FFF721FF0028F9D039461048FFF73F
:10128000CCFF15200F49087001200F4908700F4D41
:1012900004E00D48007800B902E06D1E002DF8D181
:1012A00000BF08480078062803D1012004B0BDE83B
:1012B000F081701EC6B2002EB8DC0020F6E70000F8
:1012C000005000401200002011000020A086010004
:1012D00070B50546002620215848FFF7EDFE00288E
:1012E0006FD000BF5548FFF793FFC4B25448007851
:1012F000062867D2DFE800F00328313B4167012C64
:101300000BD1FF204F49087000204F4908704C480E
:101310000078401C4A49087015E04C48007890B1AC
:10132000062C07D1022600204849087006204849AB
:10133000087008E0152C06D10526002043490870E6
:101340001520434908706DE0032C01DBB42C03DD4C
:1013500000203B49087065E000BF3B48007828B199
:101360000E2C03DD0020364908705BE000BF3448D6
:101370000078401C3249087000BF33480078B42818
:1013800019DA34483049097844542F480078401C11
:101390002D4908702B48007860402A4908702D4874
:1013A00000782949097888420ADC25480078401CE1
:1013B0002349087004E022480078401C2049087046
:1013C00030E038E02AE0EDB11E48007884420CD1CC
:1013D00000BF80211948FFF76FFE0028F9D00621D1
:1013E0001648FFF71AFF012617E000BF80211348B7
:1013F000FFF762FE0028F9D015211048FFF70DFF16
:1014000003260AE000BF80210C48FFF755FE0028A4
:10141000F9D018210948FFF700FF00BF0020084954
:10142000087000BF00BF36B920210448FFF744FE12
:1014300000287FF457AF304670BD000000500040D8
:101440000F000020100000200E00002011000020DE
:1014500012000020C000002000BFFEE70FB4054BC3
:1014600010B503A9044A029800F018F810BC5DF802
:1014700014FB0000F1150008AC00002002E008C8D1
:10148000121F08C1002AFAD170477047002001E0FE
:1014900001C1121F002AFBD1704700002DE9FF4F48
:1014A00089B09B460446002506E025280BD05A4605
:1014B0000B999047641C6D1C20780028F5D10DB065
:1014C0002846BDE8F08F0027B8460122474900E0D2
:1014D000074314F8013F203B02FA03F00842F7D11A
:1014E00020782E2819D114F8010F47F004072A2874
:1014F0000ED06FF02F022078A0F1300109290CD80E
:1015000008EB880102EB410100EB0108641CF2E7E3
:101510000A98641C50F8048B0A9020780028CED0DA
:10152000642808D0692806D075281ED05A460B9921
:1015300090476D1C58E00A994FF00A0901C90A91B9
:10154000002802DA40422D2102E0390504D52B2182
:101550008DF82010012103E0F90704D02021F7E7DE
:101560008A4608AE0DE00021FAE70A994FF00A0911
:1015700001C90A91F7E74946FEF76CFE303106F8DB
:10158000011D0028F7D1ADEB060000F12009780716
:1015900001D44FF00108C84502DDA8EB090000E0C6
:1015A00000208046002706E008A85A46C05D0B9937
:1015B00090476D1C7F1C5745F6DB04E030205A46EF
:1015C0000B9990476D1CB8F10001A8F10108F5DCFA
:1015D00005E016F8010B5A460B9990476D1CB9F1BE
:1015E0000001A9F10109F4DC641C65E70928010088
:1015F00070B504460D46E1B20548FFF70EFE00BF88
:1016000040210348FFF758FD0028F9D0204670BD5F
:10161000004400401CB5FFF741FCFFF7B9FB34A0C4
:10162000FFF71CFF00220221032001F033FA3A49A0
:10163000086000220221032001F02CFA364948609C
:1016400000220221032001F025FA3349886000229C
:101650000221032001F01EFA2F49C8600020022158
:101660002D4B8022CDE900102CA12F4801F0F0FB7A
:1016700000200221284B8022CDE900102BA12E480A
:1016800001F0E6FB00200221234BCA01CDE9001046
:101690002AA12D4801F0DCFB002002211E4B8022F4
:1016A000CDE9001029A1314801F0D2FB0020022130
:1016B000194B4A02CDE900102DA1324801F0C8FBB8
:1016C00000200221144B8022CDE900102EA13448C5
:1016D00001F0BEFB002002210F4B8022CDE900105B
:1016E00030A1374801F0B4FB00F074FE00BFFEE704
:1016F0000D0A2A2A53544D3332463130332048578D
:1017000020696E6974207375636365737366756CA5
:101710002A2A200D0A000000B00000205461736BDB
:101720002042544E73000000751E00085461736B14
:10173000204C4544000000008D2200085461736B6A
:10174000205A574156450000252600085461736B06
:10175000205A574156452073656E74207065726932
:101760006F64207265706F727400000015260008A7
:101770005461736B20436F6E74726F6C204D6F7485
:101780006F7200006D2100085461736B2052656117
:10179000642073746F702073656E736F7200000045
:1017A000392400085461736B204D6561737572654F
:1017B00020666C6F77206F66207761746572000019
:1017C0008D2300082DE9F04105460E461C480768A8
:1017D0001C480068001D00F0B3FA50B919480068B1
:1017E00090F82C1001208840174909688143164859
:1017F0000160681C38B936B112480168091D1348E8
:1018000000F0FCFA1AE07C190E4800684460BC4203
:1018100007D20C480168091D0D48006800F0D4FA91
:101820000CE008480168091D0A48006800F0CCFA7D
:1018300009480068844201D207480460BDE8F0818D
:1018400078000020640000207C0000202802002096
:101850006C000020680000209400002010B50446B1
:1018600000F0D8FA23480068401C2249086022484A
:10187000006840B9204804600846006801280DD17E
:1018800000F038F90AE01D48006838B91A480068C5
:10189000C06AE16A884201D81748046018480068A5
:1018A000401C1749086094F82C1001208840154905
:1018B0000968084313490860E16A01EB8101124A93
:1018C00002EB8100211D00F099FA00F0B5FA0B48F7
:1018D000006868B108480068C06AE16A884207D2B7
:1018E0004FF0805009490860BFF34F8FBFF36F8FEF
:1018F00010BD000074000020640000208000002063
:10190000900000207C0000207401002004ED00E025
:1019100010B516E000F07EFA0C48C068C468201DBF
:1019200000F00EFA0A480068401E0949086009489C
:101930000068401E0749086000F07EFA204600F06B
:101940005FF8044800680028E4D110BD14020020AC
:10195000740000207000002070B504460D46206C15
:1019600070B1216CE0680144E160D4E90210884262
:1019700001D32168E1602846226CE168FEF746FC4D
:1019800070BD2DE9F04104460F4615464FF00008A2
:10199000A66B206C48B9206800282CD1A06801F003
:1019A00015FB80460020A06025E07DB93946226CF9
:1019B0006068FEF72BFC216C606808446060D4E925
:1019C0000101884217D32068606014E03946226C18
:1019D000E068FEF71BFC216CE068411AE1602168B9
:1019E000E068884203D2216CA068411AE160022DB0
:1019F00001D106B1761E701CA0634046BDE8F0819F
:101A000010B50446206B00F027FA204600F024FAB7
:101A100010BD000000BFFFF77BFF064800680128EB
:101A2000F9D94FF0805004490860BFF34F8FBFF3DE
:101A30006F8FF0E77401002004ED00E02DE9F04124
:101A400006460D4617469846069C0DB9246000E0F0
:101A50002760E66325640121204601F039F8BDE8DE
:101A6000F0812DE9FF5F80460E469146DDE90E7A52
:101A7000109CA9F10100216B01EB800B2BF0070BEF
:101A800086B1002507E0715D04F134004155705DB9
:101A900000B902E06D1C102DF5D300BF00214320DA
:101AA000015502E0002084F83400052F00D30427FC
:101AB000E76267640020A064201D00F082F904F151
:101AC000180000F07EF92461C7F10500A06164628E
:101AD0000020E06484F8500041465846039A00F024
:101AE000F5F82060BAF1000F01D0CAF80040BDE857
:101AF000FF9F000010B5002407E004EB84010F4AAB
:101B000002EB810000F050F9641C052CF5D30C4861
:101B100000F04AF90B4800F047F90B4800F044F98F
:101B20000A4800F041F90A4800F03EF90448094922
:101B3000086004480849086010BD000074010020D6
:101B4000D8010020EC010020000200201402002037
:101B500028020020680000206C00002070B50546B7
:101B600000F058F9A86B08B9012400E0002400F047
:101B700063F9204670BD70B5054600F04BF9A86BBF
:101B8000E96B884201D1012400E0002400F054F9FF
:101B9000204670BD0A490968096809B9012100E0B9
:101BA000002121B14FF0FF31064A116006E00449DF
:101BB0000968C968C868034A416811607047000035
:101BC000680000209400002000BFBF2080F311882F
:101BD000BFF34F8FBFF36F8F00BF00BFFEE770B53D
:101BE000044600F017F994F9455010E0606A08B90E
:101BF000012000E0002038B904F1240001F028FAA7
:101C000018B100F0D1FB00E003E0681E45B2002DE2
:101C1000ECDC00BFFF2084F8450000F00DF900F077
:101C2000F9F894F9445010E0206908B9012000E067
:101C3000002048B904F1100001F00AFA08B100F0E0
:101C4000B3FB681E45B200E001E0002DECDC00BFF4
:101C5000FF2084F8440000F0EFF870BD70B5044632
:101C6000002504F0070020B104F00700C0F10800CF
:101C7000044400F087FC1248006820B9114820F0A5
:101C800007000F49086010480068204444F2F8310A
:101C9000884210D20C48006820440B4909688842E9
:101CA00009D90748006808490968451806480068C6
:101CB00020440549086001F00BFA284670BD000079
:101CC000A800002044020020A4000020001F4FF0C4
:101CD00080730360001F21F001030360001F034BAA
:101CE000036014380260203870470000C91B0008E8
:101CF00010B5044624B1012C0BD0022C1BD111E0ED
:101D000010210E48FEF719FD08B9002010BD012072
:101D1000FCE720210948FEF710FD08B90020F5E78F
:101D20000120F3E740210548FEF707FD08B9002030
:101D3000ECE70120EAE700BFE8E700000008014007
:101D400001460A69D1E901309860D1E90103586080
:101D50005068884201D1886850600020086110688E
:101D6000401E10601068704700BFBF2080F31188CC
:101D7000BFF34F8FBFF36F8F00BF00F04FFE0446DD
:101D8000214602A0FFF76AFB00BFFEE746726565C9
:101D900052544F5320667265654865617073697A65
:101DA00065203D2025640A0000F1080141604FF0E4
:101DB000FF31816000F10801C16001610021016013
:101DC000704700210161704710B502460B685C1C2A
:101DD0000CB9106907E002F1080000E040684468AF
:101DE00024689C42FAD944684C604C68A1608860C1
:101DF00041600A611468641C146010BD42684A6046
:101E000093688B60936859609160086103685B1CFC
:101E10000360704700BFBF2080F31188BFF34F8F6E
:101E2000BFF36F8F00BF03480068401C0149086082
:101E300070470000A000002006480068401E0549C9
:101E400008600846006820B9002080F3118800BFB0
:101E500000BF7047A00000207047000000204FF036
:101E6000E0210861886102484861072008617047E5
:101E70003F19010088B0064635460A2000F0E0F917
:101E800000BF01208DF8190002218DF81B100321DD
:101E90008DF81D1014216846FEF7D1F900BF01200E
:101EA00000F0CEF900244AE104EB44001DF81000D4
:101EB00008287DD2DFE800F0042996FDFCABFBFA90
:101EC0002046FFF715FFF8B904EB4400694601EB23
:101ED00040004088401C04EB44016A4602EB41018B
:101EE000488004EB4400694601EB4000408801282B
:101EF0000ADB012004EB44010DF81100002004EB83
:101F0000440102EB4101488016E12046FFF7F0FE54
:101F100098BB04EB4400694601EB40004088401C3C
:101F200004EB44016A4602EB4101488004EB4400A3
:101F3000694601EB40004088B0F57A7F51DB022012
:101F40008DF8150000208DF814000023642205A9E7
:101F5000E86800F0FDFD052004EB44010DF81100D8
:101F6000002004EB44016A4602EB4101488004EB87
:101F7000440102EB4101888033E0FFE72046FFF790
:101F8000B7FE01282DD104EB4400694601EB400067
:101F90008088401C04EB44016A4602EB41018880C2
:101FA00004EB4400694601EB40008088642800E0AF
:101FB000C1E016DB022004EB44010DF81100002003
:101FC00004EB440102EB4101888002208DF81500EA
:101FD00000208DF814000023642205A9E86800F0B1
:101FE000B7FDA9E0002006A901F8140006AA02EB3B
:101FF000440100236422286800F0AAFD072004EBB6
:1020000044010DF8110050A0FFF728FA94E0204693
:10201000FFF76EFE70BB04EB4400694601EB400025
:102020004088401C04EB44016A4602EB41014880B1
:1020300004EB4400694601EB4000408840F2DC516B
:10204000884241DB042004EB44010DF8110000201C
:1020500004EB440102EB4101488003208DF8150098
:1020600000208DF814000023642205A9E86800F020
:102070006FFD29E02046FFF73BFE012824D104EB49
:102080004400694601EB40008088401C04EB440199
:102090006A4602EB4101888004EB4400694601EB8B
:1020A0004000808864280FDB032003E038E036E03E
:1020B0000BE01FE004EB44010DF81100002004EBDD
:1020C000440102EB4101888036E0022006A901F8B4
:1020D000140006AA02EB440100236422286800F0E1
:1020E00037FD072004EB44010DF8110019A0FFF79C
:1020F000B5F921E0012006A901F8140006AA02EBB7
:10210000440100236422286800F022FD072004EB2C
:1021100044010DF8110012A0FFF7A0F90CE00BE04C
:102120002046FFF7E5FD012804D1002004EB44011F
:102130000DF8110000E000BF00BF601CC4B2032C0A
:10214000BFF6ADAEB0E6000053656E642053686F15
:102150007274000053656E642044424C6F6E6700D9
:1021600053656E64204C6F6E6700000008B506462C
:10217000374600BF00BF4CE000226946786800F097
:10218000B7FD0546012D23D19DF801209DF80010D3
:1021900020A0FFF763F99DF8000004280ED100206D
:1021A00009E09DF8011009B9022100E00321234A4A
:1021B0001154411CC8B20428F3DB09E09DF801006A
:1021C00008B9022000E003209DF800101B4A50547B
:1021D00000241CE01948005D30B1012808D0022815
:1021E0000AD0032810D10BE02046FEF781FC0BE05B
:1021F0002046FEF7A7FC07E02046FEF779FC03E047
:102200002046FEF79FFC00BF00BF601CC4B2042C38
:10221000E0DBB1E74D6F746F7220636F6E74726FA5
:102220006C6C6572207265636576696564206461B3
:1022300074613A20256420256400000044000020D9
:1022400070B50446002544B100F09CF900212046F9
:10225000FFF7B8FA00F03CFF05463DB94FF080505B
:1022600003490860BFF34F8FBFF36F8F70BD00004D
:1022700004ED00E003490968016003490968416011
:10228000704700008C000020780000208AB00646CD
:10229000374600BF3C4903C9CDE907013A49083137
:1022A00003C9CDE905016EE0002209A9F86800F034
:1022B0001FFD0546012D19D102209DF8241001AA09
:1022C00002EBC10188719DF8250007A911F81000E3
:1022D0009DF8241002F831009DF8250005A931F879
:1022E00010009DF8241002EBC1018880002445E015
:1022F00001A800EBC400807948B1012802D002286F
:1023000039D109E001212046FEF7D2FA33E000215D
:102310002046FEF7CDFA2EE001A800EBC40040886D
:10232000401C01A901EBC401488001A800EBC400D6
:10233000408801A911F8341088421BDD002001A952
:1023400001EBC40148802046FEF7CAFA01A800EB61
:10235000C4008088401E01A901EBC401888001A847
:1023600000EBC400808828B9002001A901EBC4015A
:10237000887100E000BF00BF601CC4B2022CB7DB54
:102380000120FFF75DFF8FE7B831000800BF09E0CB
:10239000002001E0411CC8B20428FBDB4FF47A7036
:1023A000FFF74EFFF4E70000012001490860704785
:1023B0008800002070B505460C46054801681831B4
:1023C0002846FFF701FD01212046FFF7FBF970BD0C
:1023D000640000201CB5114800210B468022CDE985
:1023E00000100FA1104800F033FD0446012C14D159
:1023F00000BFBF2080F31188BFF34F8FBFF36F8FF3
:1024000000BF4FF0FF30094908600120084908600B
:1024100000200849086000F009FB1CBD980000205E
:1024200049444C4500000000151A000894000020A3
:10243000800000207800002008B50646354682E07E
:1024400000247DE04048005D10B1012875D12DE0E9
:102450003E48005D022812D18DF8004000208DF822
:10246000010000231A466946A86800F071FB0020AD
:1024700036490855214636A0FEF7F0FF15E03348EF
:10248000005D032811D18DF80040FF208DF8010078
:1024900000231A466946A86800F05AFB01202B4920
:1024A000085521462FA0FEF7D9FF46E02748005DDA
:1024B00002281FD1304A32F81410304A52F8240052
:1024C000FEF73BF9002837D12046FEF765FB8DF873
:1024D000004000208DF8010000231A466946A868D4
:1024E00000F036FB002019490855214618A0FEF7D8
:1024F000B5FF21E01548005D03281DD1204A32F8C0
:1025000014101E4A52F82400FEF717F9A0B920460D
:10251000FEF742FB8DF80040FF208DF801000023FC
:102520001A466946A86800F013FB012007490855C0
:1025300021460CA0FEF792FF00BF00BF601CC4B292
:10254000042CFFF67FAF7BE748000020440000200A
:102550004D6F746F722025642069732073746F70DF
:10256000000000004D6F746F722025642069732095
:1025700073746F7020000000C83100081400002040
:10258000D031000802480068401C014908607047CB
:102590009C00002010B51A48006818B101201949A4
:1025A00008602BE0002017490860174800680068A1
:1025B00015490968096B884205D813480168343108
:1025C0000068FFF7D1FB11480068B0FA80F0C0F155
:1025D0001F0101EB81020E4B03EB8200426852683F
:1025E000426000F108024368934202D14268526897
:1025F00042604268D268044B1A6000BF10BD000000
:102600009C00002088000020640000207C00002046
:102610007401002000BF03E042F21070FFF710FECB
:10262000FAE7000088B007463D4600BF00BF00BF84
:1026300000BF00245CE1AF480078052804D2DFE841
:1026400000F0034F7504280051E103208DF80800C5
:102650000B208DF8090001208DF80A0002A80FC890
:10266000FEF7E0FD70B9A4A0FEF7F8FE4FF4FA7093
:10267000FFF7E6FD601CC4B20A2C09D102209D4977
:10268000087005E0A4A0FEF7E9FE02209949087051
:102690002DE104208DF8080002208DF809000120AA
:1026A0008DF80A0000208DF80B0002A80FC8FEF775
:1026B000B9FD70B990A0FEF7D1FE4FF4FA70FFF7A4
:1026C000BFFD601CC4B20A2C09D1022089490870E0
:1026D00005E091A0FEF7C2FE02208649087006E1DF
:1026E00004208DF8080002208DF8090001208DF8E3
:1026F0000A008DF80B0002A80FC8FEF793FD70B911
:102700007DA0FEF7ABFE4FF4FA70FFF799FD601C59
:10271000C4B20A2C09D102207649087005E08AA0CB
:10272000FEF79CFE022073490870E0E0002201A938
:10273000286800F0DDFA0646012E46D19DF8050016
:1027400001280DD19DF80400022803D10320694916
:10275000087005E09DF80400012801D16549087062
:102760009DF80500022815D19DF80400012811D11B
:1027700004208DF81C00FF208DF81D00002364222A
:1027800007A9686800F0E4F90646012E02D078A097
:10279000FEF764FE9DF80500032815D19DF804009E
:1027A000012811D104208DF81C0000208DF81D0097
:1027B0000023642207A9686800F0CAF90646012EC2
:1027C00002D06BA0FEF74AFE91E0002206A9A8689D
:1027D00000F08EFA0646012E2CD105208DF8080057
:1027E0000C208DF8090003208DF80A009DF81800D0
:1027F0008DF80B009DF819008DF80C0002A80FC889
:10280000FEF710FD68B93CA0FEF728FE3220FFF766
:1028100017FD601CC4B20A2C0BD102203549087088
:1028200007E09DF818105AA0FEF718FE0220314963
:1028300008705CE066480078012858D1102265498C
:1028400002A8FDF7E3FC0020614908709DF809002B
:1028500030B1022817D00B2841D00C2846D125E0F2
:102860009DF80A0003280DD19DF80B00012803D123
:1028700059A0FEF7F3FD05E09DF80B0010B95CA030
:10288000FEF7ECFD32E09DF80A0003280DD19DF81B
:102890000B00012803D150A0FEF7E0FD05E09DF8F4
:1028A0000B0010B952A0FEF7D9FD1FE09DF80A00F9
:1028B000012813D19DF80B008DF81C009DF80C0029
:1028C0008DF81D000023642207A9686800F040F914
:1028D0000646012E02D026A0FEF7C0FD06E04BA062
:1028E000FEF7BCFD02200349087000BF00BF00BF17
:1028F000A1E600004C0000200D0A204661696C65CD
:102900006420746F2073656E642064617461207448
:102910006F205A57200D0A000D0A205A576176651C
:1029200020636F6D6D756E69636174696F6E204FA2
:102930004B3A2053656E74204558434C5553494FCC
:102940004E200D0A000000000D0A20436F6E6E65D8
:102950006374205A5761766520636F6D6D756E697B
:10296000636174696F6E204F4B200D0A00000000F8
:10297000436F756C64206E6F742073656E64207491
:102980006F207468652071756575652E0A000000FA
:102990000D0A20436F6E6E656374205A5761766529
:1029A00020636F6D6D756E69636174696F6E3A2037
:1029B0005265706F6E6573206D6F746F72207374E3
:1029C000617465204F4B2020256420200D0A0000F3
:1029D00000000020C0000020205A77207265706F30
:1029E0006E736520636F6E6E6563746564000000CE
:1029F000205A77207265706F6E7365206E6F742039
:102A0000636F6E6E65637465640000005A7761766B
:102A1000652072657365742E0A0000000248006824
:102A200044F2F831081A7047A400002010B50A4893
:102A3000006840F47F00084908600846006840F0DC
:102A40007F400860FFF70AFA002004490860FDF79C
:102A50008BFB002010BD000020ED00E0A000002056
:102A600010B500BFBF2080F31188BFF34F8FBFF3B5
:102A70006F8F00BF00F01CFA18B14FF0805004496E
:102A8000086000BF002080F3118800BF10BD000067
:102A900004ED00E02DE9F84307460D4690460DB9D8
:102AA000002601E007FB05F606F14800FFF7D6F81F
:102AB00004464CB1A14609F1480943464A46294615
:102AC00038460094FEF7BAFF2046BDE8F8830000C0
:102AD00070B505460E462C46FFF79CF9D4E90F1257
:102AE000206801FB0200A0600020A06320686060F5
:102AF000E06B401E226C216800FB0211E160FF20A8
:102B000084F8440084F845009EB9206908B9012082
:102B100000E00020A8B904F1100000F099FA80B19B
:102B20004FF0805009490860BFF34F8FBFF36F8F9C
:102B300007E004F11000FFF737F904F12400FFF774
:102B400033F9FFF779F9012070BD000004ED00E0D2
:102B50002DE9FF4383B0074688461D464FF0000924
:102B60003C4600BFFFF756F9A06BE16B884201D3EA
:102B7000022D28D12A4641462046FEF702FF06468E
:102B8000606A08B9012000E0002068B904F124005F
:102B900000F05EFA88B14FF0805032490860BFF310
:102BA0004F8FBFF36F8F08E03EB14FF080502D493B
:102BB0000860BFF34F8FBFF36F8FFFF73DF9012020
:102BC00007B0BDE8F083059818B9FFF735F9002084
:102BD000F6E7B9F1000F04D101A8FFF74BFB4FF066
:102BE0000109FFF729F9FFF7CDFCFFF713F994F975
:102BF0004400401C10B9002084F8440094F94500BA
:102C0000401C10B9002084F84500FFF715F905A90C
:102C100001A800F0EFF8F0B92046FEF7ACFFA0B134
:102C200004F110000599FFF7C5FB2046FEF7D7FF1A
:102C300000F04EFA002895D14FF080500949086005
:102C4000BFF34F8FBFF36F8F8CE72046FEF7C7FFB0
:102C500000F03EFA86E72046FEF7C1FF00F038FAA2
:102C60000020ADE704ED00E02DE9F05F05468A465F
:102C700016461F462C4600BFBF21EFF3118081F39B
:102C80001188BFF34F8FBFF36F8F00BF8146A06BDA
:102C9000E16B884201D3022F20D194F945B03A4626
:102CA00051462046FEF76DFE0BF1010070B9606AD7
:102CB00008B9012000E0002068B904F1240000F008
:102CC000C7F940B13EB10120306004E00BF10100D2
:102CD00040B284F845004FF0010801E04FF00008D1
:102CE00000BF89F3118800BF4046BDE8F09F000097
:102CF0002DE9F74183B005460F464FF000082C46FA
:102D000000BFFFF787F8A66BF6B139462046FEF7FD
:102D100023FE701EA063206908B9012000E0002096
:102D200060B904F1100000F093F938B14FF0805011
:102D30002F490860BFF34F8FBFF36F8FFFF77CF809
:102D4000012006B0BDE8F081059818B9FFF774F8C6
:102D50000020F6E7B8F1000F04D101A8FFF78AFAC6
:102D60004FF00108FFF768F8FFF70CFCFFF752F887
:102D700094F94400401C10B9002084F8440094F9F0
:102D80004500401C10B9002084F84500FFF754F8B6
:102D900005A901A800F02EF8F0B92046FEF7DEFEE6
:102DA000A0B104F124000599FFF704FB2046FEF7CB
:102DB00016FF00F08DF90028A3D14FF080500C4988
:102DC0000860BFF34F8FBFF36F8F9AE72046FEF77F
:102DD00006FF00F07DF994E72046FEF700FF00F0C3
:102DE00077F92046FEF7BAFE00288AD00020A8E72F
:102DF00004ED00E070B506460C46FFF70BF81248EC
:102E000002687068131A2068401C08B9002517E092
:102E10000E4930680968884204D07068904201D831
:102E200001250DE02068984207D92068C01A20606B
:102E30003046FFF71FFA002502E000202060012540
:102E4000FEF7FAFF284670BD780000208C000020B5
:102E50002DE9FF4F85B0804689461746DDE912AB64
:102E6000B800FEF7FBFE064656B15420FEF7F6FE0C
:102E700004460CB1266304E03046FEF7EDFF00E0A7
:102E800000247CB10020CDE900ABCDE902403A46F8
:102E900049464046089BFEF7E4FD2046FEF7DEFC6F
:102EA000012501E04FF0FF35284609B0BDE8F08F5D
:102EB0002DE9F04100273A480068002863D13948DD
:102EC0000068451C374805608DB93748D0F8008048
:102ED00036480068344908603448C0F800803448F7
:102EE0000068401C32490860FEF754FE00BF3148BC
:102EF000006885423BD300BF2B480068006808B9D2
:102F0000012000E0002020B14FF0FF302949086087
:102F10002CE025480068C068C4686668B54202D2E3
:102F20002448066022E0201DFEF70AFFA06A18B1BF
:102F300004F11800FEF704FF94F82C1001208840DB
:102F40001D49096808431C490860E16A01EB8101D9
:102F50001A4A02EB8100211DFEF750FF1849E06A72
:102F60000968C96A8842C7D30127C5E700BF14486A
:102F70000068C06A00EB8000104951F82000012869
:102F800000D9012704E00F480068401C0D49086083
:102F90000D48006800B101273846BDE8F081000007
:102FA0009C00002078000020680000206C000020B9
:102FB0008C000020940000207C0000207401002080
:102FC00064000020840000208800002070B50546C1
:102FD0002C460026ADB3A06C401EA064616CE06A74
:102FE00088422ED0A06C60BB201DFEF7A9FE78B9E8
:102FF000E06A00EB8000144951F8200040B994F8D1
:103000002C10012088401149096881430F48016054
:10301000606CE062E06AC0F10500A06194F82C10D9
:103020000120884009490968084308490860E16AA5
:1030300001EB8101044A02EB8100211DFEF7DEFE57
:103040000126304670BD0000740100207C00002085
:1030500070B50646F068C46804F11800FEF770FE0B
:1030600015480068A8B9201DFEF76AFE94F82C10D8
:103070000120884011490968084310490860E16A45
:1030800001EB81010E4A02EB8100211DFEF7B6FE25
:1030900004E004F118010B48FEF7B0FE0A49E06AAB
:1030A0000968C96A884204D90125012007490860D6
:1030B00000E00025284670BD9C0000207C00002018
:1030C000740100200002002064000020880000201D
:1030D00070B500240026FEF79DFE2E480068401EB5
:1030E0002C4908600846006800284FD12A4800682B
:1030F00000284BD024E02948C068C46804F11800B7
:10310000FEF71EFE201DFEF71BFE94F82C1001207A
:10311000884023490968084321490860E16A01EBB6
:103120008101204A02EB8100211DFEF767FE1E4946
:10313000E06A0968C96A884202D301201B49086015
:103140001648006808B9012000E000200028D2D00D
:103150000CB1FEF71FFD1648056865B100BFFFF70B
:10316000A7FE10B10120114908606D1E002DF6D197
:1031700000200F4908600D48006838B1012630076B
:103180000C490860BFF34F8FBFF36F8FFEF754FEFB
:10319000304670BD9C00002074000020000200201A
:1031A0007C000020740100206400002088000020C2
:1031B0008400002004ED00E0000000000A0064002C
:1031C000000000000A000A000100040002001000D4
:1031D00002000800010020000040008000200010D4
:1031E00000014000020010000002800001002000E9
:1031F0001032000800000020B00000007C1400081D
:10320000C0320008B0000020904900008C14000873
:1032100000000000000000000000000000000000AE
:1032200000000600001001400010014000080140AD
:1032300000100140000C0140000C0140000C014056
:10324000000C0140000C0140000C0140000C01404A
:10325000000C014002020202010100000200000015
:103260000001020304010203040607080902040620
:103270000800000000000000000000000000000046
:10328000000000000000000000000000000000003E
:10329000000000000000000000000000000000002E
:1032A000000000000000000000000000000000001E
:1032B000AAAAAAAA00000000000000000000000066
:0400000508000131BD
:00000001FF
