:020000021000EC
:10F000000C945BF80C947AF80C947AF80C947AF8D7
:10F010000C947AF80C947AF80C947AF80C947AF8A8
:10F020000C947AF80C947AF80C947AF80C947AF898
:10F030000C9497FC0C947AF80C947AF80C947AF867
:10F040000C947AF80C947AF80C94AEFC0C947AF840
:10F050000C9425FD0C947AF80C947AF80C947AF8B8
:10F060000C947AF80C947AF80C947AF80C947AF858
:10F070000C947AF80C947AF80C947AF80C947AF848
:10F080000C947AF80C947AF80C947AF85A57415602
:10F09000455F50524F4752414D4D45525F56455284
:10F0A00053494F4E5F5656495F34353233403737F8
:10F0B00034303D01200011241FBECFEFD0E1DEBF70
:10F0C000CDBF11E0A0E0B1E0EAE8FDEF01E00BBF49
:10F0D00002C007900D92A030B107D9F719E0A0E067
:10F0E000B1E001C01D92AB3EB107E1F70E94CEF93D
:10F0F0000C94C4FE0C9400F8A0E0B0E0E2E8F8EF55
:10F100000C9493FE982E5B01A9018FB6F894209180
:10F1100011012095809113019091120189279091FE
:10F1200014018927909115018927821709F065C07C
:10F13000E199FECF4A9DC0014B9D900D5A9D900DC7
:10F1400011247C0100E010E0F1E3CF2EF5E0DF2E8A
:10F15000B801A701D501E6018881298191E030E05D
:10F16000322F2227280F311D0901FA0160935B001D
:10F1700090936800E89511244E5F5F4F6F4F7F4F6B
:10F1800012972296109741F785E0F70100935B00F4
:10F1900080936800E8958091680080FDFCCF81E154
:10F1A00080936800E895992019F1B50108C082E0C4
:10F1B00090E0A0E0B0E0E80EF91E0A1F1B1FD60188
:10F1C0008C91F60121810BBFF7014791569130E0F8
:10F1D000322F2227280F311D2417350789F462505A
:10F1E000704082E090E0C80ED91E61157105F9F6F5
:10F1F00081E390E08FBE789406C080E390E003C086
:10F2000080E390E0F7CFECE0CDB7DEB70C94AFFE33
:10F21000982F9A01452B11F465E071E0809102016D
:10F220008F5F80930201FB01E20FF31F80832F5F4A
:10F230003F4FAB0160E0892F0E9420FB81E080936B
:10F2400000010895982F9A01452B11F465E071E0B3
:10F25000FB01E20FF31F8091010180832F5F3F4F7D
:10F26000AB0161E0892F0E9420FB81E080930001C7
:10F270000895CF93DF939C01CA01829FA001839FD1
:10F28000500D929F500D1124E199FECF60E070E087
:10F29000A6E1B1E0C0E0D0E06BBFFA0187919691A2
:10F2A0008C93892F9927FD01818322964E5F5F4FB2
:10F2B0006F4F7F4F2250304012962115310561F774
:10F2C000AE0166E171E080912D050E9422F9DF9187
:10F2D000CF910895DF92EF92FF920F931F93D090FA
:10F2E00011019D2D9095B0911201A0911301709183
:10F2F0001401609115018A2F8B278727862789178C
:10F3000029F080EF80931601A99830C09FB7F89438
:10F31000EE24FF24870120E030E040E050E083E06D
:10F32000F90140935B0080936800E8958091680044
:10F3300080FDFCCF20E031E040E050E0E20EF31E23
:10F34000041F151FA801970180E0E81680EEF8065B
:10F3500081E0080780E0180711F781E180936800D9
:10F36000E8958DE0809316019FBF7894D0921701A5
:10F37000B0931801A093190170931A0160931B01B7
:10F3800046E050E066E171E080912D050E9422F98F
:10F390001F910F91FF90EF90DF9008951F93CF93EF
:10F3A000DF93F89488E10FB6F89481BD11BC0FBECD
:10F3B000789481E085BF82E085BFBC9A97988F9A48
:10F3C00084B7806884BF84BF80916200806180932D
:10F3D0006200809161008061809361008C989498B4
:10F3E000899891988D989598BD98C59A14981C9A6B
:10F3F000BC98C49AA09AA19AA29AA39AB99AC19ABF
:10F40000A89AA99AAA9AAB9AD098D898D198D9983C
:10F41000D298DA98D398DB98D498DC98D598DD9870
:10F420000E9417FB1092000110920101109202013C
:10F43000AB98C6E1D1E081E00E9499FB8130D1F127
:10F44000882329F480910301843209F4D6C02091E5
:10F4500000012130A1F1213070F32230D1F7E09189
:10F460002A05F0E0FE2FEE2780912B0590E0E82B97
:10F47000F92BE75DFA4FE08180910101E81799F0DF
:10F48000E0930101C19A10912D05143209F45CC07A
:10F490001532F8F4183109F486C0193109F471C035
:10F4A000163109F469C01092000181E00E9499FBB5
:10F4B000813031F622E020930001213061F680E0B6
:10F4C0000E9499FB882319F2109204011092000106
:10F4D000B2CF1732C9F0133581F0153221F780EF22
:10F4E000809316012093170142E050E0BE0185E2AF
:10F4F0000E9422F920910001ACCF80912E05882333
:10F5000009F06EC0A998CFCF80912E05809311018C
:10F5100080912F0580931201809130058093130113
:10F5200080913105809314018091320580931501FB
:10F530008DE08093160141E050E0BE0187E20E9419
:10F5400022F92091000185CF109211011092120131
:10F550001092130110921401109215018DE0809306
:10F56000170141E050E0BE0184E20E9422F91093AD
:10F570000301209100016DCF0E946AF920910001E2
:10F5800068CF40912E0550E0542F442780912F05DD
:10F5900090E0482B592B66E480E091E00E9439F915
:10F5A0002091000156CF20912E0530E0322F2227E6
:10F5B00080912F0590E0282B392B46E460E071E024
:10F5C000809130050E947CF88093160141E050E064
:10F5D000BE0180912D050E9422F92091000139CFB2
:10F5E000823029F0813009F05ECFAB985CCF8091FA
:10F5F0002F058823B1F0AA9856CF8C9894988998B3
:10F6000091988D98959ABD98C59A14981C9A88E1FE
:10F6100090E028E00FB6F894A89581BD0FBE21BDFB
:10F62000FFCFAA9A40CF0E94EDFC90E0089510927F
:10F630003D0910923C09109229050E94A0FD0895F1
:10F64000EF92FF920F931F93CF93DF9341155105D4
:10F6500061F050930C0140930B013093090120930A
:10F66000080180930E0160930D0181E00E9430FE3D
:10F6700080910801909109010496892F99270E9491
:10F6800030FE809108018C5F0E9430FE00910801DD
:10F69000109109010C5F1F4FE12EFF240450104010
:10F6A000E0940C5F00930A0180910D010E9430FEEE
:10F6B00010910D0180910E010E9430FE80910E018B
:10F6C000182710271E25A0910B01B0910C0110974F
:10F6D00009F18091080190910901892BD9F0C0E0CE
:10F6E000D0E008C021968091080190910901C817C7
:10F6F000D90780F4AC0FBD1F8C910E9430FEA09101
:10F700000B01B0910C01FD01EC0FFD1F808118274A
:10F71000109741F7812F0E9430FE0E941EFD8091BC
:10F720003E09886080933E09E6E0CDB7DEB70C94D1
:10F73000B5FE0F931F93182F0E94EDFC882309F04C
:10F740005FC080913E0981FD04C080913E0983FF26
:10F750009AC0F8940E9477FD78948436910508F455
:10F760004CC01092290580913E09846080933E0927
:10F7700080913E0981FD5BC015E00E941EFD8091D5
:10F780003E09877F80933E0990913E099695969514
:10F79000927080913E098D7F892B80933E09812F45
:10F7A00090E0C2C0813009F47CC0823008F46EC0A1
:10F7B0000E941EFD809129058F5F8093290580910D
:10F7C0003C0990913D09FC01E65DFA4F00830196EA
:10F7D00090933D0980933C09202F30E080910601F1
:10F7E00090910701822B932B909307018093060140
:10F7F0008091280580278093280580E090E094C0C0
:10F800000E94F3FC082F80912905853090F0853007
:10F81000B1F0863009F45EC090E010922905809125
:10F820003E098D7F80933E09892F90E07DC014E0D2
:10F83000A4CF833008F4B6CF8F5F809329050E9450
:10F840001EFD20913C0930913D09F901E65DFA4F1A
:10F8500000832F5F3F4F30933D0920933C098091F7
:10F860002805802780932805809106019091070143
:10F870002817390710F2809129058F5F8093290599
:10F8800080E090E051C00E941EFDB7CF0130D1F161
:10F8900080913E0983FF02C0063061F186E090E06E
:10F8A00043C00E941EFD809129058F5F809329052A
:10F8B00080913C0990913D09FC01E65DFA4F00837F
:10F8C000019690933D0980933C09802F90E0982FFA
:10F8D00088278ACF112361F080912805081729F025
:10F8E00085E10E9430FE93E098CF86E00E9430FED2
:10F8F00091E093CF80913E09877F80933E0982E01B
:10F9000090E012C0009329058FEF80932805109294
:10F910003D0910923C0980913E09826080933E0926
:10F920000E941EFD80E090E01F910F9108951F92AC
:10F930000F920FB60F9211248F939F9380910F0116
:10F940009091100101969093100180930F019F9167
:10F950008F910F900FBE0F901F9018951F920F92CE
:10F960000FB60F9211242F938F939F93EF93FF93D2
:10F9700080916309909164098097F0F48091E70980
:10F980009091E8092CB1FC01EF5BF64F20830196C2
:10F990009093E8098093E7098091E7099091E8093D
:10F9A000809760F480916309909164090196909327
:10F9B00064098093630907C08CB105C01092E809FF
:10F9C0001092E709EFCFFF91EF919F918F912F91C7
:10F9D0000F900FBE0F901F90189580916309909122
:10F9E000640990E0089580913F0990914009FC01DD
:10F9F000EF5BF64FE08101969093400980933F09B9
:10FA00008091630990916409892B59F0F894809151
:10FA10006309909164090197909364098093630945
:10FA2000789480913F0990914009809720F010923E
:10FA3000400910923F098E2F90E00895F89410929B
:10FA4000100110920F01789408951F920F920FB633
:10FA50000F9211242F933F934F935F936F937F9354
:10FA60008F939F93AF93BF93EF93FF93809165091B
:10FA700090916609892B19F18091E9099091EA0921
:10FA8000FC01E959F64F20812CB901969093EA09BF
:10FA90008093E90980916509909166090197909397
:10FAA0006609809365098091E9099091EA09803897
:10FAB000910550F01092EA091092E90905C0809171
:10FAC0003E098E7F80933E090E941EFDFF91EF91BB
:10FAD000BF91AF919F918F917F916F915F914F9166
:10FAE0003F912F910F900FBE0F901F90189580910E
:10FAF0000F01909110010895282F80E092E10E945B
:10FB000079FE61507040222379F010929800609342
:10FB1000990080919A00886180939A0080919D005D
:10FB2000866080939D0008951092900069B98AB113
:10FB300088618AB9809195008660809395000895C8
:10FB4000F89480E094E29BBD8ABD1DBC1CBC8AE099
:10FB50008EBD87B7806187BF1092100110920F0190
:10FB600060E874E080E00E947CFD8AB1806C8AB914
:10FB70008BB18F738BB910926609109265098091D1
:10FB80006509909166099093640980936309809157
:10FB90006309909164099093EA098093E90980913F
:10FBA000E9099091EA099093620980936109809133
:10FBB0006109909162099093400980933F09809177
:10FBC0003F09909140099093E8098093E7091092CA
:10FBD0003E0978940895FC01808190E002C09595DB
:10FBE00087956A95E2F7817090700895FC01DB01BA
:10FBF000808190E0042E02C0959587950A94E2F7E3
:10FC000080FFF6CF8C9190E00895FC01808190E018
:10FC100002C0959587956A95E2F78095817090E08E
:10FC200008950F931F93182FFB01DA01422F202F05
:10FC3000808190E0022E02C0959587950A94E2F7A4
:10FC400080FFF6CF208181E090E002C0880F991FED
:10FC50004A95E2F7282B20831C931F910F9108955A
:10FC60000F93382F8091650990916609803891052E
:10FC7000C8F780913E0980FF24C08091610990916E
:10FC80006209FC01E959F64F3083019690936209AD
:10FC900080936109F89480916509909166090196B5
:10FCA0009093660980936509789480916109909199
:10FCB000620980389105A0F01092620910926109E2
:10FCC0000FC005E026E04CE250E06BE270E0832FCD
:10FCD0000E9411FE80913E09816080933E09E5CF2C
:10FCE0000F910895FC0160936800C895802D90E005
:10FCF0000895AA1BBB1B51E107C0AA1FBB1FA61773
:10FD0000B70710F0A61BB70B881F991F5A95A9F7C4
:10FD100080959095BC01CD0108952F923F924F920E
:10FD20005F926F927F928F929F92AF92BF92CF928B
:10FD3000DF92EF92FF920F931F93CF93DF93CDB794
:10FD4000DEB7CA1BDB0B0FB6F894DEBF0FBECDBF0C
:10FD500009942A88398848885F846E847D848C84DD
:10FD60009B84AA84B984C884DF80EE80FD800C81E6
:10FD70001B81AA81B981CE0FD11D0FB6F894DEBFC9
:0AFD80000FBECDBFED010895FFCFC7
:040000031000F000F9
:00000001FF
