:020000020000FC
:100000000C9456010C9475010C9475010C947501B7
:100010000C9475010C9475010C9475010C94750188
:100020000C9475010C9475010C9475010C94750178
:100030000C94B4130C9475010C9475010C94750117
:100040000C9475010C9475010C94CB130C947501F0
:100050000C9442140C9475010C9475010C94750168
:100060000C9475010C9475010C9475010C94750138
:100070000C9475010C9475010C9475010C94750128
:100080000C9475010C9475010C9475019A0E890EEF
:100090009D0F7E0E530FFA0BFA0BFA0BFA0BFA0BAD
:1000A000FA0B300F140FFA0BFC0EFA0BFA0BFA0BCB
:1000B000FA0BFA0BFA0BFA0BFA0BFA0BFA0BFA0B18
:1000C000FA0BFA0BFA0BFA0BFA0B750F660F8E0F81
:1000D000800DFA0BFA0BFA0BFA0BFA0BFA0BFA0B70
:1000E000FA0BFA0BFA0BFA0BFA0BFA0BFA0BFA0BE8
:1000F000FA0BFA0BFA0BFA0BFA0BFA0BFA0BFA0BD8
:10010000FA0B390E0D0E050EDE0DD70DA60D9E0D48
:100110008F0DC60EFA0BFA0BFA0BFA0BFA0BFA0B51
:10012000FA0BFA0B4F0EBD0E790D540D4B0DFA0B59
:10013000FA0BFA0BFA0BFA0BFA0BFA0BFA0BFA0B97
:10014000FA0B430D2E0D1D0D100D270D090DF40C8E
:10015000FA0BD60CBF0CAC0C7E0C6A0CFA0BFA0B2B
:10016000FA0BFA0B960C550CFA0BFA0BFA0BFA0B6E
:10017000FA0BFA0BFA0BFA0BFA0BFA0BFA0BFA0B57
:10018000FA0BFA0BFA0BFA0BFA0BFA0BFA0BFA0B47
:10019000FA0BFA0BFA0BFA0BFA0BFA0BFA0BFA0B37
:1001A000FA0BFA0BFA0BFA0BFA0BFA0BFA0BFA0B27
:1001B000FA0BFA0BFA0BFA0BFA0BFA0BFA0BFA0B17
:1001C000FA0BFA0BFA0BFA0BFA0BFA0BFA0BFA0B07
:1001D000FA0BFA0BFA0BFA0BFA0BFA0BFA0BFA0BF7
:1001E000FA0BFA0BFA0BFA0BFA0BFA0BFA0BFA0BE7
:1001F000FA0BFA0BFA0BFA0BFA0BFA0BFA0BFA0BD7
:10020000FA0BFA0BFA0BFA0BFA0BFA0BFA0BFA0BC6
:10021000FA0BFA0BFA0BFA0BFA0BFA0BFA0BFA0BB6
:10022000FA0BFA0BFA0BFA0BFA0BFA0BFA0BFA0BA6
:10023000FA0BFA0BFA0BFA0BFA0BFA0BFA0BFA0B96
:10024000FA0BFA0BFA0BFA0BFA0BFA0BFA0BFA0B86
:10025000FA0BFA0BFA0BFA0BFA0BFA0BFA0BFA0B76
:10026000FA0BFA0BFA0BFA0BFA0BFA0BFA0BFA0B66
:10027000FA0BFA0BFA0BFA0B450C3E0C2C0C1B0C70
:10028000020C5A574156455F50524F4752414D4D0F
:1002900045525F56455253494F4E5F5656495F345B
:1002A00035323340373734303D01200011241FBE32
:1002B000CFEFD0E1DEBFCDBF14E0A0E0B1E0EEE4CF
:1002C000F9E300E00BBF02C007900D92AE39B10711
:1002D000D9F71FE0AEE9B4E001C01D92A53BB1071C
:1002E000E1F70E941B0B0C94A61C0C94000080915B
:1002F0009D04882309F4C498089580919D0488235F
:1003000009F4C49A0895880F991F880F991FAC01AA
:10031000440F551F440F551F480F591F41155105D4
:1003200051F020E030E08BE78A95F1F72F5F3F4FE7
:1003300024173507C1F708959C018836910500F50B
:1003400040E050E0CA01B901660F771F881F991F6E
:10035000660F771F881F991F660F771F881F991FC9
:10036000621B730B840B950B23E030E040E050E000
:100370000E944E1C822F222379F18A95F1F708956D
:1003800068E670E00E94181C615038F5C90168E603
:1003900070E00E94181CA0E0B0E09C01AD01220FAB
:1003A000331F441F551F220F331F441F551F220F99
:1003B000331F441F551F281B390B4A0B5B0BCA0107
:1003C000B90123E030E040E050E00E942C1C822F75
:1003D000222311F08A95F1F7089580E08A95F1F7CC
:1003E00061506F3F99F280E08A95F1F76150A8F76C
:1003F000CDCF882331F08AEF81BF12BE8AE783BF59
:10040000089583B78C7C83BF08951F93982F162F70
:100410008091E60A82508230A0F0953019F080E396
:1004200090E01EC08BE00E94941B812F0E94941BC1
:100430008FEF0E94941B8FEF0E94941B81E390E04A
:100440000FC08CEA0E94941B80EC0E94941B809148
:10045000E70A0E94941B80E00E94941B81E390E0D5
:100460001F910895A4E0B0E0E8E3F2E00C946B1C67
:10047000682E762E5901470150E0249FC001259F28
:10048000900D349F900D11242C019A838983862D21
:100490000E94941B8A810E94941B89810E94941B54
:1004A000F80180810E94941BC7010E949C01C50134
:1004B000019763E070E00E94181C7501E81AF90AC0
:1004C00081E090E09A838983F2E0EF16F10408F46A
:1004D00066C0872D0E94941B29813A81F901E00FA3
:1004E000F11F80812F5F3F4F3A8329830E94941B25
:1004F00029813A81F901E00FF11F80812F5F3F4F81
:100500003A8329830E94941B29813A81F901E00FE3
:10051000F11F80812F5F3F4F3A8329830E94941BF4
:10052000C6010E949C0189819A819C018E159F05BC
:1005300080F28A159B05B0F5240D351D3C832B8375
:10054000B3E0EB2EF12CEC0EFD1EA4E0CA2ED12C54
:10055000CC0EDD1E862D0E94941BF60180810E9428
:10056000941BF70180810E94941B29813A81F90133
:10057000E00FF11F80812F5F3F4F3A8329830E9454
:10058000941BC4010E949C018B819C8101969C83D9
:100590008B8389819A818A159B05E0F203C021E053
:1005A00030E0C7CF81E090E0E0E124960C94871C16
:1005B000A0E0B0E0EEEDF2E00C946E1C762EF42E8E
:1005C000480140FD47C04093A7040E94941B8F2D13
:1005D00086950E94941B80E00E94941BC6010E9495
:1005E0009C0180E00E94941B982FEE2009F074C0BB
:1005F000F8018083E40104E010E014C08981D8167A
:1006000009F06FC08A81C81609F06BC08B819817FA
:1006100009F067C00D5F1F4F2396F4E003301F07FA
:1006200009F457C0872D0E94941BC5010E949C01AC
:1006300080E00E94941BD82E80E00E94941BC82E5C
:1006400080E00E94941B982FEE20C1F6D982CA82C6
:100650008B83E0CF00E010E0C0E0D0E0872D0E9467
:10066000941BC5010E949C0180E00E94941BD82E1F
:1006700080E00E94941BC82E80E00E94941B982F5B
:10068000EE2091F184E0C030D807E8F4FE01E80DD7
:10069000F91D8081D81629F52196E4E0C030DE07E7
:1006A00091F0FE01E80DF91D8081C816D1F4219664
:1006B000F4E0C030DF0739F0FE01E80DF91D80815C
:1006C000981779F421960F5F1F4F81E006351807C0
:1006D00029F681E090E023C0F8018081981709F4A1
:1006E00089CF80E090E01BC084E0C030D80758F785
:1006F000FE01E80DF91DD0822196E4E0C030DE074E
:1007000011F3FE01E80DF91DC0822196F4E0C0301E
:10071000DF07C9F2FE01E80DF91D9083D3CFEDE0AC
:10072000CDB7DEB70C948A1CA5E0B0E0EAE9F3E0AF
:100730000C94691C8D83862E39019E2C260150E075
:10074000649E9001659E300D749E300D1124190138
:100750003A8329830E94941B8A810E94941B898179
:100760000E94941BC6010E949C0180E00E94941B81
:10077000982FEE2039F0F8018081981729F080E059
:1007800090E09FC0F8018083C301019763E070E0AF
:100790000E94181C6301C81AD90A21E030E03A838C
:1007A000298320C029813A81F901E00FF11F80815E
:1007B000F81629F72F5F3F4F3A832983F901E00F9D
:1007C000F11F8081E816D9F62F5F3F4F3A832983C6
:1007D000F901E00FF11F8081981789F62F5F3F4FD5
:1007E0003A8329832C153D0538F5882D0E94941BEA
:1007F000C5010E949C0180E00E94941BF82E80E0BD
:100800000E94941BE82E80E00E94941B982F992050
:1008100049F629813A81F901E00FF11FF0822F5F3B
:100820003F4FF901E00FF11FE0822F5F3F4FF901C9
:10083000E00FF11F8083D2CF2615370508F03FC0A7
:10084000220D331D3C832B8393E0A92EB12CAC0EDB
:10085000BD1E84E0E82EF12CEC0EFD1E15C0298192
:100860003A81F901E00FF11F8081981709F087CFD5
:100870002F5F3F4F3A8329838B819C812615370553
:10088000F0F401969C838B838D810E94941BF70169
:1008900080810E94941BF50180810E94941BC201FB
:1008A0000E949C0180E00E94941B982F9920B9F629
:1008B00029813A81F901E00FF11F8083D9CF81E0CE
:1008C00090E0E2E125960C94851CAF92BF92CF9206
:1008D000DF92EF92FF920F931F938B01843019F0F8
:1008E00080E090E02DC0F090C10481E08093C104CD
:1008F0008AE90E94941B80E00E94941B80E00E9481
:10090000941B80E00E94941B8DE090E00E949C016B
:1009100036E0A32EB12C22E0C22ED12CEE2420E40E
:1009200030E040E065EB87E00E949403882329F0E3
:10093000F092C10480E490E003C0F092C104D0CFF3
:100940001F910F91FF90EF90DF90CF90BF90AF90ED
:1009500008958450823018F081E090E008958FE788
:100960000E94941B8EEF0E94941B80E00E94941BB7
:1009700080E00E94941B90E00895982F845082306C
:1009800018F081E090E00895892F0E94A90490E07A
:10099000897009F091E081E09827892F90E008950F
:1009A000A0E0B0E0E6EDF4E00C946E1C762EB42EE0
:1009B000E9014801853031F0843009F480C080E3DA
:1009C00090E0A9C082E0681709F4A1C0E3E06E17C7
:1009D000E1F160FD3CC0162F169584E00E94941B47
:1009E000812F0E94941B80E00E94941BF40180815F
:1009F0000E94941B82E090E00E949C01CE0101972E
:100A000063E070E00E94181C7B01672BC9F0E401D1
:100A100000E010E080E80E94941B89810E94941BF2
:100A20008A810E94941B8B810E94941B82E090E03B
:100A30000E949C010F5F1F4F23960E151F0551F753
:100A4000BB2049F581E390E066C0F1E17F2ECE0145
:100A5000019763E070E00E94181C7B01672B81F313
:100A6000E40100E010E080E80E94941B88810E946D
:100A7000941B89810E94941B8A810E94941B82E0AE
:100A800090E00E949C010F5F1F4F23960E151F05DB
:100A900051F7BB20B9F2E2E0AE2EB12C72E0C72EC6
:100AA000D12CEE24E394840120E034E0472D60EA69
:100AB00086E00E94D802882309F481CFC3CF0E9428
:100AC000BD04882309F47BCF62E0C62ED12C52E00E
:100AD000E52EF12C20E031E0472D60E884E00E9413
:100AE0003202882309F46BCFBB2009F4ABCF42E07C
:100AF000A42EB12CEE24E39420E031E0472D60EAEF
:100B000086E00E949403882309F459CF9BCFA0E18B
:100B10007A2E18E062CFEDE0CDB7DEB70C948A1CD8
:100B2000AF92BF92CF92DF92EF92FF920F931F93FB
:100B3000F62E8A018530E1F0843019F080E090E0F3
:100B40003AC00E94BD048823C9F382E0A82EB12CCC
:100B5000B2E0CB2ED12CEE2420E031E04F2D60EA24
:100B600086E00E949403882349F380E091E023C04B
:100B70000E94BD04882311F382E0F816B1F083E0EF
:100B8000F816B1F022E0A22EB12C92E0C92ED12CA1
:100B9000EE2420E034E04F2D60EA86E00E94D80287
:100BA000882361F280E094E006C040E1F42EEACFB1
:100BB00031E1F32EE7CF1F910F91FF90EF90DF907F
:100BC000CF90BF90AF900895A0E0B0E0EAEEF5E0DE
:100BD0000C94721CC82E8B01B22E852F9927D82E0B
:100BE0004111D394E801EE24FF2410C0AE016E2D14
:100BF00084E00E94900580509140A1F4DA9408941A
:100C0000E11CF11CC050DF4FDD2061F0CC2071F7FA
:100C10008E0120E030E04B2D6E2D84E00E94D00448
:100C2000813361F380E090E0DD2011F481E090E019
:100C3000E9E0CDB7DEB70C948E1C1F93182F8150BE
:100C4000833028F01430D9F080E090E02FC0812F5D
:100C50000E94BD048823C1F388E50E94941B80E0B4
:100C60000E94941B80E00E94941B1130B9F0125036
:100C70001230C0F080E00E94941B90E017C084E026
:100C80000E94BD04882301F381EF0E94941B80E041
:100C90000E94941B80E00E94941BECCF83E08A9515
:100CA000F1F7E8CF8CE08A95F1F7E4CF1F91089532
:100CB000843019F080E390E008950E94BD048823F9
:100CC000C9F380ED0E94941B80E00E94941B80E099
:100CD0000E94941B80E00E94941B8CE08A95F1F79F
:100CE00084E00E94A90486FFE5CF81E390E00895A7
:100CF000843019F080E390E008950E94BD048823B9
:100D0000C9F380EC0E94941B80E00E94941B80E059
:100D10000E94941B80E00E94941B8CE08A95F1F75E
:100D200084E00E94A90487FFE5CF81E390E0089565
:100D30001F93162F80E30E94941B812F0E94941B07
:100D4000812F0E94941B83E08A95F1F780E00E9436
:100D5000941B90E01F910895FF920F931F93CF93E0
:100D6000DF93F82E8B0160E00E949806F8018083E3
:100D7000C1E0D0E06C2F8F2D0E949806F801EC0F97
:100D8000FD1F80832196C730D105A1F7E5E0CDB7DF
:100D9000DEB70C94921C1F93182F8CEA0E94941BB0
:100DA0008DE50E94941B80E00E94941B812F0E947D
:100DB000941B1F9108950F931F9380E090E10E9470
:100DC0009C0100E00DC00F5F83E08A95F1F7949AD3
:100DD00000009498000083E08A95F1F7003291F0CA
:100DE0008CEA0E94941B83E50E94941B8AEA0E946D
:100DF000941B182F85E50E94941B133521F7802F33
:100E000090E002C080E290E01F910F910895982F2A
:100E100082508430A8F0913019F08FEF90E008955F
:100E2000979A0E947D0183E08A95F1F70E947701ED
:100E300000000E947D0197980E94DB0690E00895D3
:100E400097980E947D010E94770188EC90E00E94B3
:100E500083010E94DB0690E008950F93BD98C59A28
:100E600091989498899A8C9A00E120E242E060E39C
:100E700070E082E390E00E94131B82E00E9407076B
:100E8000803228F48093CE0481E090E00EC081E0AF
:100E90000E9407078093CE0420E030E0803210F0FB
:100EA000C90103C021E030E0C9010F910895A1E01C
:100EB000B0E0EDE5F7E00C94711CE82EF62E8A0107
:100EC00025E0821709F44FC034E0831709F465C0A8
:100ED00082508983823008F442C0E1E0EE1619F0B6
:100EE00080E090E073C070E8C72ED12CAA24BB2408
:100EF0001CC088E20E944C1B8F2D0E944C1BF1E00D
:100F0000EF16F1F08A2D8E7F0E944C1B2981223032
:100F100000F10E94241BF801EA0DFB1D8083089458
:100F2000A11CB11CAC14BD04C0F4A0FCE2CF80E253
:100F30000E944C1B8F2D0E944C1BF1E0EF1611F705
:100F40008A2D8E7F880F0E944C1B83E08A95F1F7D3
:100F5000E0CF8CE08A95F1F7DCCFC60137C0C12C19
:100F6000E1E0DE2EC3CF85E00E94BD04882309F4B2
:100F7000B7CF82E0A82EB12CB2E0CB2ED12CEE243C
:100F800020E034E04F2D60EA80E10E94D8028823FF
:100F900009F4A6CF80E094E019C084E00E94BD046B
:100FA000882309F49DCFA2E0AA2EB12CF2E0CF2E27
:100FB000D12CEE2420E031E04F2D60EA80E10E9448
:100FC0009403882309F48CCF80E091E0EAE0219635
:100FD0000C948D1CA3E0B0E0E0EFF7E00C946E1CE5
:100FE000E82EF62E742E460145E0841731F1F4E028
:100FF0008F1709F477C1482F42504B83423008F4D1
:1010000039C181E0E81609F469C1CC24DD248CE4FF
:101010000E944C1B8F2D0E944C1B80E00E944C1B99
:1010200080E00E944C1B88E090E00E9483017720C2
:1010300009F08EC081E390E0C7C2462F50E060FD0A
:10104000ACC06093A8043093AD042093AC043093FB
:10105000B1042093B0041093AF040093AE04109237
:10106000AB040217130734F3205034401CF784E01C
:101070000E94941B8091AD040E94941B8091AC044B
:101080000E94941BE091AC04F091AD04EC0DFD1DA9
:1010900080810E94941B82E090E00E949C0120913C
:1010A000AC043091AD042F5F3F4F3093AD042093DB
:1010B000AC040091AE041091AF04021713070CF4B6
:1010C00093C1E4E020303E0794F18EC180E80E9495
:1010D000941B8091A9040E94941B8091AA040E94F1
:1010E000941BE091AC04F091AD04E80DF91D8081F2
:1010F0000E94941B82E090E00E949C011092AB043D
:101100002091AC043091AD040091AE041091AF0475
:101110002F5F3F4F3093AD042093AC0402171307A9
:101120000CF462C1F4E020303F070CF05DC19091F7
:10113000AB04923058F6F401E20FF31F8081E92FDF
:10114000F0E0E755FB4F80839F5F9093AB04E0CFC7
:101150004EEC56E06F2D8E2D0E945707C114D1041E
:1011600009F468CF9091CE06F4018081981791F42C
:1011700020E030E02F5F3F4F2C153D0509F45ACF9A
:10118000F401E20FF31F9081F901E253F94F8081DE
:10119000891781F380E390E017C28091A80490E062
:1011A000019648175907B1F78091AE049091AF04AA
:1011B000F4E080309F070CF43DCF2091AC043091D7
:1011C000AD04205034403093AD042093AC048050E3
:1011D00094409093AF048093AE048091B0049091BA
:1011E000B104805094400CF0C5C10091AE04109140
:1011F000AF04021713076CF55EC180E80E94941BD0
:101200008091A9040E94941B8091AA040E94941BBF
:10121000E091AC04F091AD04E80DF91D80810E94CD
:10122000941B82E090E00E949C011092AB042091FC
:10123000AC043091AD040091AE041091AF042F5F67
:101240003F4F3093AD042093AC04021713070CF406
:1012500032C19091AB04923080F6F401E20FF31F9B
:101260008081E92FF0E0E755FB4F80839F5F9093EB
:10127000AB04E5CFC12C21E0D22E00E010E018C075
:1012800088E40E944C1B80E00E944C1BE1E0EE16BB
:10129000D1F0FB81F230E8F0F401E00FF11F808122
:1012A0000E944C1B0F5F1F4F0C151D0508F0AFCEA1
:1012B00000FDE6CF80E40E944C1B80E00E944C1BA6
:1012C000E1E0EE1631F7802F8E7F880F0E944C1BD5
:1012D000E3CF802F8E7F0E944C1BDECF90E8C92E7B
:1012E000D12CCBCF84E00E94BD04882309F452CFD7
:1012F000860120E030E041E060E084E00E94D0041C
:10130000813309F047CF84E00E94BD04882309F4AB
:1013100041CF979A80E20E94941B8F2D90E0982FE6
:1013200088279A8389838A810E94941B89810E94DD
:10133000941B80E00E94941B84E790E00E949C0133
:1013400084E790E00E949C0101E010E084E790E0D7
:101350000E949C010F5F1F4F0F3F1105B9F7A12C91
:1013600058E3B52E52E0C52ED12C14C084FD19C00F
:101370008AE090E00E949C010894A108B108C1088D
:10138000D1082FEFA2162FEFB2062FEFC2062FEFD4
:10139000D20639F084E00E94A904082F10E083FDF2
:1013A000E5CF979808711070012B09F0F3CE7720E4
:1013B00009F440CE84E00E94BD04882309F4EACEFB
:1013C00042E0A42EB12C32E0C32ED12CEE24E394C3
:1013D000840120E031E04F2D60EA80E10E94940317
:1013E000882309F4D7CE26CE005014400CF022CE2C
:1013F00080E20E94941BEF2CE6948E2D0E94941B99
:101400008FEF0E94941B8FEF0E94941B80E090E36B
:101410000E949C012091AB04222309F447C0FF24C1
:101420000F2D10E007551B4FF80180818F3F89F188
:1014300084E00E94941B2091AB048091AC049091B5
:10144000AD04821B9109892F990F990B0E94941B5F
:101450008091AC049091AB04891B0E94941BF8010D
:1014600080810E94941B82E090E00E949C0180E2B7
:101470000E94941B8E2D0E94941B8FEF0E94941B40
:101480008FEF0E94941B80E090E30E949C012091CA
:10149000AB048091AC049091AD0401969093AD049F
:1014A0008093AC04F394F21608F4BACF1092AB0414
:1014B00081E390E089C080E20E94941BF6948F2D16
:1014C0000E94941B8FEF0E94941B8FEF0E94941B2D
:1014D00080E090E30E949C012091AB04222331F331
:1014E000EE240E2D10E007551B4FF80180818F3F31
:1014F00099F184E00E94941B8091AC049091AD041A
:1015000080509C4F2091AB04821B9109892F990F29
:10151000990B0E94941B8091AC049091AB04891BA1
:101520000E94941BF80180810E94941B82E090E04D
:101530000E949C0180E20E94941B8F2D0E94941BAC
:101540008FEF0E94941B8FEF0E94941B80E090E32A
:101550000E949C012091AB048091AC049091AD0459
:1015600001969093AD048093AC04E394E21608F4E2
:10157000B8CF9CCF84E00E94941B8091AC049091E2
:10158000AD0480509C4F892F990F990B0E94941B9A
:101590008091AC040E94941BE091AC04F091AD04E6
:1015A000EC0DFD1D80810E94941B82E090E00E9462
:1015B0009C012091AC043091AD042F5F3F4F3093DC
:1015C000AD042093AC0411CEEDE023960C948A1C5C
:1015D000982F9A01452B11F462EB74E08091A104DD
:1015E0008F5F8093A104FB01E20FF31F80832F5FC5
:1015F0003F4FAB0160E0892F0E943D1281E0809354
:101600009F04A8950895982F9A01452B11F462EB39
:1016100074E0FB01E20FF31F8091A00480832F5F31
:101620003F4FAB0161E0892F0E943D1281E0809322
:101630009F04A89508952F923F924F925F926F92C8
:101640007F929F92AF92BF92CF92DF92EF92FF92E2
:101650000F931F93CF93DF93CDB7DEB729970FB6C4
:10166000F894DEBF0FBECDBFF89488E10FB6F894B2
:1016700081BD11BC0FBE7894BC9A97988F9A0E9436
:10168000770181E090E00E9483010E947D0184B790
:10169000806884BF84BF8091620080618093620013
:1016A000809161008061809361008C989498899802
:1016B00091988D989598BD98C59A14981C9ABC9845
:1016C000C49A1A9AA09AA19AA29AA39AB99AC19A6C
:1016D000A89AA99AAA9AAB9AD098D898D198D9984A
:1016E000D298DA98D398DB98D498DC98D598DD987E
:1016F0000E94341230E010929F041092A0041092C5
:10170000A10412981A9A1092A2041092A30488E1DC
:1017100090E02FE00FB6F894A89581BD0FBE21BDD3
:10172000A898FEEC6F2EF4E07F2EE9EE4E2EEAE054
:101730005E2E70EE272E78E0372EA8950A9929C0E4
:101740008091A204882319F481E08093A30481E0AE
:101750008093A204313009F1313050F5A89581E031
:101760000E94B612813009F400C4882369F4809184
:10177000A404873209F40AC4843209F40EC48091A7
:10178000A304882309F0F5C330919F04A8950A9B10
:10179000D7CF1092A2043130F9F680E00E94B61241
:1017A000882391F31092A60430E010929F04C5CFD5
:1017B000323009F0C2CF2091E20AE22FF0E0FE2F92
:1017C000EE274091E30A842F90E0E82BF92BEF51AC
:1017D000F54FE0818091A004E81761F0E093A00448
:1017E000C19AF090E50A8F2D90E0FC013597EB3F10
:1017F000F10520F030E010929F049FCFEA5BFF4F8D
:101800000C94A01C8FEF0E94941B8FEF0E94941BDE
:101810008FEF0E94941B8FEF0E94941B81E38093B3
:10182000CE0441E050E0B3018091E50A0E94030B31
:1018300030919F0482CF82EF0E94941B8091E60A30
:101840000E94941B8091E70A0E94941B80E00E94F2
:10185000941B8093CE04E5CF8EEF0E94941B80E012
:101860000E94941B8091E60A0E94941B8091E70AD3
:101870000E94941B81E38093CE04D3CF8091E60A2B
:101880000E94A9048093CE04CCCF80919D04813026
:1018900009F493C41092CE0441E050E0B3018BEF01
:1018A0000E94030B30919F0448CF8091E60A853057
:1018B00029F4809162008061809362008DE08093C2
:1018C000CE0441E050E0B30182E70E94030B309167
:1018D0009F0433CF8091E60A843009F456C480E037
:1018E00000E08093CE040093CF0442E050E0B301C7
:1018F0008F2D0E94030B30919F041FCF8091A50470
:10190000882309F4A8C3B090E80A8091E60A8430DD
:1019100009F456C480E38093CE048F2D41E050E05B
:10192000B3010E94030B30919F0407CF8091E60A18
:101930008450823028F4809162008F7E8093620010
:101940008DE08093CE0441E050E0B30181E70E9436
:10195000030B30919F04F1CE8091A504882309F4F4
:1019600070C3B3018091E60A0E946504AC01B30123
:101970008091E50A0E94030B30919F04DECE809196
:10198000A504882339F00091E70A8091E60A8430A3
:1019900009F472C380E38093CE0441E050E0B301C8
:1019A0008F2D0E94030B30919F04C7CE8091E60AD1
:1019B000882309F055C38091A504882329F08091DC
:1019C000E70A843009F491C311E30E947701BC9ABD
:1019D00097988F9A1092A504BD98C59A80E00E94AE
:1019E000F9011093CE041DCF8091E60A8450823015
:1019F00088F683EC0E94941B80E00E94941B80E098
:101A00000E94941B80E00E94941B81E3F090E50A01
:101A1000C2CF8091E60A0E9458068093CE0401CF7F
:101A20008091E60A843009F0B5CF0E94BD04882376
:101A300009F07BC3F090E50AADCF8091E60A8530CE
:101A400009F493C30E9478068093CE04EACE809175
:101A5000E60A0E94A9048093CE04E3CE30E0322F40
:101A60002227842F90E0282B392B2750304040919B
:101A7000E80A6091E70A82018091E60A0E94D00498
:101A80008093CE04CECE6091E70AA3018091E60A4E
:101A90000E9490056BCF1091E70A8091E60A85308D
:101AA00009F42AC480E077CF0091E80A1091E70A90
:101AB0008091E60A853009F06DCF193008F06ACFC1
:101AC0000E94BD04882309F4B5CF80EF0E94941BC7
:101AD000812F0E94941B8FEF0E94941B802F0E94E5
:101AE000941B86E090E00E949C0181E3F090E50A5F
:101AF00052CF8091E60A882309F079C2A9987ACE5C
:101B00008DE08093CE0441E050E0B30187E20E9473
:101B1000030B87E28093A40430919F040ECEB3019F
:101B20008091E60A0E94AC0647E050E0B301809144
:101B3000E50A0E94030B30919F04FFCD8091E60AD5
:101B40000E94CB068DE08093CE046BCE0091E70A15
:101B50001091E60A812F8150833008F412C41430AA
:101B600009F018CF84E00E94BD04882309F462CFF5
:101B7000979A80EF0E94941B802F0E94941B80E014
:101B80000E94941B80E00E94941B84E492E00E94D7
:101B90009C01979884E00E941D0690E083709070ED
:101BA000202F30E08217930709F044CF92C2809132
:101BB000E60A0E941D068093CE0433CE0E94770170
:101BC00081E090E00E9483015091E60A553009F4CB
:101BD0009BC32091E20A30E0322F22278091E30A52
:101BE00090E0282B392B275030404091E80A609133
:101BF000E70A6201790100E010E020E030E0852F83
:101C00000E94EA078093CE040CCE6091E70AA301FC
:101C10008091E60A0E945707A9CE9091E70A109199
:101C2000E60A153009F408C4812F8150833008F08A
:101C3000B1CE892F0E94CB068CEA0E944C1B80E813
:101C40000E944C1B80E00E944C1B80E00E944C1BB9
:101C5000812F8250823008F44CC380E090E0113034
:101C600011F484EF91E00E94830181E3F090E50A92
:101C700092CE10929D04BC9A0E947D010E942D0775
:101C8000882309F0ADC341E050E0B3018091E50A3B
:101C90000E94030B0E94770130919F044ECD8091EA
:101CA000E60A882309F4ABC1C59A91989498BD9A25
:101CB000899A8C9ABC9A0E94770181E00E94F9016E
:101CC0008091E70A813009F4A9C1813008F0A3C1ED
:101CD000F0E0E0E020E060E0F093CE04E093CF0499
:101CE0002093D0046093D10444E050E0B30180918C
:101CF000E50A0E94030B30919F041FCD1C82709156
:101D0000E60A7D838091E70A8E8360E00E949D153C
:101D1000B9CD1092CE0481E08093CF0480E280930D
:101D2000D00443E050E0B30186E00E94030B309101
:101D30009F0403CD6091E60A69837091E70A7A8374
:101D40008091E80A8B83E72FF0E0FE2FEE272091A9
:101D5000E90A30E0322F22274091EA0A50E0242B92
:101D6000352B482F50E0E42BF52B2E1B3F0B4091D9
:101D7000EB0A0E94FF158DE085CD6091E70A809106
:101D8000E60A0E9405028093CE044BCD80919D040B
:101D9000882331F5899891988C9894988D98959886
:101DA0008091E60A843008F01AC1823008F409C133
:101DB00097988F9A0E947D0181E090E00E948301B4
:101DC00080E991E00E949C010E94770181E090E00F
:101DD0000E94830180E991E00E949C010E947D01A4
:101DE00081E080939D04BC98C49880E00E94F90132
:101DF0008DE08093CE0415CD1C821D8288E08E83F9
:101E000024E030E047EE5AE060E070E00E94E81520
:101E10008DE08093CE0441E050E0B30183E10E9465
:101E2000030B30919F0489CC6091E60A698370911D
:101E3000E70A7A838091E80A8B832091E90A30E0EF
:101E40004AEE5AE00E94E8158DE08093CE0441E00E
:101E500050E0B30181E10E94030B30919F046DCCEF
:101E60006091E60A6093CE047091E70A7093CF0404
:101E70008091E80A8093D0046F83788789872091C6
:101E8000E90A30E041ED54E00E94D1154091E90AA1
:101E900050E04D5F5F4FB3018091E50A0E94030B54
:101EA00030919F044ACC4091E90A6091E60A6C8324
:101EB0007091E70A7D838091E80A8E830E94BA15AB
:101EC0006C817D818E810E949D15DCCC80EF80939A
:101ED000CE0482E08093CF0442E050E0B30185E27B
:101EE0000E94030B30919F0428CC1092C9041092D9
:101EF000CA041092CB041092CC041092CD048DE051
:101F00008093CF0441E050E0B30184E20E94030BD0
:101F100084E28093A40430919F040FCC81E08093ED
:101F2000CE0480E28093CF0442E050E0B30186E229
:101F30000E94030B30919F0400CC1092CE0481E0EC
:101F400090E0FC01E253FB4F8083019684309105C1
:101F5000C1F71C821D8288E08E8324E030E0A3015B
:101F600060E070E00E94D115BFCE32E030939F0454
:101F7000E4CB8093CE0441E050E0B30187E60E94B9
:101F8000E80A1092A30430919F04D7CB1092A404C6
:101F9000F894E0E0F0EF0995F2CB8C98949889984A
:101FA00091988D98959ABD98C59A14981C9A88E135
:101FB00090E028E00FB6F894A89581BD0FBE21BD32
:101FC000FFCF813009F00CCF979A0E9477018AE009
:101FD00090E00E9483010E947D01979801CF843098
:101FE00009F0FECE97988F9A0E947D01F9CE82303B
:101FF00009F473C0813009F0FDCBAB98FBCBBD98E1
:10200000C59A80E00E94F90197988F9AF0E0E1E08C
:1020100020E060E061CE863008F05ACE60E288E3CE
:1020200090E00E941616292F332744275527F22FB8
:102030009C0144275527E22F272F382F492F55275A
:102040004BCE40E050E060E070E08AE60E94030B77
:1020500030919F0472CB80E38093CE048BE65ECCFC
:1020600080E00E94F9011092A5048091E70A843073
:1020700009F4C2C010E3B5CC1091C10481E0809393
:10208000C10489E30E94941B80E00E94941B80E0BD
:102090000E94941B802F0E94941B88E092E50E946E
:1020A0009C01B30184E00E9465048034910531F005
:1020B0001093C10480E3F090E50A6DCCF3018081B8
:1020C0000817B1F7319685E0EE30F807C1F71093A5
:1020D000C10481E3F090E50A5ECC8091E70A882391
:1020E00011F0AA9887CBAA9A85CB0E947701BC9A57
:1020F00097988F9A0E942D07882311F410E365CCDE
:1021000021E040E054E0B10180E00E94E405882332
:10211000A9F380919E0487FD22C086FFEFCF84E063
:102120000E945806813351F74FCC979A8EEF0E9448
:10213000941B80E00E94941B80E00E94941B80E02E
:102140000E94941B84E492E00E949C01979865E0B1
:1021500084E00E949806833009F06CCCBACF84E00A
:102160000E947806813351F62FCC80EC0E94941B9C
:1021700080E00E94941B80E00E94941B80E00E94FB
:10218000941B81E38093CE044CCB8EE70E94941B7A
:1021900080E00E94941B80E00E94941B082F80E046
:1021A0000E94941B10E0102F002790E0082B192BA1
:1021B000812F9927F090E50A94CB8093CE046CCBC5
:1021C0009090C10481E08093C10406E0C02ED12C20
:1021D00012E0E12EF12C820120E430E040E066E5DF
:1021E0008DE40E943202882309F058C09092C10405
:1021F00080E3F090E50A8FCB0E942D07882309F435
:1022000039CF84E00E94A90480939E0420E040E03E
:1022100054E0B10181E00E94E40521E04DE853E083
:1022200060E071E080E00E94E405882309F422CF99
:1022300084E00E947806813309F01CCF0E94770168
:10224000BC9A97988F9A899891988C9894988D9821
:1022500095980E947701BC9A8AE090E00E948301E1
:102260000E947D018AE090E00E94830191989498F9
:10227000899A8C9A8D98959800E120E242E060E37B
:1022800070E082E390E00E94131B8AEA90E00E94D3
:102290009C0181E08093A50411E3A3CB8EE20E9410
:1022A000941B80E00E94941B80E00E94941B80E0BD
:1022B0000E94941B80E29EE40E949C01BB2031F4AA
:1022C0009092C10481E3F090E50A25CBB6E0AB2EF5
:1022D000B12CA2E0CA2ED12CEE24E394820120E49A
:1022E00030E040E065EB87E00E949403882341F7EB
:1022F0007DCF88EE93E0B3CC0E94BD04882391F596
:10230000F090E50A80E047CBE091E20AF0E0FE2F92
:10231000EE278091E30A90E0E82BF92B3B970091A0
:10232000EB0A10E0102F00278091EC0A90E0082BB8
:10233000192B2091E90A30E0322F22278091EA0AF6
:1023400090E0282B392B4091E80A6091E70AADEE26
:10235000CA2EAAE0DA2E7F0185E00E94EA07809368
:10236000CE045FCA81EF0E94941B812F0E94941BB0
:102370008FEF0E94941B80E00E94941BF090E50A6E
:102380000ACB812F0E94BD04882309F453CB0F711F
:102390008CEA0E94941B80EE0E94941B80E00E94B5
:1023A000941B802F0E94941B1130A9F0812F825022
:1023B000823020F48EE390E00E949C01812F0E94E5
:1023C0001D0690E08F719070202F30E082179307E8
:1023D00009F030CB7ECE86E990E00E949C01EECFE2
:1023E0006FEC74E080E00E94AC068091D3048F31E2
:1023F00009F049CC8091D404843009F044CC85E0C4
:102400000E94A904883009F03ECC0E947D0181E041
:1024100080939D0485E00E9407076FEC74E080E0E4
:102420000E94AC0685E00E94A904883009F02BCCFC
:1024300080E28093CE0427CC8AE00E944C1B80E08F
:102440000E944C1B80E00E944C1B80E00E944C1BB1
:1024500082E390E00E94830181E3F090E50A9BCA49
:102460000E940A1490E008951092F50E1092F40E56
:102470001092E10A0E94BD140895EF92FF920F930B
:102480001F93CF93DF934115510561F05093B90429
:102490004093B8043093B6042093B5048093BB04F2
:1024A0006093BA0481E00E944D158091B50490912B
:1024B000B6040496892F99270E944D158091B50482
:1024C0008C5F0E944D150091B5041091B6040C5F0D
:1024D0001F4FE12EFF2404501040E0940C5F009346
:1024E000B7048091BA040E944D151091BA048091EE
:1024F000BB040E944D158091BB04182710271E2590
:10250000A091B804B091B904109709F18091B50475
:102510009091B604892BD9F0C0E0D0E008C0219694
:102520008091B5049091B604C817D90780F4AC0F18
:10253000BD1F8C910E944D15A091B804B091B904B3
:10254000FD01EC0FFD1F80811827109741F7812FA7
:102550000E944D150E943B148091F60E8860809376
:10256000F60EE6E0CDB7DEB70C94911C0F931F93E7
:10257000182F0E940A14882309F05FC08091F60E7C
:1025800081FD04C08091F60E83FF9AC0F8940E94EA
:10259000941478948436910508F44CC01092E10AA2
:1025A0008091F60E84608093F60E8091F60E81FD88
:1025B0005BC015E00E943B148091F60E877F8093EC
:1025C000F60E9091F60E9695969592708091F60E75
:1025D0008D7F892B8093F60E812F90E0C2C08130D1
:1025E00009F47CC0823008F46EC00E943B148091D4
:1025F000E10A8F5F8093E10A8091F40E9091F50ECD
:10260000FC01EE51F54F008301969093F50E8093F7
:10261000F40E202F30E08091B3049091B404822B0B
:10262000932B9093B4048093B3048091E00A8027A5
:102630008093E00A80E090E094C00E941014082F7C
:102640008091E10A853090F08530B1F0863009F450
:102650005EC090E01092E10A8091F60E8D7F80932B
:10266000F60E892F90E07DC014E0A4CF833008F4EB
:10267000B6CF8F5F8093E10A0E943B142091F40E45
:102680003091F50EF901EE51F54F00832F5F3F4F6A
:102690003093F50E2093F40E8091E00A802780930A
:1026A000E00A8091B3049091B4042817390710F21E
:1026B0008091E10A8F5F8093E10A80E090E051C051
:1026C0000E943B14B7CF0130D1F18091F60E83FF09
:1026D00002C0063061F186E090E043C00E943B14E6
:1026E0008091E10A8F5F8093E10A8091F40E9091CE
:1026F000F50EFC01EE51F54F008301969093F50E17
:102700008093F40E802F90E0982F88278ACF112392
:1027100061F08091E00A081729F085E10E944D15CB
:1027200093E098CF86E00E944D1591E093CF809181
:10273000F60E877F8093F60E82E090E012C0009341
:10274000E10A8FEF8093E00A1092F50E1092F40EDA
:102750008091F60E82608093F60E0E943B1480E01A
:1027600090E01F910F9108951F920F920FB60F9254
:1027700011248F939F938091BC049091BD04019686
:102780009093BD048093BC049F918F910F900FBED6
:102790000F901F9018951F920F920FB60F92112451
:1027A0002F938F939F93EF93FF9380911B0F9091A3
:1027B0001C0F8097F0F480919F0F9091A00F2CB187
:1027C000FC01E750F14F208301969093A00F809376
:1027D0009F0F80919F0F9091A00F809760F4809140
:1027E0001B0F90911C0F019690931C0F80931B0F51
:1027F00007C08CB105C01092A00F10929F0FEFCFB1
:10280000FF91EF919F918F912F910F900FBE0F909D
:102810001F90189580911B0F90911C0F90E00895C8
:102820008091F70E9091F80EFC01E750F14FE08196
:1028300001969093F80E8093F70E80911B0F909164
:102840001C0F892B59F0F89480911B0F90911C0F4D
:10285000019790931C0F80931B0F78948091F70E33
:102860009091F80E809720F01092F80E1092F70ECB
:102870008E2F90E00895F8941092BD041092BC043D
:10288000789408951F920F920FB60F9211242F93F0
:102890003F934F935F936F937F938F939F93AF93E8
:1028A000BF93EF93FF9380911D0F90911E0F892B83
:1028B00019F18091A10F9091A20FFC01E15EF04F00
:1028C00020812CB901969093A20F8093A10F809143
:1028D0001D0F90911E0F019790931E0F80931D0F57
:1028E0008091A10F9091A20F8038910550F0109225
:1028F000A20F1092A10F05C08091F60E8E7F8093DB
:10290000F60E0E943B14FF91EF91BF91AF919F9102
:102910008F917F916F915F914F913F912F910F9088
:102920000FBE0F901F9018958091BC049091BD042C
:102930000895282F80E092E10E94181C6150704099
:10294000222379F0109298006093990080919A0068
:10295000886180939A0080919D00866080939D009D
:1029600008951092900069B98AB188618AB98091FE
:1029700095008660809395000895F89480E094E235
:102980009BBD8ABD1DBC1CBC8AE08EBD87B7806123
:1029900087BF1092BD041092BC0460E874E080E030
:1029A0000E9499148AB1806C8AB98BB18F738BB9EC
:1029B00010921E0F10921D0F80911D0F90911E0FEF
:1029C00090931C0F80931B0F80911B0F90911C0FF5
:1029D0009093A20F8093A10F8091A10F9091A20FCD
:1029E00090931A0F8093190F8091190F90911A0FDD
:1029F0009093F80E8093F70E8091F70E9091F80E59
:102A00009093A00F80939F0F1092F60E78940895E4
:102A1000FC01808190E002C0959587956A95E2F768
:102A2000817090700895FC01DB01808190E0042E9C
:102A300002C0959587950A94E2F780FFF6CF8C91B6
:102A400090E00895FC01808190E002C09595879503
:102A50006A95E2F78095817090E008950F931F9337
:102A6000182FFB01DA01422F202F808190E0022EE7
:102A700002C0959587950A94E2F780FFF6CF2081F2
:102A800081E090E002C0880F991F4A95E2F7282B59
:102A900020831C931F910F9108950F93382F8091DD
:102AA0001D0F90911E0F80389105C8F78091F60E8A
:102AB00080FF24C08091190F90911A0FFC01E15EF4
:102AC000F04F3083019690931A0F8093190FF8946A
:102AD00080911D0F90911E0F019690931E0F809371
:102AE0001D0F78948091190F90911A0F80389105DD
:102AF000A0F010921A0F1092190F0FC005E026E0F7
:102B00004CE250E06BE270E0832F0E942E15809122
:102B1000F60E81608093F60EE5CF0F9108958091B7
:102B2000BE04882319F480E090E00895E091A30F9B
:102B3000F091A40F099590E00895A3E0B0E0E3EAD6
:102B4000F5E10C94791C69837A838B838091BE04B0
:102B5000882319F480E090E009C0E091A50FF0917E
:102B6000A60F69817A818B81099590E0E2E0239636
:102B70000C94951CA3E0B0E0E0ECF5E10C94791C1A
:102B800069837A838B838091BE04882331F0E0913E
:102B9000A70FF091A80F8B810995E2E023960C9482
:102BA000951CA3E0B0E0E7EDF5E10C94791C698396
:102BB0007A838B838091BE04882331F0E091A90F42
:102BC000F091AA0F8B810995E2E023960C94951C55
:102BD000A3E0B0E0EEEEF5E10C94791C69837A8312
:102BE0008B838091BE04882331F0E091AB0FF0918C
:102BF000AC0F8B810995E2E023960C94951CA3E021
:102C0000B0E0E5E0F6E10C94791C69837A838B836C
:102C10008091BE04882331F0E091AD0FF091AE0FAA
:102C20008B810995E2E023960C94951C1F93CF931A
:102C3000DF93EC01162F1092BE040E9486189B01B0
:102C4000AC01611571058105910541F18EEA96E1AE
:102C50009093A40F8093A30F8DE598E19093A60F16
:102C60008093A50F8BE298E19093A80F8093A70F14
:102C700087EF97E19093AA0F8093A90F8CED97E1CE
:102C80009093AC0F8093AB0F8FEB97E19093AE0FC7
:102C90008093AD0F81E08093BE042DC0612FCE01E3
:102CA0000E9412199B01AC0187E399E19093A40F54
:102CB0008093A30F8AED9AE19093A60F8093A50FBE
:102CC0008CEA9AE19093A80F8093A70F8CE79AE182
:102CD0009093AA0F8093A90F81E69AE19093AC0F8D
:102CE0008093AB0F84E49AE19093AE0F8093AD0F85
:102CF00081E08093BE04CA01B901DF91CF911F9199
:102D00000895E091B00FF091B10F90818091AF0FD5
:102D100080958923808389E18A95F1F7089529E1D7
:102D2000822F8A95F1F7E091B00FF091B10F808179
:102D30009091AF0F892B80832A95F1F708951F9307
:102D40000E94811685E00E944C1B0E94241B182FB4
:102D50000E948F16812F90E01F9108958091BF04EB
:102D6000882319F480E090E008950E949F1680FD6A
:102D700005C01092BF0480E090E0089581E090E0EB
:102D80000895A3E0B0E0E7ECF6E10C94711C6983D0
:102D90007A838B836A017901A02EB82E072F162F14
:102DA0000E94AE168823E1F781E08093BF040E9461
:102DB000811686E00E944C1B0E948F160E9481168D
:102DC0008AE00E944C1B812F0E944C1B802F0E9486
:102DD0004C1B8B2D0E944C1B0894E108F108FFEF5F
:102DE000EF16FFEFFF06A9F0C114D10471F0F60150
:102DF00081916F010E944C1B0894E108F108FFEFDC
:102E0000EF16FFEFFF0681F704C08A2D0E944C1BCE
:102E1000E3CF0E948F16EAE023960C948D1CA7E066
:102E2000B0E0E5E1F7E10C94691C69837A838B8358
:102E30005D834C833F832E83102F862F90E0A0E08C
:102E4000B0E04C0177246624872F90E0A0E0B0E04A
:102E5000BA2FA92F982F8827680E791E8A1E9B1ECD
:102E60008B81680E711C811C911CD401C301907070
:102E7000A070B0700097A105B10509F043C06E8144
:102E80007F81672B99F577C0212C31E0332E412CBF
:102E9000512CA12C21E0B22E6B82FF24E92CD82CDE
:102EA000C72CCA82B401882799276983012F95010D
:102EB0004C815D817C2D862D0E94C1168E819F8163
:102EC0008A199B099F838E836C817D8161157105B1
:102ED00021F0620D731D7D836C838E819F81892B10
:102EE00009F449C0620C731C841C951C8E819F815F
:102EF0008150914048F66E817F811B014424552406
:102F00005B01CACF212C61E0362E412C512C40E0D0
:102F100050E0281A390A4A0A5B0A2215330544058B
:102F2000550530F16B82FF24E92CD82CC72CCA82BE
:102F3000B401882799276983012F91014C815D8114
:102F40007C2D862D0E94C1166E817F8162197309C6
:102F50007F836E83620C731C841C951C8C819D8105
:102F6000009709F48CCF820D931D9D838C8387CFAE
:102F700019012A01D7CFE2E127960C94851C0F9303
:102F8000CF93DF93CDB7DEB723970FB6F894DEBFAC
:102F90000FBECDBF69837A838B83042F40E050E05E
:102FA0000E940F1723960FB6F894DEBF0FBECDBF59
:102FB000DF91CF910F9108950F93CF93DF93CDB70A
:102FC000DEB723970FB6F894DEBF0FBECDBF69837F
:102FD0007A838B8300E00E940F1723960FB6F89434
:102FE000DEBF0FBECDBFDF91CF910F910895A3E05B
:102FF000B0E0EDEFF7E10C94721C69837A838B8368
:103000006A017901B82E072F162F0E94AE16882369
:10301000E1F70E94811683E00E944C1B812F0E94E1
:103020004C1B802F0E944C1B8B2D0E944C1BE114CB
:10303000F10459F08601EC0CFD1C0E94241BF801E0
:1030400081938F01EE15FF05C1F70E948F16E9E00D
:1030500023960C948E1CA3E0B0E0E1E3F8E10C941D
:10306000751C69837A838B83E42EF82E072F162F25
:103070000E94AE168823E1F781E08093BF040E948E
:10308000811686E00E944C1B0E948F160E948116BA
:103090008AE00E944C1B812F0E944C1B802F0E94B3
:1030A0004C1B8F2D0E944C1B8E2D0E944C1B0E948E
:1030B0008F16E6E023960C94911CA3E0B0E0E3E6C3
:1030C000F8E10C94761C69837A838B83F82E072FA2
:1030D000162F0E94AE168823E1F70E94811683E026
:1030E0000E944C1B812F0E944C1B802F0E944C1B66
:1030F0008F2D0E944C1B0E94241B182F0E948F169C
:10310000812F90E0E5E023960C94921CEF92FF92C1
:103110000F931F939093B10F8093B00F6093AF0FF5
:1031200000E120E242E060E370E082E390E00E9490
:10313000131B20E08BE7982F9A95F1F78A95F1F70A
:103140002F5F2F3FB9F70E9481168FE90E944C1B19
:103150000E94241B803221F0EE24FF2487013BC013
:103160000E94241B8038C1F70E94241B082F0E9454
:10317000241B8F3F89F3182F11501F3F21F00E940D
:10318000241B1150E0F7023161F0033199F0013155
:10319000D1F0E12CB0E8FB2EB0E20B2FB2E01B2FF8
:1031A0001AC0F0E2EF2EF0E8FF2EF0E20F2FF2E06F
:1031B0001F2F11C010E4E12E10E8F12E10E2012FB4
:1031C00012E0112F08C0A0E1EA2EA0E8FA2EA0E23A
:1031D0000A2FA2E01A2F0E948F16C801B7011F9173
:1031E0000F91FF90EF900895E091B30FF091B40F1D
:1031F00090818091B20F80958923808389E18A959F
:10320000F1F7089529E1822F8A95F1F7E091B30F44
:10321000F091B40F80819091B20F892B80832A9511
:10322000F1F708950F939093B40F8093B30F6093C9
:10323000B20F00E120E242E060E370E082E390E060
:103240000E94131B60E070E080E091E00F91089510
:103250001F930E94F41885E00E944C1B0E94241BBF
:10326000182F0E940219812F90E01F9108958091DC
:10327000C004882319F480E090E008950E94281982
:1032800080FD05C01092C00480E090E0089581E0C8
:1032900090E00895A3E0B0E0E0E5F9E10C94721C41
:1032A00069837A838B836A017901B02E082F172FE7
:1032B0000E9437198823E1F781E08093C0040E94BF
:1032C000F41886E00E944C1B0E9402190E94F41818
:1032D00082E00E944C1B812F0E944C1B802F0E9479
:1032E0004C1B0894E108F108FFEFEF16FFEFFF0613
:1032F000A9F0C114D10471F0F60181916F010E940F
:103300004C1B0894E108F108FFEFEF16FFEFFF06F2
:1033100081F704C08B2D0E944C1BE3CF0E94021941
:10332000E9E023960C948E1CA7E0B0E0EAE9F9E10D
:103330000C94691C69837A838B835D834C833F8300
:103340002E83102F862F90E0A0E0B0E04C01772470
:103350006624872F90E0A0E0B0E0BA2FA92F982F25
:103360008827680E791E8A1E9B1E8B81680E711C31
:10337000811C911CD401C3018F719070A070B0703A
:103380000097A105B10509F042C06E817F81672BCE
:1033900099F576C030E2232E312C412C512C20E2BD
:1033A000A22EB12C6B82FF24E92CD82CC72CCA8208
:1033B000B401882799276983012F95014C815D818C
:1033C0007C2D862D0E944A198E819F818A199B0926
:1033D0009F838E836C817D816115710521F0620D63
:1033E000731D7D836C838E819F81892B09F448C076
:1033F000620C731C841C951C8E819F81819750F6F2
:103400006E817F811B01442455245B01CBCF60E298
:10341000262E312C412C512C40E050E0281A390A3C
:103420004A0A5B0A221533054405550530F16B82C3
:10343000FF24E92CD82CC72CCA82B40188279927ED
:103440006983012F91014C815D817C2D862D0E9425
:103450004A196E817F81621973097F836E83620CC2
:10346000731C841C951C8C819D81009709F48DCF61
:10347000820D931D9D838C8388CF19012A01D7CF9C
:10348000E2E127960C94851C0F93CF93DF93CDB781
:10349000DEB723970FB6F894DEBF0FBECDBF6983AA
:1034A0007A838B83042F40E050E00E949419239686
:1034B0000FB6F894DEBF0FBECDBFDF91CF910F9155
:1034C00008950F93CF93DF93CDB7DEB723970FB651
:1034D000F894DEBF0FBECDBF69837A838B8300E093
:1034E0000E94941923960FB6F894DEBF0FBECDBF8D
:1034F000DF91CF910F910895A3E0B0E0E2E8FAE107
:103500000C94731C69837A838B836A017901082F79
:10351000172F0E9437198823E1F70E94F41883E0DF
:103520000E944C1B812F0E944C1B802F0E944C1B21
:10353000E114F10459F08601EC0CFD1C0E94241BDF
:10354000F80181938F01EE15FF05C1F70E94021962
:10355000E8E023960C948F1CA3E0B0E0E2EBFAE1E4
:103560000C94761C69837A838B83F42E082F172F93
:103570000E9437198823E1F781E08093C0040E94FC
:10358000F41886E00E944C1B0E9402190E94F41855
:1035900082E00E944C1B812F0E944C1B802F0E94B6
:1035A0004C1B8F2D0E944C1B0E940219E5E02396B4
:1035B0000C94921CA3E0B0E0E0EEFAE10C94771CCE
:1035C00069837A838B83082F172F0E9437198823EA
:1035D000E1F70E94F41883E00E944C1B812F0E94A7
:1035E0004C1B802F0E944C1B0E94241B182F0E94F2
:1035F0000219812F90E0E4E023960C94931CE09153
:10360000C204F091C30480819091C804892B808307
:103610000000E091C204F091C3048081909598234A
:103620009083000008950F939093C3048093C20485
:103630007093C5046093C4044093C6042093C704E8
:103640000093C8040F910895FF920F931F93F09079
:10365000C70400E010E007C0092F01600E94FF1AB4
:103660001F5F183081F0902F990FE091C404F09102
:10367000C50480818F2181F7092F0E7F0E94FF1AD8
:103680001F5F183081F789E18A95F1F7802F90E06C
:103690001F910F91FF900895682F70E0A091C604CC
:1036A000BA2FB0955091C804452F409520E030E0E6
:1036B0001CC0E091C204F091C30480818A2B8083F6
:1036C000E091C204F091C3048081842380830000D0
:1036D000E091C204F091C3048081852B80830000B7
:1036E0002F5F3F4F28303105A1F080E890E0022E97
:1036F00002C0959587950A94E2F786239723892B34
:10370000C1F6E091C204F091C30480818B238083D1
:10371000D7CFE091C204F091C30480814823408355
:1037200089E18A95F1F70895A0E0B0E0EAE9FBE1CC
:103730000C94711C082F10E0B090C604AB2CA09420
:10374000E090C704D090C804CD2CC094FF24C0E002
:10375000D0E02FC0E091C204F091C30480818B2996
:1037600080839F2D990FE091C404F091C50480815E
:103770008E21A1F1FF24F394F92A8091C1048823BA
:10378000A1F1E091C204F091C30480818D2980836E
:103790009BE7892F8A95F1F7E091C204F091C30469
:1037A00080818C2180839A95F1F72196C830D105CC
:1037B00011F180E890E00C2E02C0959587950A944F
:1037C000E2F780239123892B09F0C4CFE091C20452
:1037D000F091C30480818A218083C3CF8EEFF82EBD
:1037E000F9228091C104882361F60E94FF1A219674
:1037F000C830D105F1F68091C104882341F090E0F2
:103800008BE78A95F1F79F5F9032D1F703C089E18A
:103810008A95F1F78F2D90E0EAE0CDB7DEB70C94F2
:103820008D1CFC0160936800C895802D90E0089580
:10383000AA1BBB1B51E107C0AA1FBB1FA617B707D6
:1038400010F0A61BB70B881F991F5A95A9F78095F2
:103850009095BC01CD010895A1E21A2EAA1BBB1BB5
:10386000FD010DC0AA1FBB1FEE1FFF1FA217B3074C
:10387000E407F50720F0A21BB30BE40BF50B661F62
:10388000771F881F991F1A9469F760957095809526
:1038900090959B01AC01BD01CF01089597FB092EC6
:1038A00005260ED057FD04D0D7DF0AD0001C38F40F
:1038B00050954095309521953F4F4F4F5F4F08955C
:1038C000F6F790958095709561957F4F8F4F9F4F3C
:1038D00008952F923F924F925F926F927F928F92B4
:1038E0009F92AF92BF92CF92DF92EF92FF920F938F
:1038F0001F93CF93DF93CDB7DEB7CA1BDB0B0FB699
:10390000F894DEBF0FBECDBF09942A883988488855
:103910005F846E847D848C849B84AA84B984C884EB
:10392000DF80EE80FD800C811B81AA81B981CE0FE2
:10393000D11D0FB6F894DEBF0FBECDBFED010895C7
:10394000EE0FFF1F0590F491E02D0994FFCF0202C6
:10395000D775FF0243E40453E4F975FF0253E6BF51
:103960001202CA1202AC7F001201328F08E508125F
:103970000363003D0700F92E011339008A4D00ADA5
:103980005600DF9A005EB5000000187F7012013209
:103990008F097F001201328F0AAF0A12018A8F0B42
:1039A000AF0B120132E50A04F51480BAAF14051406
:1039B00012018A8F09AF14051412018A8F0AAF14FD
:1039C000051412018A8F0BAF09120132AF0A1201DE
:1039D00032AF0B120132808E7FD81201328F097FF5
:1039E000001201328F0AAF0A1201328F0BAD0BAFFA
:1039F0000A1201CFE50A04F51401187F671201329B
:103A00008F09AF091201328F0AAF0A1201328F0BF0
:103A1000AF140514AD091201CFAF140514AD0A128D
:103A200001CFAF140514AD0B1201CF01187FA812FE
:103A300001328F097F001201328F0A7F001201329A
:103A40008F0B12020E01187FE61201328F097F00E0
:103A50001201328F0A7F001201328F0B12024A01CB
:103A6000187F921201328F097F001201328F0A7F74
:103A7000001201328F0BAF0B1202800118011822C5
:103A80008F0C750D00750E08E5A030E4047F0180F1
:103A9000027F00EF70F2E50C30E70543A0088003D9
:103AA00053A0F7E50C25E0F50CE5A020E4047F0128
:103AB00080027F00EF70F2E50D25E0F50DE5A03006
:103AC000E2047F0180027F00EF6003430D01150EC9
:103AD000AF0EEF70B3AF0D228F1375FF01E5C42059
:103AE000E7047F0180027F00EF602F75FF018513DF
:103AF000C575FF0153C4FC75FF0153C4FB75FF017D
:103B000043C48075FF01E5C430E7047F0180027F74
:103B100000EF70EF75FF01AFC6227F56228F0F8D29
:103B20001075FF01E5C420E7047F0180027F00EFEC
:103B3000602975FF01850FC575FF018510C675FFEA
:103B40000153C4FC75FF0143C48475FF01E5C43013
:103B5000E7047F0180027F00EF70EF2275FF01E52F
:103B6000C420E7047F0180027F00EF602A75FF0117
:103B7000E5C454FCFFEF4402F5C475FF0153C4FBD8
:103B800075FF0143C48075FF01E5C430E7047F0180
:103B900080027F00EF70EF2275FF01E5C420E7048B
:103BA0007F0180027F00EF602475FF01E5C454FCB3
:103BB000FFEF4402F5C475FF0143C48475FF01E5BE
:103BC000C430E7047F0180027F00EF70EF228F1185
:103BD00075FF01E5C420E7047F0180027F00EF60EC
:103BE00018751200E512C39440500BAD11AF1212BC
:103BF00001CF051280EE12024A2275FF0153C4DF85
:103C000075FF0143C40875FF01E5C430E7047F0177
:103C100080027F00EF70EF2275FF0153CAF775FF36
:103C20000143CA1422787FE4F6D8FD75811402039B
:103C30001E020003E493A3F8E493A34003F680017B
:103C4000F208DFF48029E493A3F85407240CC8C3D6
:103C500033C4540F4420C8834004F456800146F610
:103C6000DFE4800B0102040810204080900389E407
:103C70007E019360BCA3FF543F30E509541FFEE46E
:103C800093A360010ECF54C025E060A840B8E49330
:103C9000A3FAE493A3F8E493A3C8C582C8CAC58372
:103CA000CAF0A3C8C582C8CAC583CADFE9DEE780F7
:103CB000BED083D082F8E4937012740193700DA388
:103CC000A393F8740193F5828883E4737402936874
:103CD00060EFA3A3A380DF01140000000000000038
:0C3CE0000000008D0300008D03000001B7
:020000021000EC
:10F000000C945BF80C947AF80C947AF80C947AF8D7
:10F010000C947AF80C947AF80C947AF80C947AF8A8
:10F020000C947AF80C947AF80C947AF80C947AF898
:10F030000C9497FC0C947AF80C947AF80C947AF867
:10F040000C947AF80C947AF80C94AEFC0C947AF840
:10F050000C9425FD0C947AF80C947AF80C947AF8B8
:10F060000C947AF80C947AF80C947AF80C947AF858
:10F070000C947AF80C947AF80C947AF80C947AF848
:10F080000C947AF80C947AF80C947AF85A57415602
:10F09000455F50524F4752414D4D45525F56455284
:10F0A00053494F4E5F5656495F34353233403737F8
:10F0B00034303D01200011241FBECFEFD0E1DEBF70
:10F0C000CDBF11E0A0E0B1E0EAE8FDEF01E00BBF49
:10F0D00002C007900D92A030B107D9F719E0A0E067
:10F0E000B1E001C01D92AB3EB107E1F70E94CEF93D
:10F0F0000C94C4FE0C9400F8A0E0B0E0E2E8F8EF55
:10F100000C9493FE982E5B01A9018FB6F894209180
:10F1100011012095809113019091120189279091FE
:10F1200014018927909115018927821709F065C07C
:10F13000E199FECF4A9DC0014B9D900D5A9D900DC7
:10F1400011247C0100E010E0F1E3CF2EF5E0DF2E8A
:10F15000B801A701D501E6018881298191E030E05D
:10F16000322F2227280F311D0901FA0160935B001D
:10F1700090936800E89511244E5F5F4F6F4F7F4F6B
:10F1800012972296109741F785E0F70100935B00F4
:10F1900080936800E8958091680080FDFCCF81E154
:10F1A00080936800E895992019F1B50108C082E0C4
:10F1B00090E0A0E0B0E0E80EF91E0A1F1B1FD60188
:10F1C0008C91F60121810BBFF7014791569130E0F8
:10F1D000322F2227280F311D2417350789F462505A
:10F1E000704082E090E0C80ED91E61157105F9F6F5
:10F1F00081E390E08FBE789406C080E390E003C086
:10F2000080E390E0F7CFECE0CDB7DEB70C94AFFE33
:10F21000982F9A01452B11F465E071E0809102016D
:10F220008F5F80930201FB01E20FF31F80832F5F4A
:10F230003F4FAB0160E0892F0E9420FB81E080936B
:10F2400000010895982F9A01452B11F465E071E0B3
:10F25000FB01E20FF31F8091010180832F5F3F4F7D
:10F26000AB0161E0892F0E9420FB81E080930001C7
:10F270000895CF93DF939C01CA01829FA001839FD1
:10F28000500D929F500D1124E199FECF60E070E087
:10F29000A6E1B1E0C0E0D0E06BBFFA0187919691A2
:10F2A0008C93892F9927FD01818322964E5F5F4FB2
:10F2B0006F4F7F4F2250304012962115310561F774
:10F2C000AE0166E171E080912D050E9422F9DF9187
:10F2D000CF910895DF92EF92FF920F931F93D090FA
:10F2E00011019D2D9095B0911201A0911301709183
:10F2F0001401609115018A2F8B278727862789178C
:10F3000029F080EF80931601A99830C09FB7F89438
:10F31000EE24FF24870120E030E040E050E083E06D
:10F32000F90140935B0080936800E8958091680044
:10F3300080FDFCCF20E031E040E050E0E20EF31E23
:10F34000041F151FA801970180E0E81680EEF8065B
:10F3500081E0080780E0180711F781E180936800D9
:10F36000E8958DE0809316019FBF7894D0921701A5
:10F37000B0931801A093190170931A0160931B01B7
:10F3800046E050E066E171E080912D050E9422F98F
:10F390001F910F91FF90EF90DF9008951F93CF93EF
:10F3A000DF93F89488E10FB6F89481BD11BC0FBECD
:10F3B000789481E085BF82E085BFBC9A97988F9A48
:10F3C00084B7806884BF84BF80916200806180932D
:10F3D0006200809161008061809361008C989498B4
:10F3E000899891988D989598BD98C59A14981C9A6B
:10F3F000BC98C49AA09AA19AA29AA39AB99AC19ABF
:10F40000A89AA99AAA9AAB9AD098D898D198D9983C
:10F41000D298DA98D398DB98D498DC98D598DD9870
:10F420000E9417FB1092000110920101109202013C
:10F43000AB98C6E1D1E081E00E9499FB8130D1F127
:10F44000882329F480910301843209F4D6C02091E5
:10F4500000012130A1F1213070F32230D1F7E09189
:10F460002A05F0E0FE2FEE2780912B0590E0E82B97
:10F47000F92BE75DFA4FE08180910101E81799F0DF
:10F48000E0930101C19A10912D05143209F45CC07A
:10F490001532F8F4183109F486C0193109F471C035
:10F4A000163109F469C01092000181E00E9499FBB5
:10F4B000813031F622E020930001213061F680E0B6
:10F4C0000E9499FB882319F2109204011092000106
:10F4D000B2CF1732C9F0133581F0153221F780EF22
:10F4E000809316012093170142E050E0BE0185E2AF
:10F4F0000E9422F920910001ACCF80912E05882333
:10F5000009F06EC0A998CFCF80912E05809311018C
:10F5100080912F0580931201809130058093130113
:10F5200080913105809314018091320580931501FB
:10F530008DE08093160141E050E0BE0187E20E9419
:10F5400022F92091000185CF109211011092120131
:10F550001092130110921401109215018DE0809306
:10F56000170141E050E0BE0184E20E9422F91093AD
:10F570000301209100016DCF0E946AF920910001E2
:10F5800068CF40912E0550E0542F442780912F05DD
:10F5900090E0482B592B66E480E091E00E9439F915
:10F5A0002091000156CF20912E0530E0322F2227E6
:10F5B00080912F0590E0282B392B46E460E071E024
:10F5C000809130050E947CF88093160141E050E064
:10F5D000BE0180912D050E9422F92091000139CFB2
:10F5E000823029F0813009F05ECFAB985CCF8091FA
:10F5F0002F058823B1F0AA9856CF8C9894988998B3
:10F6000091988D98959ABD98C59A14981C9A88E1FE
:10F6100090E028E00FB6F894A89581BD0FBE21BDFB
:10F62000FFCFAA9A40CF0E94EDFC90E0089510927F
:10F630003D0910923C09109229050E94A0FD0895F1
:10F64000EF92FF920F931F93CF93DF9341155105D4
:10F6500061F050930C0140930B013093090120930A
:10F66000080180930E0160930D0181E00E9430FE3D
:10F6700080910801909109010496892F99270E9491
:10F6800030FE809108018C5F0E9430FE00910801DD
:10F69000109109010C5F1F4FE12EFF240450104010
:10F6A000E0940C5F00930A0180910D010E9430FEEE
:10F6B00010910D0180910E010E9430FE80910E018B
:10F6C000182710271E25A0910B01B0910C0110974F
:10F6D00009F18091080190910901892BD9F0C0E0CE
:10F6E000D0E008C021968091080190910901C817C7
:10F6F000D90780F4AC0FBD1F8C910E9430FEA09101
:10F700000B01B0910C01FD01EC0FFD1F808118274A
:10F71000109741F7812F0E9430FE0E941EFD8091BC
:10F720003E09886080933E09E6E0CDB7DEB70C94D1
:10F73000B5FE0F931F93182F0E94EDFC882309F04C
:10F740005FC080913E0981FD04C080913E0983FF26
:10F750009AC0F8940E9477FD78948436910508F455
:10F760004CC01092290580913E09846080933E0927
:10F7700080913E0981FD5BC015E00E941EFD8091D5
:10F780003E09877F80933E0990913E099695969514
:10F79000927080913E098D7F892B80933E09812F45
:10F7A00090E0C2C0813009F47CC0823008F46EC0A1
:10F7B0000E941EFD809129058F5F8093290580910D
:10F7C0003C0990913D09FC01E65DFA4F00830196EA
:10F7D00090933D0980933C09202F30E080910601F1
:10F7E00090910701822B932B909307018093060140
:10F7F0008091280580278093280580E090E094C0C0
:10F800000E94F3FC082F80912905853090F0853007
:10F81000B1F0863009F45EC090E010922905809125
:10F820003E098D7F80933E09892F90E07DC014E0D2
:10F83000A4CF833008F4B6CF8F5F809329050E9450
:10F840001EFD20913C0930913D09F901E65DFA4F1A
:10F8500000832F5F3F4F30933D0920933C098091F7
:10F860002805802780932805809106019091070143
:10F870002817390710F2809129058F5F8093290599
:10F8800080E090E051C00E941EFDB7CF0130D1F161
:10F8900080913E0983FF02C0063061F186E090E06E
:10F8A00043C00E941EFD809129058F5F809329052A
:10F8B00080913C0990913D09FC01E65DFA4F00837F
:10F8C000019690933D0980933C09802F90E0982FFA
:10F8D00088278ACF112361F080912805081729F025
:10F8E00085E10E9430FE93E098CF86E00E9430FED2
:10F8F00091E093CF80913E09877F80933E0982E01B
:10F9000090E012C0009329058FEF80932805109294
:10F910003D0910923C0980913E09826080933E0926
:10F920000E941EFD80E090E01F910F9108951F92AC
:10F930000F920FB60F9211248F939F9380910F0116
:10F940009091100101969093100180930F019F9167
:10F950008F910F900FBE0F901F9018951F920F92CE
:10F960000FB60F9211242F938F939F93EF93FF93D2
:10F9700080916309909164098097F0F48091E70980
:10F980009091E8092CB1FC01EF5BF64F20830196C2
:10F990009093E8098093E7098091E7099091E8093D
:10F9A000809760F480916309909164090196909327
:10F9B00064098093630907C08CB105C01092E809FF
:10F9C0001092E709EFCFFF91EF919F918F912F91C7
:10F9D0000F900FBE0F901F90189580916309909122
:10F9E000640990E0089580913F0990914009FC01DD
:10F9F000EF5BF64FE08101969093400980933F09B9
:10FA00008091630990916409892B59F0F894809151
:10FA10006309909164090197909364098093630945
:10FA2000789480913F0990914009809720F010923E
:10FA3000400910923F098E2F90E00895F89410929B
:10FA4000100110920F01789408951F920F920FB633
:10FA50000F9211242F933F934F935F936F937F9354
:10FA60008F939F93AF93BF93EF93FF93809165091B
:10FA700090916609892B19F18091E9099091EA0921
:10FA8000FC01E959F64F20812CB901969093EA09BF
:10FA90008093E90980916509909166090197909397
:10FAA0006609809365098091E9099091EA09803897
:10FAB000910550F01092EA091092E90905C0809171
:10FAC0003E098E7F80933E090E941EFDFF91EF91BB
:10FAD000BF91AF919F918F917F916F915F914F9166
:10FAE0003F912F910F900FBE0F901F90189580910E
:10FAF0000F01909110010895282F80E092E10E945B
:10FB000079FE61507040222379F010929800609342
:10FB1000990080919A00886180939A0080919D005D
:10FB2000866080939D0008951092900069B98AB113
:10FB300088618AB9809195008660809395000895C8
:10FB4000F89480E094E29BBD8ABD1DBC1CBC8AE099
:10FB50008EBD87B7806187BF1092100110920F0190
:10FB600060E874E080E00E947CFD8AB1806C8AB914
:10FB70008BB18F738BB910926609109265098091D1
:10FB80006509909166099093640980936309809157
:10FB90006309909164099093EA098093E90980913F
:10FBA000E9099091EA099093620980936109809133
:10FBB0006109909162099093400980933F09809177
:10FBC0003F09909140099093E8098093E7091092CA
:10FBD0003E0978940895FC01808190E002C09595DB
:10FBE00087956A95E2F7817090700895FC01DB01BA
:10FBF000808190E0042E02C0959587950A94E2F7E3
:10FC000080FFF6CF8C9190E00895FC01808190E018
:10FC100002C0959587956A95E2F78095817090E08E
:10FC200008950F931F93182FFB01DA01422F202F05
:10FC3000808190E0022E02C0959587950A94E2F7A4
:10FC400080FFF6CF208181E090E002C0880F991FED
:10FC50004A95E2F7282B20831C931F910F9108955A
:10FC60000F93382F8091650990916609803891052E
:10FC7000C8F780913E0980FF24C08091610990916E
:10FC80006209FC01E959F64F3083019690936209AD
:10FC900080936109F89480916509909166090196B5
:10FCA0009093660980936509789480916109909199
:10FCB000620980389105A0F01092620910926109E2
:10FCC0000FC005E026E04CE250E06BE270E0832FCD
:10FCD0000E9411FE80913E09816080933E09E5CF2C
:10FCE0000F910895FC0160936800C895802D90E005
:10FCF0000895AA1BBB1B51E107C0AA1FBB1FA61773
:10FD0000B70710F0A61BB70B881F991F5A95A9F7C4
:10FD100080959095BC01CD0108952F923F924F920E
:10FD20005F926F927F928F929F92AF92BF92CF928B
:10FD3000DF92EF92FF920F931F93CF93DF93CDB794
:10FD4000DEB7CA1BDB0B0FB6F894DEBF0FBECDBF0C
:10FD500009942A88398848885F846E847D848C84DD
:10FD60009B84AA84B984C884DF80EE80FD800C81E6
:10FD70001B81AA81B981CE0FD11D0FB6F894DEBFC9
:0AFD80000FBECDBFED010895FFCFC7
:00000001FF
