:100000000202D775FF0243E40453E4F975FF02537B
:10001000E6BF1202CA1202AC7F001201328F08E55D
:1000200008120363003D0700F92E011339008A4DC1
:1000300000AD5600DF9A005EB5000000187F701218
:1000400001328F097F001201328F0AAF0A12018A32
:100050008F0BAF0B120132E50A04F51480BAAF140E
:10006000051412018A8F09AF14051412018A8F0A30
:10007000AF14051412018A8F0BAF09120132AF0AB7
:10008000120132AF0B120132808E7FD81201328FF3
:10009000097F001201328F0AAF0A1201328F0BADB5
:1000A0000BAF0A1201CFE50A04F51401187F67129D
:1000B00001328F09AF091201328F0AAF0A120132E1
:1000C0008F0BAF140514AD091201CFAF140514AD99
:1000D0000A1201CFAF140514AD0B1201CF01187F26
:1000E000A81201328F097F001201328F0A7F00129D
:1000F00001328F0B12020E01187FE61201328F09B6
:100100007F001201328F0A7F001201328F0B120220
:100110004A01187F921201328F097F001201328F3B
:100120000A7F001201328F0BAF0B120280011801FF
:1001300018228F0C750D00750E08E5A030E4047FC1
:100140000180027F00EF70F2E50C30E70543A00864
:10015000800353A0F7E50C25E0F50CE5A020E404AE
:100160007F0180027F00EF70F2E50D25E0F50DE5DF
:10017000A030E2047F0180027F00EF6003430D01A5
:10018000150EAF0EEF70B3AF0D228F1375FF01E5A3
:10019000C420E7047F0180027F00EF602F75FF011C
:1001A0008513C575FF0153C4FC75FF0153C4FB756E
:1001B000FF0143C48075FF01E5C430E7047F01807F
:1001C000027F00EF70EF75FF01AFC6227F56228FCE
:1001D0000F8D1075FF01E5C420E7047F0180027FC9
:1001E00000EF602975FF01850FC575FF018510C6F9
:1001F00075FF0153C4FC75FF0143C48475FF01E51D
:10020000C430E7047F0180027F00EF70EF2275FFAA
:1002100001E5C420E7047F0180027F00EF602A75BA
:10022000FF01E5C454FCFFEF4402F5C475FF015320
:10023000C4FB75FF0143C48075FF01E5C430E704CA
:100240007F0180027F00EF70EF2275FF01E5C4207F
:10025000E7047F0180027F00EF602475FF01E5C4A1
:1002600054FCFFEF4402F5C475FF0143C48475FFDD
:1002700001E5C430E7047F0180027F00EF70EF22C8
:100280008F1175FF01E5C420E7047F0180027F0024
:10029000EF6018751200E512C39440500BAD11AF1A
:1002A000121201CF051280EE12024A2275FF01538D
:1002B000C4DF75FF0143C40875FF01E5C430E704DE
:1002C0007F0180027F00EF70EF2275FF0153CAF7B4
:1002D00075FF0143CA1422787FE4F6D8FD758114B6
:1002E00002031E020003E493A3F8E493A34003F681
:1002F0008001F208DFF48029E493A3F85407240C6A
:10030000C8C333C4540F4420C8834004F45680014A
:1003100046F6DFE4800B01020408102040809003C1
:1003200089E47E019360BCA3FF543F30E509541F6C
:10033000FEE493A360010ECF54C025E060A840B84E
:10034000E493A3FAE493A3F8E493A3C8C582C8CACC
:10035000C583CAF0A3C8C582C8CAC583CADFE9DE9F
:10036000E780BED083D082F8E4937012740193705A
:100370000DA3A393F8740193F5828883E473740248
:0D038000936860EFA3A3A380DF01140000C9
:00000001FF
