:10000000020964822D1C16131110100223B1EF5443
:100010001F900015730000000000000000000000A9
:1000200000000000000000000000000000000000D0
:09003000000000000022020AACED
:10003B000223B453FA7FE4F5FF758E02F53AF53BD4
:10004B00753704E50C5401F40454B8FFE50CC313E5
:10005B006FF50CFF12000E7F147E001216F77FFF58
:10006B001221337F017E001216F7E4F5FF438E0851
:10007B00E5DF5403ADDEF538EDF539538EF7C3E507
:10008B000B9539F50BE50A9538F50A438E08E5DF34
:10009B005403ADDEF538EDF539538EF7C3E50B950B
:1000AB0039F50BE50A9538F50A438E08E5DF54035D
:1000BB00ADDEF538EDF539538EF7C3E50B9539F514
:1000CB000BE50A9538F50A438E08E5DF5403ADDEE0
:1000DB00F538EDF539538EF7C3E50B9539F50BE58F
:1000EB000A9538F50A438E08E5DF5403ADDEF53883
:1000FB00EDF539538EF7C3E50B9539F50BE50A95FD
:10010B0038F50A438E08E5DF5403ADDEF538EDF51F
:10011B0039538EF7C3E50B9539F50BE50A9538F591
:10012B000A438E08E5DF5403ADDEF538EDF53953A0
:10013B008EF7C3E50B9539F50BE50A9538F50A43B0
:10014B008E08E5DF5403ADDEF538EDF539538EF748
:10015B00C3E50B9539F50BE50A9538F50A438E087F
:10016B00E5DF5403ADDEF538EDF539538EF7C3E516
:10017B000B953BF50BE50A953AF50A438E08E5DF3F
:10018B005403ADDEF538EDF539538EF7C3E50B951A
:10019B003BF50BE50A953AF50A438E08E5DF540368
:1001AB00ADDEF538EDF539538EF7C3E50B953BF521
:1001BB000BE50A953AF50A438E08E5DF5403ADDEED
:1001CB00F538EDF539538EF7C3E50B953BF50BE59C
:1001DB000A953AF50A438E08E5DF5403ADDEF53890
:1001EB00EDF539538EF7C3E50B953BF50BE50A950A
:1001FB003AF50A438E08E5DF5403ADDEF538EDF52D
:10020B0039538EF7C3E50B953BF50BE50A953AF59C
:10021B000A438E08E5DF5403ADDEF538EDF53953AF
:10022B008EF7C3E50B953BF50BE50A953AF50A43BB
:10023B008E08E5DF5403ADDEF538EDF539538EF757
:10024B00C3E50B953BF50BE50A953AF50A438E088A
:10025B00E5DF5403ADDEF538EDF539538EF7E539AF
:10026B00250BF50BE538350AF50A438E08E5DF5407
:10027B0003ADDEF538EDF539538EF7E539250BF582
:10028B000BE538350AF50A438E08E5DF5403ADDE7E
:10029B00F538EDF539538EF7E539250BF50BE538C8
:1002AB00350AF50A438E08E5DF5403ADDEF538ED6C
:1002BB00F539538EF7E539250BF50BE538350AF58E
:1002CB000A438E08E5DF5403ADDEF538EDF53953FF
:1002DB008EF7E539250BF50BE538350AF50A438E14
:1002EB0008E5DF5403ADDEF538EDF539538EF7E550
:1002FB0039250BF50BE538350AF50A438E08E5DF92
:10030B005403ADDEF538EDF539538EF7E539250B92
:10031B00F50BE538350AF50A438E08E5DF5403ADD6
:10032B00DEF538EDF539538EF7E539250BF50BE591
:10033B0038350AF50AE50C5401F40454B8FFE50C02
:10034B00C3136FF50CFF12000E7F147E001216F70D
:10035B00E4FF1221337F017E001216F7E4F5FF4311
:10036B008E08E5DF5403ADDEF538EDF539538EF726
:10037B00E539250BF50BE538350AF50A438E08E50B
:10038B00DF5403ADDEF538EDF539538EF7E539253E
:10039B000BF50BE538350AF50A438E08E5DF5403F8
:1003AB00ADDEF538EDF539538EF7E539250BF50B49
:1003BB00E538350AF50A438E08E5DF5403ADDEF563
:1003CB0038EDF539538EF7E539250BF50BE5383557
:1003DB000AF50A438E08E5DF5403ADDEF538EDF57B
:1003EB0039538EF7E539250BF50BE538350AF50A48
:1003FB00438E08E5DF5403ADDEF538EDF539538E4A
:10040B00F7E539250BF50BE538350AF50A438E0868
:10041B00E5DF5403ADDEF538EDF539538EF7E539ED
:10042B00250BF50BE538350AF50A438E08E5DF5445
:10043B0003ADDEF538EDF539538EF7E539250BF5C0
:10044B000BE538350AF50A438E08E5DF5403ADDEBC
:10045B00F538EDF539538EF7C3E50B953BF50BE509
:10046B000A953AF50A438E08E5DF5403ADDEF538FD
:10047B00EDF539538EF7C3E50B953BF50BE50A9577
:10048B003AF50A438E08E5DF5403ADDEF538EDF59A
:10049B0039538EF7C3E50B953BF50BE50A953AF50A
:1004AB000A438E08E5DF5403ADDEF538EDF539531D
:1004BB008EF7C3E50B953BF50BE50A953AF50A4329
:1004CB008E08E5DF5403ADDEF538EDF539538EF7C5
:1004DB00C3E50B953BF50BE50A953AF50A438E08F8
:1004EB00E5DF5403ADDEF538EDF539538EF7C3E593
:1004FB000B953BF50BE50A953AF50A438E08E5DFBC
:10050B005403ADDEF538EDF539538EF7C3E50B9596
:10051B003BF50BE50A953AF50A438E08E5DF5403E4
:10052B00ADDEF538EDF539538EF7C3E50B953BF59D
:10053B000BE50A953AF50A438E08E5DF5403ADDE69
:10054B00F538EDF539538EF7C3E50B9539F50BE51A
:10055B000A9538F50A438E08E5DF5403ADDEF5380E
:10056B00EDF539538EF7C3E50B9539F50BE50A9588
:10057B0038F50A438E08E5DF5403ADDEF538EDF5AB
:10058B0039538EF7C3E50B9539F50BE50A9538F51D
:10059B000A438E08E5DF5403ADDEF538EDF539532C
:1005AB008EF7C3E50B9539F50BE50A9538F50A433C
:1005BB008E08E5DF5403ADDEF538EDF539538EF7D4
:1005CB00C3E50B9539F50BE50A9538F50A438E080B
:1005DB00E5DF5403ADDEF538EDF539538EF7C3E5A2
:1005EB000B9539F50BE50A9538F50A438E08E5DFCF
:1005FB005403ADDEF538EDF539538EF7C3E50B95A6
:10060B0039F50BE50A9538F50A438E08E5DF5403F7
:10061B00ADDEF538EDF539538EF7C3E50B9539F5AE
:10062B000BE50A9538F50A1537E537D394004003E7
:10063B0002004E0508E508B51308E51325E0F51390
:10064B00D322C322BB010689828A83E0225002E7B0
:10065B0022BBFE02E32289828A83E49322BB010B35
:10066B0089828A83F8E0C828F0E822500327C72242
:10067B00BBFE07F8E3C828F3E8228A838982E49358
:10068B0022BB010CE58229F582E5833AF583E02252
:10069B005006E92582F8E622BBFE06E92582F8E240
:1006AB0022E58229F582E5833AF583E49322BB01A7
:1006BB000689828A83F0225002F722BBFE01F322C5
:1006CB00F8BB010DE58229F582E5833AF583E8F065
:1006DB00225006E92582C8F622BBFE05E92582C811
:1006EB00F222BC000BBE0029EF8DF084FFADF0228F
:1006FB00E4CCF875F008EF2FFFEE33FEEC33FCEE95
:10070B009DEC984005FCEE9DFE0FD5F0E9E4CEFD87
:10071B0022EDF8F5F0EE8420D21CFEADF075F0085A
:10072B00EF2FFFED33FD4007985006D5F0F222C3B3
:10073B0098FD0FD5F0EA22BB010A89828A83F0E586
:10074B00F0A3F0225006F709A7F01922BBFE06F31F
:10075B00E5F009F31922E88FF0A4CC8BF0A42CFC64
:10076B00E98EF0A42CFC8AF0EDA42CFCEA8EF0A40C
:10077B00CDA8F08BF0A42DCC3825F0FDE98FF0A49B
:10078B002CCD35F0FCEB8EF0A4FEA9F0EB8FF0A492
:10079B00CFC5F02ECD39FEE43CFCEAA42DCE35F0CE
:1007AB00FDE43CFC2275F008758200EF2FFFEE3361
:1007BB00FECD33CDCC33CCC58233C5829BED9AECC9
:1007CB0099E58298400CF582EE9BFEED9AFDEC9933
:1007DB00FC0FD5F0D6E4CEFBE4CDFAE4CCF9A8823D
:1007EB0022B800C1B90059BA002DEC8BF084CFCEE2
:1007FB00CDFCE5F0CBF97818EF2FFFEE33FEED33A0
:10080B00FDEC33FCEB33FB10D703994004EB99FB66
:10081B000FD8E5E4F9FA227818EF2FFFEE33FEED4F
:10082B0033FDEC33FCC933C910D7059BE99A40075C
:10083B00EC9BFCE99AF90FD8E0E4C9FAE4CCFB2273
:10084B0075F010EF2FFFEE33FEED33FDCC33CCC83C
:10085B0033C810D7079BEC9AE899400AED9BFDEC47
:10086B009AFCE899F80FD5F0DAE4CDFBE4CCFAE486
:10087B00C8F922EF4BFFEE4AFEED49FDEC48FC2296
:10088B00C3E49FFFE49EFEE49DFDE49CFC22EB9FF2
:10089B00F5F0EA9E42F0E99D42F0EC6480C864807A
:1008AB009845F022EB9FF5F0EA9E42F0E99D42F06D
:1008BB00E89C45F022E8600FECC313FCED13FDEE52
:1008CB0013FEEF13FFD8F122E8600FEFC333FFEEF7
:1008DB0033FEED33FDEC33FCD8F122E0FCA3E0FD5D
:1008EB00A3E0FEA3E0FF22E0F8A3E0F9A3E0FAA364
:1008FB00E0FB22ECF0A3EDF0A3EEF0A3EFF022A8C7
:10090B00828583F0D083D08212092112092112092A
:10091B0021120921E473E493A3C583C5F0C583C8F1
:10092B00C582C8F0A3C583C5F0C583C8C582C822DC
:10093B00E0FBA3E0FAA3E0F922F8E0FBA3A3E0F9C4
:10094B0025F0F0E582158270021583E0FA38F0226B
:10095B00EBF0A3EAF0A3E9F02275817F75FF037535
:10096B009E02120A8D021144020A81900A83E47ED0
:10097B00019360F4A3FF543F30E509541FFEE49349
:10098B00A360010ECF54E0B4E00EEFFAEEF9A3A38F
:10099B00A3A3DAFDD9FB80D654C025E0604B5026CB
:1009AB00E493A3F85407240CC8C333C4540F442056
:1009BB00C8834004F456800146F6DFE480B00102A0
:1009CB00040810204080E493A3FAE493A3F8E49383
:1009DB00A3C8C582C8CAC583CAF0A3C8C582C8CA82
:1009EB00C583CADFE9DEE78085E493A3F8E493A32C
:1009FB004003F68001F208DFF4020979C2D5E83032
:100A0B00E70FB2D5E4C39BFBE49AFAE499F9E498B7
:100A1B00F8EC30E717B2D5120A3D1207ECE4C39B92
:100A2B00FBE49AFAE499F9E498F880031207EC30A6
:100A3B00D50DE4C39FFFE49EFEE49DFDE49CFC22E8
:100A4B00787FE4F6D8FD9000007F007E10E4F0A3E1
:100A5B00DFFCDEFA904FFFA3E583C394204011FE29
:100A6B00AF829020000E0FE48002F0A3DFFCDEFAD1
:100A7B00120A8D02097622324120D100C10B0109E5
:100A8B000000E5FF54CF4490F5FF22000DFA200043
:100A9B000DDC7000000000020C00013F3F3F04041E
:100AAB0004EF7011ED600775FF0143AE012275FF76
:100ABB000153AEFE22EFB40110ED600775FF014349
:100ACB00AE022275FF0153AEFD2275FF02E5E63043
:100ADB00E2037F0322E5E630E3037F0022E5E63005
:100AEB00E1037F0422E5E67F0530E0027F0122EF80
:100AFB00600775FF0253E6BF2275FF0243E64022F3
:100B0B00EF14600F146014240270188B8075FF01B2
:100B1B008DFD228B9075FF018DC9228BA075FF0176
:100B2B008DCA22AF038FB075FF01AF058FCB22901B
:100B3B00208C315BEF1460111460182402701E714D
:100B4B0073E5807178E5FD801C7173E5907178E534
:100B5B00C980127173E5A07178E5CA80087173E5DD
:100B6B00B07178E5CB0206B990208F213B1206B904
:100B7B0075FF0190208C213BE4F5FFAF9122E4F54A
:100B8B00FFAF922275FF03E4F59122E5FA30E1FB0A
:100B9B0075FC8075FF0153D5EFE4F5FC75FC4071D6
:100BAB008FE5FC20E6FBD32290204811FEF19190BB
:100BBB00205D310A002DC6C0E4F5FFF5A490120D9F
:100BCB00F0A3F09020587402F075FF03902058E0CA
:100BDB00FFF595EF14601314601C2402702790200E
:100BEB004891EFF124902054801690204C91EFF116
:100BFB0024902055800A90205091EFF1249020569C
:100C0B00E0902061F012208E902061E0700512249C
:100C1B004D804F90120DE004F0902058F1FB902086
:100C2B005D91EF902059F177C311AF500990205986
:100C3B0091EFFFA311FE902061E0FF121FEE9020B9
:100C4B0057E0FFA3E0FDA206920412203CA391EF14
:100C5B00F1DD902058E0FFD1A7902058E091E2FF02
:100C6B00F138122464600261D47402F075FF0390B2
:100C7B002058F1E37016FF7E04FDFC90205DD182BD
:100C8B00780111C090205891D0FFF1381224647074
:100C9B00DB121D5D400343F420A2069205121D7C5E
:100CAB0090205D91EF2420FFEE344ED19FE4FB7A30
:100CBB0004F9F8D18D780111C0C203121FE2F5BD02
:100CCB001217FBD322E0FB25E025E02400F582E49C
:100CDB003412F58311FEEB25E025E02400F582E4C8
:100CEB003412F583E0FCA3E0FDA3E0FEA3E0229029
:100CFB00202811FE9020387401F0E4A3F0F19175D7
:100D0B00FF02E5E630E00E9020397401F0FB7A200B
:100D1B007939121823902043310A002DC6C0E4F50F
:100D2B00FFF5A490120EF090203A7402F075FF03B9
:100D3B0090203AE0FFF595EF14601314601C240229
:100D4B00702790202891EFF171902034801690201D
:100D5B002C91EFF171902035800A90203091EFF1BA
:100D6B0071902036E0902047F012208E902047E0C3
:100D7B00700512244D805F90120DE004F090203A24
:100D8B00F1FB902039E0701890204391EF90203FB9
:100D9B00F177C311AF500990203F91EFFFA311FEE4
:100DAB00902047E0FF121FEE902037E0FF90203A93
:100DBB00E0FDA207920412203C902039E0700E90C7
:100DCB00203F91EFF1DD90203AE0FFD1A790203A40
:100DDB00E091E2FFF13812245B6002A138902039D8
:100DEB00E07042A37402F075FF0390203AF1E370B8
:100DFB0011902043D17D780111C090203A91D0FF02
:100E0B00F13812245B70E090204391EF2420FFEE29
:100E1B00344ED19FE4FB7A04F9F8D18D780111C0DF
:100E2B0090203B11FE121D5D400343F420A207925C
:100E3B0005121D7C902039E024FF920390203B91FA
:100E4B00EFFF121FE2F5BD121D50E59B30E7FB12C1
:100E5B001780F1841217FBF1EB7A2079381218EB1B
:100E6B00B4010312194D902038E0B40103D3800173
:100E7B00C322FF7E04FDFCE0F8A3E0F9A3E0FAA394
:100E8B00E0FB120761E47B7DFAF9F81207ECEF2423
:100E9B0001FFE43EFEE43DFDE43CFC229020A7EF85
:100EAB00F0E4A3D17D780111C09020A7E0FBF12ADB
:100EBB0011FE90120FE0FF6480605DEFC3947F50D2
:100ECB002AEBF12AC083C08291EFFFEFC0E09012B2
:100EDB000FE025E025E0FBD0E0FFC3EF9BFFEE9496
:100EEB0000FEED9400FDEC940080269020A7E0F12D
:100EFB002AC083C082F17890120FE0F40425E0251C
:100F0B00E0FFE4FCFDFEEB2FFFEE3AFEED39FDECCE
:100F1B0038FCD082D08311FE22FF90205901FE2590
:100F2B00E025E02400F582E43412F583229020B012
:100F3B0011FE75FF019020B0A3E0FDA3A3E4FFFE1B
:100F4B00E4FC781011C08FE19020B0A3A3E0FEA3C6
:100F5B00E4FFE4FDFC780811C08FE29020B0A3A35E
:100F6B00A3E0FF8FE322FF90203F01FEFFE0F8A3F9
:100F7B00E0F9A3E0FAA3E0FB227FC87E00F1C07585
:100F8B00FF034391802275FF0243E1807196F1B616
:100F9B0053DB7F75FF0175D5027F14F186F1EBF101
:100FAB00B643DB8075FF01E4F5D52275FF01438E57
:100FBB001075FF012275FF03D3EF9402EE940040EE
:100FCB000874FE2FFF74FF3EFEEFF592EE540FF503
:100FDB009122FF9020A801FEE0F595E5F45407223D
:100FEB0075FF03E59120E7FB227F3FFEF1C0808F69
:100FFB00E033333354F8F5F4229020ACEEF0A3EF4A
:10100B00F07B017A2079AEF15450149020AEE0FEC3
:10101B00A3E0FF9020ADE09F9020ACE09E400B90B2
:10102B0020ACE0FEA3E0FF120FC022E4902095F06D
:10103B00FB7D02FF902092F1F29020987401F0C298
:10104B0008B1CED1195005E5FC20E6F7D13DBF0123
:10105B0008E4F5FC75FC408007D13DBF0202D322AA
:10106B00F1EB902093E0FF1220C775FF0153D5DF02
:10107B0053FAFB902092E0FFF1C9902093E090206F
:10108B0092B4080BE0120CE22452120E9C8005E085
:10109B00120CE2FF120F38902094E0FFF1E575FF80
:1010AB000175FF03759B04B1CE75FC42E5FC20E195
:1010BB0004D11940F4902095E0F075FF03E59B20D7
:1010CB00E704D11940F4E59B20E70D75FF03759BF1
:1010DB001F120B96D208804DB1C712182390209384
:1010EB00E0FD90120EE05D701C902092E0FFB1C706
:1010FB00121BCB90120EE0FF902093E0FEEF4E9070
:10110B00120EF0F1FBF1867B017A207996F15450A7
:10111B000FC3902097E09420902096E0940340E733
:10112B00B1C71218F4120FEB30080201449020984B
:10113B00E0B40103D38001C322900FF912090A0016
:10114B00000000900FFD74FFF0A3F0E49020D2F0AC
:10115B0075FF0275E404F5E475FF0253E6BF75FFF6
:10116B0003439E0290200312090A000D4030902089
:10117B000712090A000D403090200B12090A000DCE
:10118B0040309020007402F0E4A3F0A3F090200F05
:10119B00F0D20C122424E4A3F0A3F1A1120BB3118F
:1011AB0036B1B71136D12450FAE5332402FF1313AD
:1011BB00543F900FFDF090200312090A000E1AF015
:1011CB00122424902002E0902056F090200FE09003
:1011DB002057F1A1120BB31136B1B71136D12450F0
:1011EB00FAE53324021313543F900FFEF0E58954B4
:1011FB00FC4401F589D2AFD2A9A37480F0B16EE59E
:10120B008CC394085022E5A020E307E58CC3940817
:10121B0040F4E5A030E307E58CC3940840F40531B6
:10122B00E5317002053080D7B162400AB14E5006ED
:10123B009020D27403F0B16EE58CC394085022E574
:10124B00A020E207E58CC3940840F4E5A030E20748
:10125B00E58CC3940840F40531E53170020530800C
:10126B00D7B162400AB14E50069020D27402F0B151
:10127B006EE58CC394085022E5A020E007E58CC3F3
:10128B00940840F4E5A030E007E58CC3940840F4E3
:10129B000531E5317002053080D7B162400AB14E9D
:1012AB0050069020D27404F0B16E75FF0143D30148
:1012BB0075FF02E58CC394085022E5D320E207E5C5
:1012CB008CC3940840F4E5D330E207E58CC3940853
:1012DB0040F40531E5317002053080D7B162400A28
:1012EB00B14E50069020D27401F09020D2E0FF70E6
:1012FB000280FEE4F58AF58CF509EF6402703DE59A
:10130B00A030E2FBE5A020E2FBD28C7530007531FA
:10131B0001B1477002053014C39420EE944E500C6B
:10132B00E5A030E2FBE5A030E2E780F9C2A9E5A039
:10133B0030E2FBF13DE5A020E2FBC28C9020D2E035
:10134B00FD6403704BE5A030E3FBE5A020E3FBD28B
:10135B008C753000753101B1477002053014C394A0
:10136B0020EE944E500CE5A030E3FBE5A030E3E714
:10137B0080F9C2A9E5A030E3FBAF8CEFFEAC8AECA1
:10138B00FBEEF535EBF536E5A020E3FBC28C8127B0
:10139B00ED6404703FE5A030E0FBE5A020E0FBD25C
:1013AB008C753000753101B1477002053014C39450
:1013BB0020EE944E500CE5A030E0FBE5A030E0E7CA
:1013CB0080F9C2A9E5A030E0FBF13DE5A020E0FBF0
:1013DB00C28C80489020D2E06401704075FF02E51A
:1013EB00D330E2FBE5D320E2FBD28C7530007531B4
:1013FB0001B1477002053014C39420EE944E500C8B
:10140B00E5D330E2FBE5D330E2E780F9C2A9E5D3BF
:10141B0030E2FBF13DE5D320E2FBC28CAF8CEFFE5B
:10142B00D3E5369400E5359E7E0040047F018002B3
:10143B007F00AD8AEF4D4E60020509900F00E58AE3
:10144B00F0A3E58CF0E5092483A3F0900F01F1697B
:10145B0078081208D3E4FFE4FDFCC004C005C00605
:10146B00C007A3E0FFE4FE78101208D3E4FFFEE40C
:10147B00FCD003D002D001D00012087EA804A9052D
:10148B00AA06AB07900F00F169E412087E902024A6
:10149B001208FE9020D2E0604CE47F207E03FDFC1E
:1014AB00B15CC31208AF40257DFF7C00B158D3124D
:1014BB0008AF5019E4FFFE7D01FCB15CC31208AF0D
:1014CB005023E4FDFCB158D31208AF4018900F0025
:1014DB00E0131313541FFFA3E0FEC43354E04F90EB
:1014EB000FFFF08006900FFF7480F0900FF9120938
:1014FB000A42424242900FFFE06480603D900FFD34
:10150B00E0F46036A3E0F460319020D2E0FFB40247
:10151B000875FF015318F7800AEFB4040975FF0132
:10152B005318FD8518CA75FF0175A90375FF017561
:10153B00A7E875FF0175A409D2E980FE0531E531F5
:10154B00AE3022D3E5319408E5309400227FE07E63
:10155B00FC9020240208F2C28CC3E5319406E530DE
:10156B00940022E4F58AF58CD28CF530753101228A
:10157B00751302E4F515F508F50D751405F50AF567
:10158B000BFD7F02F1B8750C012212003E12003EDA
:10159B00E515C39514501212003E50F41223E28F3E
:1015AB003FAD3F7F02F1B880E7AF3F22B17BB195F2
:1015BB00120B96E4F532F533753404227B017A2055
:1015CB007998227FE87E031104020F8A9020CEE5E2
:1015DB00F4F0E0547FF5F47F827E00B1D2D1195044
:1015EB0005E5FC20E6F73009089020CEE04480F5B5
:1015FB00F4B1CED1195005E5FC20E6F775FF01E5F6
:10160B00D520E702C322E5F4D330E601C32275FFF0
:10161B0003E591C330E701D322B17BB195EF2533BD
:10162B00F533E43532F532120B961534E534D39499
:10163B0000227FFA120F86E5FC30E604D11940F741
:10164B00E5FC30E6037F032275FF01E5D530E603A9
:10165B007F0222E5D57F0030E7027F01229020B880
:10166B00EFF0A3121A5375FF01D13DEF6401600235
:10167B00C322E5F430E602C3227FE87E03120FF7A4
:10168B00D1E1400122C209B1D79020B8E0FFF1C9E6
:10169B0053F4DFD209B1D77F787E00D1F775FF0104
:1016AB0053E4BFE5E430E7FB121BB47F8AF17830DB
:1016BB00E605F1ACE4800775FF01F1ACE5D9120644
:1016CB00B975FF0143E440121D63400343F420D17D
:1016DB00E1400122D322E5F730E50FE5F754C07066
:1016EB0004D11940F1120B8FC322D322CDEFCDCCF5
:1016FB00EECCF148AB94EF4BF170CBEFCBFAE5911D
:10170B0030E71DF14BA994E9F582EF4582FFEB2DF4
:10171B00F582EA3CF583C3EF9582E5F0958340DED5
:10172B00E59120E70CCEECCECFEDCF120FF7120FD9
:10173B00EB22AF8CEFAD8AF535EDF5362275FF0355
:10174B00AF93EF75F010A4FF22F148AD94EF4DF17C
:10175B00708FF0120742E591C330E701D322E0FF0F
:10176B00E4FCFDFE2224FBFFE5F034FF22FED1F763
:10177B0090120EE022E4F5FF758EC8E4F5FF75C2FA
:10178B00E17F1EF17830E707E4F5FF75C2A122E493
:10179B00F5FF75C28122F0A20C920690200302087D
:1017AB00E69020B9E0FBA3E0FAA3E0F922EFB40244
:1017BB000CE4F5FF75CE11F5FFAF058FCF2275FF4A
:1017CB0001E5D530E602C322E4F5FF439A80EF1220
:1017DB000FFCE4F5FF539A7FD32275FF018FDA22BA
:1017EB0075FF0153D8EF22EFF0A3EDF0A3EBF0223E
:1017FB009012127401F07E127F00E4FDEF2DF58242
:10180B00E43EF583E0FC901212E02CF00DEDB412E7
:10181B00EB227B017A2079C39020C051537F017C4E
:10182B00127D00E4FEED2EF582E43CF583E02FFF04
:10183B000EEEB412F0901212E06F600A9020C012FC
:10184B0017AFE41206B9229020C37401F0E4902084
:10185B00C5F0E5F454077002C322E5FA30E1FB75DD
:10186B00FF01E5D530E702D3221217EBE5D530E6C1
:10187B001C75FF019020C4E5DAF0E4F5DA111D7553
:10188B00FF01E5D630E3FB9020C57401F0B150E5C4
:10189B009B30E7FBE4FB75FF038B95120CE1FF120A
:1018AB000F380BEBB403EF75FF03759580121780A0
:1018BB009020C5E0700A7FC8120FF6111D120FEBB6
:1018CB007A2079C311EBB40102314D75FF019020E1
:1018DB00C4E0F5DA9020C3E0B40103D38001C32246
:1018EB007B0111F490120DE022C20275FF03759B70
:1018FB001F75FF0390120EE0FF20E71BE59A540FB4
:10190B00C394024012EF4480F0E4F5FF75C2A1438B
:10191B00FC0475FF03D202E5FC30E609E59A540F8F
:10192B00C3940540CCE5FC30E611E41206B975FC16
:10193B0080F5FC75FC40E5FC20E6FB30020312173A
:10194B00FB2275FF0143D8102275FF01E5D520E777
:10195B0002C322C20A510620000221F753F4DF9082
:10196B0020C6E0FF1217C9314D30010543F440800A
:10197B000353F4BFE4F5FF53F5F09020C7E0FAA34F
:10198B00E0FBEA42F5EBF5F6D20A5106120F84E4BE
:10199B00F5FFE59320E60512161940F330015AE5E1
:1019AB00F430E3047D288010E5F430E2047D2880D8
:1019BB0007E5F430E1027D28120B8F7F28120F868A
:1019CB0012161940FB7F78120F86121619502A51E6
:1019DB002750F7514EEFC39D50F0512750ECE5F7D0
:1019EB0020E5E7C20A5106120B8F80DE53F4BFB11C
:1019FB0063400643F4201217EBD322AFF4EF547F6E
:101A0B00F5F4300A05EF4480F5F475FF01E5D520B8
:101A1B00E702C322E5F4D330E601C32275FF01E5EB
:101A2B00E43322E4FFE5F754C06002801675FF0132
:101A3B00E5D530E30D512750F4514EEF60EF5127B0
:101A4B0050EB2271B4AFD922EBF0A3EAF0A3E9F08B
:101A5B0022902078515390207E12090A0000000139
:101A6B009020827401F0F5FFE5D554C0700471AC81
:101A7B005002C322E4F5FF53967F75FF0175D50421
:101A8B00120FF4120FEB75FF0143D508E4F5FF536A
:101A9B0094FBF5FF53847FF5FF7598FF90207CE551
:101AAB00F4F075F49C75FF01A3E5E4F075E4257B78
:101ABB00017A2079821123902082E0640160026117
:101ACB008BF5FF90207B7414F090207E120CEFFFAF
:101ADB0078011208D390207E1208FEE5A730E1FBB7
:101AEB0043A70290207E120CEFFFE5A730E005E440
:101AFB007B018002E4FBFAF9F8EF4BFFEE4AFEEDB7
:101B0B0049FDEC48FC90207E1208FE90207BE014EF
:101B1B00F070B690207E120CEFFF78101208C07B8D
:101B2B006D7A4E79C67841120761EF2439FFEE3496
:101B3B0030120E9FE4FBFA7901F81207ECEE547F9A
:101B4B00FEE4FDFC71BE90207E120CEFFFEB6FFFED
:101B5B00EA6EFEE8CDEFCDCCEECCECFF9020781208
:101B6B0017AFEF1206B99020781217AF900001ED66
:101B7B001206CB90120EE030E606E4F5FF75968068
:101B8B0075FF01E4F5D590207CE0F5F475FF01A31A
:101B9B00E0F5E4B16B902082E0B40103D38001C384
:101BAB0022E5F4C330E701D32275FF01E4F5EA75B2
:101BBB00EAFF22C8ECC8C9EDC9CAEECACBEFCB22EB
:101BCB009020B4EDF0901210E0FEF46006A3E0FD5F
:101BDB00B4FF0C9020B67418F0A37413F080089027
:101BEB0020B6EEF0A3EDF012064F64016002A12ABD
:101BFB009020B4E0FE64086004EEB404089020B5B5
:101C0B007428F080069020B5743AF0EF120CE2FFC6
:101C1B0012088BE4B12BEF24D8FFEE343FFEED34EA
:101C2B0093FDEC3416FC7B007A8079037800120A62
:101C3B000771BE9020B7E0FF9020B6E0C39FFFE492
:101C4B00FCFDFE120761ECC0E0EDC0E0EEC0E0EF82
:101C5B00C0E09020B7121769B12BD0E0FBD0E0FAAF
:101C6B00D0E0F9D0E0F8EB2FFBEA3EFAE93DF9E8DA
:101C7B003CF89020B5121769120761EF2454FFEE60
:101C8B00340B120E9FE47BA87A16F9F8120A07CBD5
:101C9B00EFCB9020B4E014606114601B24FE600C49
:101CAB0024FC707BE4F5FF75CE318006E4F5FF75FF
:101CBB00CE21F5FF8BCF22E4FAE4F5FFEA2440F5C1
:101CCB00CEE4F5FFEAFFC374079FFFE49400FE74B4
:101CDB00032FF58274003EF583E4B133C39DF5CF3A
:101CEB00E4F5FFEA2448F5CEE4F5FFEA900003B1F2
:101CFB00332DF5CF0AEAB408C022E4F5FF75CE0107
:101D0B00F5FF8BCFF5FF75CE0EF5FFEB25E0F5CF8D
:101D1B00E4F5FF75CE0FF5FFEB75F003A4F5CF22BD
:101D2B007B64FAF9F80207619325E0FDE433FCEBE1
:101D3B0075F010A4FFAEF01206EDCDEFCDEBFFE486
:101D4B00C313EF132275FF03759B0475FC4175FFDD
:101D5B00032275FF0375958090120DE0D394012239
:101D6B00E4F5FF7584E6F5FF439404F5FF759814CD
:101D7B0022E4F5FFF59375FF03759A40B16BE4F51B
:101D8B00FF759C93F5FF75A1A3F5FF758531F5FFE5
:101D9B00758628E5FA54304480F5FA75FF0175E72E
:101DAB004A75FF0275DF4975FF0143D30475FF01C7
:101DBB0053D367E4F5FF53E6BF75FF0175D825F5DF
:101DCB00FF75B503F5FF75B215F5FF75BA02F5FF93
:101DDB0075AFB3F5FF75CD0AF5FF75CB08F5FF753C
:101DEB00CA12F5FF75BF0EF5FF75CC96F5FFF5BD65
:101DFB00F5FF75C281F5FF75AEE1F5FF75DA55F5A7
:101E0B00FF75F580F5FF75E903F5FF75E933F5FF10
:101E1B0075972A75FF01759B42759CA4759D297555
:101E2B009E48759F2475A11275A312759AF820050B
:101E3B000CF5FF43968090120EE04440F022901276
:101E4B000F0217F29020621208FEE4F5FF75BB0536
:101E5B0075BB8575FF0175D502200309120FF412AE
:101E6B000FEB12178675FF0143D520300302E11EDD
:101E7B00E4F5FF538EF7438E077D04E4F5FF8DBC2D
:101E8B00F5FF43B102E5B130E2FBE4F5FFAFDFEF65
:101E9B00FEACDEECFBEBFFED25E02460F582E434D9
:101EAB0020F583EEF0A3EFF0E4F5FFF5FF53B1FD62
:101EBB000DEDB40CC6902062120CEFFF78091208DE
:101ECB00C0A3EEF0A3EFF0E4FDED25E0246AF5826C
:101EDB00E43420F583E0C313FAA3E013FBF138F1EC
:101EEB00452BFFEE3AFEF138EEF0A3EFF0ED2404B4
:101EFB0090120CF0EDC394075019CFEDCF0DEFF10D
:101F0B0039E0FEA3E0FFC3902067E09F902066E0DE
:101F1B009E50B6E4F5FF758EC8F5FF90120CE0F5F8
:101F2B00BCE4F5FF75BB8075FF01F5D522ED25E00F
:101F3B002468F582E43420F58322E0C313FEA3E08A
:101F4B0013229020BCEEF0A31217F2F1CBAC00AD34
:101F5B0001AE02AF03C006C0079020BCF145FBAA3F
:101F6B0006E4F9F8D007D006D31208997E00500486
:101F7B007F0180027F00C006C007F1CBD0E02FFFAE
:101F8B00D0E03E9020BCF0A3EFF053ECFC9020BCD3
:101F9B00E0FCA3E0FDEC540342EC75FF02EDF5AF62
:101FAB0075ED0275ED04A3E0600543EC0880035367
:101FBB00ECF79020BFE0600443EC042253ECFB22CF
:101FCB009020BCE0FEA3E0FBAA06E4F9F87F807E3C
:101FDB00387D01FC020A07D14FE4F5FFE5BD54F84B
:101FEB00440422EF30E00E43F401E4F5FF43A40474
:101FFB00F5FF759624EF30E10E43F401E4F5FF4352
:10200B00A408F5FF759624EF30E20943F402E4F5DA
:10201B00FF75961EEF30E30943F404E4F5FF759664
:10202B001075FF01EF5403600475D7122275D72D7D
:10203B0022CCEFCCCFEDCF74017E00C8EFC8088067
:10204B0005C333CE33CED8F9FFCDECCDEF5D601B9E
:10205B0030041875FF0175DCAD75FF0175DDCDE43E
:10206B00F5FF759A74F5FF7594842275FF0175DC85
:10207B005375FF0175DD33E4F5FF759A14F5FF75A4
:10208B0094042275FF0175E46575FF0175D647222F
:10209B00E5FA5430FFBF30037F0822E5FA5430FFD6
:1020AB00BF20037F0422E5FA5430FFBF10037F02E9
:1020BB0022E5FA54307F0070027F012275FF01E5A3
:1020CB00D530E602C32253FACFEFB4080543FA30FA
:1020DB008012EFB4040543FA208009EFB4020543E4
:1020EB00FA108000D322E5F45418131313541FFF76
:1020FB0022E5F75406FFBF06037F0822E5F75406D7
:10210B00FFBF04037F0422E5F75406FFBF02037FE2
:10211B0002227F0122E5F720E008E5F754C070F5B5
:10212B00FF2243F701AFF92275FF01E5D520E60247
:10213B00C322E5FA540360FA75FF018FC3D322CE95
:10214B00EFCE75FF01E5D520E602C32243FA04E486
:10215B00FDEDC39E50077F5531330D80F4E5FA54E6
:10216B003070047F0F80027FF03133D322E5F754B8
:10217B00E024FF22E5F71322E5F754C024FF22EFFA
:10218B00600775FF0243E6102275FF0253E6EF224C
:10219B0075ED042275ED0222E5ED30E2FB75ED04E1
:1021AB00AFEF22AFEF228FEF22FF31D3E5ED20E02F
:1021BB00FB8FEF229020D0EFF0E0C4540F31B4909E
:1021CB0020D0E0FF31D380E4EF540FFFD39409EF1D
:1021DB0050042430FF222437FF229020CFEFF075DC
:1021EB00F00A8431B49020CFE075F00A84AFF0315F
:1021FB00D380B97F0D31B77F0A80B151E931FEE44D
:10220B0090208AF0902089E0FFA3E0FEC39F502529
:10221B0090208651C912068CFF31BF90208AE05462
:10222B000FFFBF0F0431FE80047F2031B790208A4F
:10223B00E004F080CF90208AE0540F600231FE2240
:10224B0090209912095B90209FE0C4540F516A5162
:10225B00931206CB90209FE0516A51930206CBFF5D
:10226B0031D390209C12093B7401120668FE90201A
:10227B009912093B8E82758300EF1206CB90209C3E
:10228B0012093B7401020668FF90209912093B8FDB
:10229B0082758300E4229020A012095B9020A6E0B7
:1022AB00FF9020A3518BFE9020A051C9EF1206CBBB
:1022BB009020A3518BFF9020A051970206CB1209BF
:1022CB003B8E82758300229020CCEEF0A3EFF09032
:1022DB0020CCE0FF31BF9020CCA3E0FF21BF9020AA
:1022EB00C912095B9020C912093B12064F6012906C
:1022FB0020C9E475F00112094412064FFF31B78073
:10230B00E322EF600443EC042253ECFB22EF600466
:10231B0043EC082253ECF722E5ED5402FF22E5EDE6
:10232B005404FF22E5ED5401FF22E4F51AF51BF5E9
:10233B001CF51D75FF0185FD1675FF0185C9177508
:10234B00FF0185CA1875FF0185CB1922EF715EF06D
:10235B00020000901217F09020D122901217E0FF8C
:10236B00F460059020D1EFF074FF715EE0FF2290D6
:10237B001217E0FE64069020D16004EFF08008EEA7
:10238B00F090121774FFF09020D1E0FF22E4F51EBD
:10239B00F51FC3E51F9FE51E9E500A051FE51F7025
:1023AB0002051E80ED2205093263A00A32E4F53CDA
:1023BB00740D253CF8E625E0F53D053CE53DC313E2
:1023CB00F53DE53C6515600C740D253CF8E6253DA7
:1023DB00F53D80E6AF3D220515AD0BAC0AE515B416
:1023EB000109ED25E0FDEC33FC8019E51524FEF524
:1023FB003EE53ED39400400CECA2E713FCED13FD3D
:10240B00153E80ED71B8AB07ED2480E43CFFEB2F5C
:10241B00FF740D2515F8A607229020071208E690E9
:10242B00204C1208FE90200B1208E6902050120848
:10243B00FE902000E0902054F0902001E090205579
:10244B00F022F5FFF59675FF0175D70975F4182283
:10245B0090203AE0FF14F0EF22902058E0FF14F0A8
:02246B00EF225E
:00000001FF
