:100000000203234120BD00C10B0022022164BB0179
:100010000689828A83E0225002E722BBFE02E322A5
:1000200089828A83E49322BB010B89828A83F8E068
:10003000C828F0E822500327C722BBFE07F8E3C810
:1000400028F3E8228A838982E49322BB010CE582AB
:1000500029F582E5833AF583E0225006E92582F806
:10006000E622BBFE06E92582F8E222E58229F58236
:10007000E5833AF583E49322BB010689828A83F003
:10008000225002F722BBFE01F322F8BB010DE582EC
:1000900029F582E5833AF583E8F0225006E92582C6
:1000A000C8F622BBFE05E92582C8F222BC000BBEC1
:1000B0000029EF8DF084FFADF022E4CCF875F00854
:1000C000EF2FFFEE33FEEC33FCEE9DEC984005FC89
:1000D000EE9DFE0FD5F0E9E4CEFD22EDF8F5F0EE51
:1000E0008420D21CFEADF075F008EF2FFFED33FD3C
:1000F0004007985006D5F0F222C398FD0FD5F0EADC
:1001000022BB010A89828A83F0E5F0A3F02250061F
:10011000F709A7F01922BBFE06F3E5F009F319224F
:10012000E88FF0A4CC8BF0A42CFCE98EF0A42CFC7E
:100130008AF0EDA42CFCEA8EF0A4CDA8F08BF0A4FC
:100140002DCC3825F0FDE98FF0A42CCD35F0FCEB5B
:100150008EF0A4FEA9F0EB8FF0A4CFC5F02ECD3920
:10016000FEE43CFCEAA42DCE35F0FDE43CFC227517
:10017000F008758200EF2FFFEE33FECD33CDCC3388
:10018000CCC58233C5829BED9AEC99E58298400CF0
:10019000F582EE9BFEED9AFDEC99FC0FD5F0D6E4CE
:1001A000CEFBE4CDFAE4CCF9A88222B800C1B900B4
:1001B00059BA002DEC8BF084CFCECDFCE5F0CBF915
:1001C0007818EF2FFFEE33FEED33FDEC33FCEB330D
:1001D000FB10D703994004EB99FB0FD8E5E4F9FA3B
:1001E000227818EF2FFFEE33FEED33FDEC33FCC920
:1001F00033C910D7059BE99A4007EC9BFCE99AF9B3
:100200000FD8E0E4C9FAE4CCFB2275F010EF2FFF21
:10021000EE33FEED33FDCC33CCC833C810D7079B8B
:10022000EC9AE899400AED9BFDEC9AFCE899F80FEE
:10023000D5F0DAE4CDFBE4CCFAE4C8F922EF4BFFC9
:10024000EE4AFEED49FDEC48FC22C3E49FFFE49E2C
:10025000FEE49DFDE49CFC22EB9FF5F0EA9E42F05B
:10026000E99D42F0EC6480C864809845F022EB9FE1
:10027000F5F0EA9E42F0E99D42F0E89C45F022E864
:10028000600FECC313FCED13FDEE13FEEF13FFD86C
:10029000F122E8600FEFC333FFEE33FEED33FDECE8
:1002A00033FCD8F122E0FCA3E0FDA3E0FEA3E0FFD5
:1002B00022E0F8A3E0F9A3E0FAA3E0FB22ECF0A32C
:1002C000EDF0A3EEF0A3EFF022A8828583F0D083B7
:1002D000D0821202E01202E01202E01202E0E473A5
:1002E000E493A3C583C5F0C583C8C582C8F0A3C580
:1002F00083C5F0C583C8C582C822E0FBA3E0FAA38A
:10030000E0F922F8E0FBA3A3E0F925F0F0E582157F
:100310008270021583E0FA38F022EBF0A3EAF0A332
:10032000E9F02275817F75FF03759E0212046A024F
:100330001141020440900003E47E019360F4A3FFA6
:10034000543F30E509541FFEE493A360010ECF54DF
:10035000E0B4E00EEFFAEEF9A3A3A3A3DAFDD9FB14
:1003600080D654C025E0604B5026E493A3F8540790
:10037000240CC8C333C4540F4420C8834004F4562B
:10038000800146F6DFE480B00102040810204080BE
:10039000E493A3FAE493A3F8E493A3C8C582C8CA7C
:1003A000C583CAF0A3C8C582C8CAC583CADFE9DE4F
:1003B000E78085E493A3F8E493A34003F68001F279
:1003C00008DFF4020338C2D5E830E70FB2D5E4C342
:1003D0009BFBE49AFAE499F9E498F8EC30E717B259
:1003E000D51203FC1201ABE4C39BFBE49AFAE49937
:1003F000F9E498F880031201AB30D50DE4C39FFFF8
:10040000E49EFEE49DFDE49CFC22787FE4F6D8FDAA
:100410009000007F007E10E4F0A3DFFCDEFA904F36
:10042000FFA3E583C394204011FEAF829020000E0D
:100430000FE48002F0A3DFFCDEFA12046A02033547
:100440002232EF541F9004497300000000000000A6
:10045000000000000000000000000000000000009C
:1004600000000000000000000022E5FF54CF44908F
:10047000F5FF22000DFA20000DDC700000000002E4
:100480000C00013F3F3F040404822D1C1613111081
:1004900010EF7011ED600775FF0143AE012275FF8B
:1004A0000153AEFE22EFB40110ED600775FF01436A
:1004B000AE022275FF0153AEFD2275FF02E5E63064
:1004C000E2037F0322E5E630E3037F0022E5E63026
:1004D000E1037F0422E5E67F0530E0027F0122EFA1
:1004E000600775FF0253E6BF2275FF0243E6402214
:0E04F00090207B41FAE4F5FFAF9122AFEF229E
:1005080053FA7FE4F5FF758E02F53AF53B7537042B
:10051800E50C5401F40454B8FFE50CC3136FF50C53
:10052800FF1204427F147E001214767FFF121E8E83
:100538007F017E00121476E4F5FF438E08E5DF5450
:1005480003ADDEF538EDF539538EF7C3E50B953974
:10055800F50BE50A9538F50A438E08E5DF5403AD37
:10056800DEF538EDF539538EF7C3E50B9539F50B04
:10057800E50A9538F50A438E08E5DF5403ADDEF544
:1005880038EDF539538EF7C3E50B9539F50BE50AC8
:100598009538F50A438E08E5DF5403ADDEF538EDEE
:1005A800F539538EF7C3E50B9539F50BE50A953800
:1005B800F50A438E08E5DF5403ADDEF538EDF5396D
:1005C800538EF7C3E50B9539F50BE50A9538F50A0F
:1005D800438E08E5DF5403ADDEF538EDF539538E6B
:1005E800F7C3E50B9539F50BE50A9538F50A438EFF
:1005F80008E5DF5403ADDEF538EDF539538EF7C362
:10060800E50B9539F50BE50A9538F50A438E08E5AB
:10061800DF5403ADDEF538EDF539538EF7C3E50B3E
:100628009539F50BE50A9538F50A438E08E5DF5448
:1006380003ADDEF538EDF539538EF7C3E50B953B81
:10064800F50BE50A953AF50A438E08E5DF5403AD44
:10065800DEF538EDF539538EF7C3E50B953BF50B11
:10066800E50A953AF50A438E08E5DF5403ADDEF551
:1006780038EDF539538EF7C3E50B953BF50BE50AD5
:10068800953AF50A438E08E5DF5403ADDEF538EDFB
:10069800F539538EF7C3E50B953BF50BE50A953A0B
:1006A800F50A438E08E5DF5403ADDEF538EDF5397C
:1006B800538EF7C3E50B953BF50BE50A953AF50A1A
:1006C800438E08E5DF5403ADDEF538EDF539538E7A
:1006D800F7C3E50B953BF50BE50A953AF50A438E0A
:1006E80008E5DF5403ADDEF538EDF539538EF7C371
:1006F800E50B953BF50BE50A953AF50A438E08E5B7
:10070800DF5403ADDEF538EDF539538EF7C3E50B4D
:10071800953BF50BE50A953AF50A438E08E5DF5453
:1007280003ADDEF538EDF539538EF7E539250BF5D0
:100738000BE538350AF50A438E08E5DF5403ADDECC
:10074800F538EDF539538EF7E539250BF50BE53816
:10075800350AF50A438E08E5DF5403ADDEF538EDBA
:10076800F539538EF7E539250BF50BE538350AF5DC
:100778000A438E08E5DF5403ADDEF538EDF539534D
:100788008EF7E539250BF50BE538350AF50A438E62
:1007980008E5DF5403ADDEF538EDF539538EF7E59E
:1007A80039250BF50BE538350AF50A438E08E5DFE0
:1007B8005403ADDEF538EDF539538EF7E539250BE1
:1007C800F50BE538350AF50A438E08E5DF5403AD25
:1007D800DEF538EDF539538EF7E539250BF50BE5E0
:1007E80038350AF50A438E08E5DF5403ADDEF538DF
:1007F800EDF539538EF7E539250BF50BE538350A54
:10080800F50AE50C5401F40454B8FFE50CC3136F62
:10081800F50CFF1204427F147E00121476E4FF12D6
:100828001E8E7F017E00121476E4F5FF438E08E5E4
:10083800DF5403ADDEF538EDF539538EF7E539258C
:100848000BF50BE538350AF50A438E08E5DF540346
:10085800ADDEF538EDF539538EF7E539250BF50B97
:10086800E538350AF50A438E08E5DF5403ADDEF5B1
:1008780038EDF539538EF7E539250BF50BE53835A5
:100888000AF50A438E08E5DF5403ADDEF538EDF5C9
:1008980039538EF7E539250BF50BE538350AF50A96
:1008A800438E08E5DF5403ADDEF538EDF539538E98
:1008B800F7E539250BF50BE538350AF50A438E08B7
:1008C800E5DF5403ADDEF538EDF539538EF7E5393C
:1008D800250BF50BE538350AF50A438E08E5DF5494
:1008E80003ADDEF538EDF539538EF7E539250BF50F
:1008F8000BE538350AF50A438E08E5DF5403ADDE0B
:10090800F538EDF539538EF7E539250BF50BE53854
:10091800350AF50A438E08E5DF5403ADDEF538EDF8
:10092800F539538EF7C3E50B953BF50BE50A953A78
:10093800F50A438E08E5DF5403ADDEF538EDF539E9
:10094800538EF7C3E50B953BF50BE50A953AF50A87
:10095800438E08E5DF5403ADDEF538EDF539538EE7
:10096800F7C3E50B953BF50BE50A953AF50A438E77
:1009780008E5DF5403ADDEF538EDF539538EF7C3DE
:10098800E50B953BF50BE50A953AF50A438E08E524
:10099800DF5403ADDEF538EDF539538EF7C3E50BBB
:1009A800953BF50BE50A953AF50A438E08E5DF54C1
:1009B80003ADDEF538EDF539538EF7C3E50B953BFE
:1009C800F50BE50A953AF50A438E08E5DF5403ADC1
:1009D800DEF538EDF539538EF7C3E50B953BF50B8E
:1009E800E50A953AF50A438E08E5DF5403ADDEF5CE
:1009F80038EDF539538EF7C3E50B953BF50BE50A52
:100A0800953AF50A438E08E5DF5403ADDEF538ED77
:100A1800F539538EF7C3E50B9539F50BE50A95388B
:100A2800F50A438E08E5DF5403ADDEF538EDF539F8
:100A3800538EF7C3E50B9539F50BE50A9538F50A9A
:100A4800438E08E5DF5403ADDEF538EDF539538EF6
:100A5800F7C3E50B9539F50BE50A9538F50A438E8A
:100A680008E5DF5403ADDEF538EDF539538EF7C3ED
:100A7800E50B9539F50BE50A9538F50A438E08E537
:100A8800DF5403ADDEF538EDF539538EF7C3E50BCA
:100A98009539F50BE50A9538F50A438E08E5DF54D4
:100AA80003ADDEF538EDF539538EF7C3E50B95390F
:100AB800F50BE50A9538F50A438E08E5DF5403ADD2
:100AC800DEF538EDF539538EF7C3E50B9539F50B9F
:100AD800E50A9538F50A438E08E5DF5403ADDEF5DF
:100AE80038EDF539538EF7C3E50B9539F50BE50A63
:100AF8009538F50A1537E537D394004003020518F1
:100B08000508E508B51308E51325E0F513D322C356
:100B180022EF14600F146014240270188B8075FF84
:100B2800018DFD228B9075FF018DC9228BA075FF69
:100B3800018DCA22AF038FB075FF01AF058FCB229D
:100B480090207812031AEF14601214601A240270AD
:100B5800211204F0E580718CE5FD801F1204F0E598
:100B680090718CE5C980141204F0E5A0718CE5CA77
:100B780080091204F0E5B0718CE5CB020078E4F549
:100B8800FFAF922212007875FF019020780202FAD6
:100B980075FF03E4F59122E5FA30E1FB75FC8075F9
:100BA800FF0153D5EFE4F5FC75FC407198E5FC2096
:100BB800E6FBD322F0A20C92069020531202A590D5
:100BC80020201202BDF1129020351202C9002DC654
:100BD800C0E4F5FFF5A490120DF0A3F09020307456
:100BE80002F075FF03902030E0FFF595EF146013D5
:100BF80014601C24027027902020B109F104902071
:100C08002C8016902024B109F10490202D800A90A0
:100C18002028B109F10490202EE0902039F0121D0F
:100C2800E9902039E070051221BB805290120DE046
:100C380004F09020301221C9902035B1099020315C
:100C4800F1E7C312026E500A902031B109FFA312D6
:100C580002BD902039E0FF121D4990202FE0FFA32C
:100C6800E0FDA2069204121D97A3B109F1F49020A9
:100C780030E0FFF164902030E091FCFFD1C81221F0
:100C8800E5600261EA7402F075FF03902030F1FB21
:100C98007017FF7E04FDFC902035D1A37801120265
:100CA8007F90203091E9FFD1C81221E570DA121740
:100CB800C1400343F420A2069205121ADB902035A6
:100CC800B1092420FFEE344ED1C0E4FB7A04F9F8D0
:100CD800D1AE780112027FC203121D3B1217FCD35A
:100CE80022E0FB25E025E02400F582E43412F583B8
:100CF8001202BDEB25E025E02400F582E43412F56C
:100D080083E0FCA3E0FDA3E0FEA3E0229020001214
:100D180002BD9020107401F0E4A3F0F11275FF02F7
:100D2800E5E630E00E9020117401F0FB7A2079118D
:100D380012182490201B1202C9002DC6C0E4F5FF2A
:100D4800F5A490120EF09020127402F075FF039033
:100D58002012E0FFF595EF14601314601C24027054
:100D680027902000B109F10B90200C8016902004E8
:100D7800B109F10B90200D800A902008B109F10B00
:100D880090200EE090201FF0121DE990201FE070C7
:100D9800051221BB806290120DE004F0902012121F
:100DA80021C9902011E0701A90201BB109902017DA
:100DB800F1E7C312026E500A902017B109FFA3127F
:100DC80002BD90201FE0FF121D4990200FE0FF9008
:100DD8002012E0FDA2079204121D97902011E070E6
:100DE8000E902017B109F1F4902012E0FFF1649001
:100DF8002012E091FCFFD1C81221DC6002A15490BE
:100E08002011E07045A37402F075FF03902012F1E1
:100E1800FB701290201BD19E780112027F90201245
:100E280091E9FFD1C81221DC70DF90201BB10924A1
:100E380020FFEE344ED1C0E4FB7A04F9F8D1AE7845
:100E48000112027F9020131202BD1217C140034302
:100E5800F420A2079205121ADB902011E024FF92D9
:100E680003902013B109FF121D3B121ABDE59B30F8
:100E7800E7FB121748F13A1217FC1217A57A2079E6
:100E8800101218EDB401031217E7902010E0B40116
:100E980003D38001C322FF7E04FDFCE0F8A3E0F940
:100EA800A3E0FAA3E0FB120120E47B7DFAF9F81233
:100EB80001ABEF2401FFE43EFEE43DFDE43CFC22EF
:100EC80090209C1202BD75FF0190209CA3E0FDA319
:100ED800A3E4FFFEE4FC781012027F8FE190209CCF
:100EE800A3A3E0FEA3E4FFE4FDFC780812027F8FD1
:100EF800E290209CA3A3A3E0FF8FE322FF90203180
:100F08000202BDFF9020170202BD75FF0243E18077
:100F1800719F1221D253DB7F75FF0175D5027F14B3
:100F2800F13C1217A51221D243DB8075FF01E4F5CD
:100F3800D5227FC87E00F14775FF03439180227553
:100F4800FF03D3EF9402EE9400400874FE2FFF7461
:100F5800FF3EFEEFF592EE540FF59122902093EFAD
:100F6800F0E4A3D19E780112027F902093E0FB1257
:100F780021AD1202BD90120FE0FF64806060EFC3E4
:100F8800947F502BEB1221ADC083C082B109FFEFD3
:100F9800C0E090120FE025E025E0FBD0E0FFC3EFB2
:100FA8009BFFEE9400FEED9400FDEC9400802790EA
:100FB8002093E01221ADC083C082F1E890120FE0C7
:100FC800F40425E025E0FFE4FCFDFEEB2FFFEE3AFC
:100FD800FEED39FDEC38FCD082D0831202BD22FF31
:100FE800E0F8A3E0F9A3E0FAA3E0FB22FF90209445
:100FF8000202BDE0F595E5F4540722902098EEF042
:10100800A3EFF07B017A20799AF133501490209A5B
:10101800E0FEA3E0FF902099E09F902098E09E409A
:101028000B902098E0FEA3E0FF120F4722E49020E7
:1010380081F0FB7D02FF90207EF1EE902084740108
:10104800F0C208716971B45005E5FC20E6F771BF7C
:10105800BF0108E4F5FC75FC40800771BFBF0202C0
:10106800D322F19690207FE0FF121E2275FF0153D4
:10107800D5DF53FAFB90207EE0FFB16790207FE038
:1010880090207EB4080BE0120CFC2452120EBD8096
:1010980005E0120CFCFF120EC8902080E0FFF1E181
:1010A80075FF0175FF03759B04716975FC42E5FCCA
:1010B80020E10471B440F4902081E0F075FF03E56D
:1010C8009B20E70471B440F4E59B20E70D75FF030E
:1010D800759B1F120B9FD208804C716212182490C6
:1010E800207FE0FD90120EE05D701B90207EE0FFF7
:1010F8007162B1B290120EE0FF90207FE0FEEF4ED9
:1011080090120EF0F1FCF14E7B017A207982F133D6
:10111800500FC3902083E09420902082E0940340F5
:10112800E771621218F6F1A5300802014390208495
:10113800E0B40103D38001C32275FF0275E404E41F
:10114800F5E412040A12209575FF0253E6BF900FCA
:10115800FD74FFF0A3F0A37480F09020531202C92D
:10116800000D40309020571202C9000D40309020E9
:101178005B1202C9000D40309020507402F0E4A3C5
:10118800F0A3F090205FF0D20C122167E4A3F0A343
:10119800120BBC113571391135714950FAE53124FA
:1011A80002FF1313543F900FFDF09020531202C911
:1011B800000E1AF0122167902052E090202EF09035
:1011C800205FE090202F120BBC1135713911357159
:1011D8004950FAE53124021313543F900FFEF0E50D
:1011E8008954FC4401F589D2AFD2A9E4F58AF58C7B
:1011F800F50975FF015318FD8518CA531CFD851C98
:10120800A0E5A030E3FBE5A020E3FBD28C75350018
:101218007536010536E536AE357002053514C394CA
:1012280020EE944E500CE5A030E3FBE5A030E3E35C
:1012380080F9E5A030E3FBE5A020E3FBC28C431C6A
:1012480002851CA0900F00E58AF0A3E58CF0E50963
:101258002483A3F0AF8CEFFEAD8A7C00E42DFFEC75
:101268003ECF2404CF3400FEEF7803CEC313CE1351
:10127800D8F9F5348E33900F01B1AB780812029289
:10128800E4FFE4FDFCC004C005C006C007A3E0FFFE
:10129800E4FE7810120292E4FFFEE4FCD003D002D0
:1012A800D001D00012023DA804A905AA06AB0790F8
:1012B8000F00B1ABE412023D9020601202BDE47F42
:1012C800207E03FDFC9020601202B1D312026E4012
:1012D8001C7FE07EFC7DFF7C009020601202B1C381
:1012E80012026E5008900FFF7480F08006E534906B
:1012F8000FFFF080FE751302E4F515F508F50D757E
:101308001405F50AF50BFD7F02F1CF750C012212C9
:101318000508120508E515C3951450121205085062
:10132800F41221228F3DAD3D7F02F1CF80E7AF3D22
:101338002251FD7117120B9FE4F530F53175320417
:101348002251FD7117EF2531F531E43530F53012B2
:101358000B9F1532E532D39400227B017A207984E1
:10136800227FE87E031103020F409020BAE5F4F0D3
:10137800E0547FF5F47F827E00716D71B45005E50D
:10138800FC20E6F73009089020BAE04480F5F471B3
:101398006971B45005E5FC20E6F775FF01E5D52035
:1013A800E702C322E5F4D330E601C32275FF03E563
:1013B80091C330E701D3227FFA120F3CE5FC30E6F7
:1013C8000471B440F7E5FC30E6037F032275FF01A2
:1013D800E5D530E6037F0222E5D57F0030E7027FBE
:1013E80001229020A4EFF0A312194F75FF0171BFDD
:1013F800EF64016002C322E5F430E602C3227FE80D
:101408007E03F1B19160400122C20971729020A45B
:10141800E0FFB16753F4DFD20971727F787E0091E3
:101428007675FF0153E4BFE5E430E7FBF1B77F8A47
:10143800F16930E605F11BE4800775FF01F11BE552
:10144800D912007875FF0143E440F1C7400343F423
:10145800209160400122D322E5F730E50FE5F754EB
:10146800C0700471B440F1120B98C322D322CDEF9F
:10147800CDCCEECCF127AB94EF4BF19DCBEFCBFA73
:10148800E59130E71DF12AA994E9F582EF4582FF3D
:10149800EB2DF582EA3CF583C3EF9582E5F0958361
:1014A80040DEE59120E70ACEECCECFEDCFF1B1F1E9
:1014B800A52275FF01E5D520E702C322C20AB18340
:1014C800200002A15953F4DF9020B2E0FFB167F188
:1014D800E730010543F440800353F4BFE4F5FF53BC
:1014E800F5F09020B3E0FAA3E0FBEA42F5EBF5F65D
:1014F800D20AB183120F3AE4F5FFE59320E60471AE
:10150800B440F4300157E5F430E3047D288010E559
:10151800F430E2047D288007E5F430E1027D2812EA
:101528000B987F28120F3C71B440FC7F78120F3C57
:1015380071B45029B1A450F8F191EFC39D50F1B1A5
:10154800A450EDE5F720E5E8C20AB183120B9880B4
:10155800DF53F4BFF1C7400543F420F196D3227559
:10156800FF01E5D530E602C322E4F5FF439A80EF98
:101578001221CAE4F5FF539A7FD322AFF4EF547FC8
:10158800F5F4300A05EF4480F5F475FF01E5D52040
:10159800E702C322E5F4D330E601C32275FF01E573
:1015A800E43322E0FFE4FCFDFE229020A0EDF09061
:1015B8001210E0FEF46006A3E0FDB4FF0C9020A238
:1015C8007418F0A37413F080089020A2EEF0A3ED35
:1015D800F012000E64016002E1129020A0E0FE64A7
:1015E800086004EEB404089020A17428F0800690E6
:1015F80020A1743AF0EF120CFCFF12024AE4F11336
:10160800EF24D8FFEE343FFEED3493FDEC3416FCA6
:101618007B007A80790378001203C6121AB09020F2
:10162800A3E0FF9020A2E0C39FFFE4FCFDFE1201AF
:1016380020ECC0E0EDC0E0EEC0E0EFC0E09020A3F9
:10164800B1ABF113D0E0FBD0E0FAD0E0F9D0E0F88C
:10165800EB2FFBEA3EFAE93DF9E83CF89020A1B10E
:10166800AB120120EF2454FFEE340B120EC0E47BC2
:10167800A87A16F9F81203C6CBEFCB9020A0E01495
:10168800606314601B24FE600C24FC707DE4F5FF8D
:1016980075CE318006E4F5FF75CE21F5FF8BCF229C
:1016A800E4FAE4F5FFEA2440F5CEE4F5FFEAFFC3E7
:1016B80074079FFFE49400FE74892FF58274043E3A
:1016C800F583E4122190C39DF5CFE4F5FFEA2448A1
:1016D800F5CEE4F5FFEA9004891221902DF5CF0AA2
:1016E800EAB408BE22E4F5FF75CE01F5FF8BCFF50D
:1016F800FF75CE0EF5FFEB25E0F5CFE4F5FF75CECF
:101708000FF5FFEB75F003A4F5CF227B64FAF9F827
:101718000201209020A5E0FBA3E0FAA3E0F92275DE
:10172800FF03AF93EF75F010A4FF22F127AD94EFFC
:101738004DF19D8FF0120101E591C330E701D322ED
:10174800E4F5FF758EC8E4F5FF75C2E17F1EF16907
:1017580030E707E4F5FF75C2A122E4F5FF75C28101
:1017680022FE917690120EE022E4FFE5F754C06065
:1017780002801675FF01E5D530E30DB1A450F4F1F0
:1017880091EF60EFB1A450EB22F1B7AFD92275FF0A
:101798000153D8EF2224FBFFE5F034FF2275FF0345
:1017A800E59120E7FB227F3FFE120F47020F4075AD
:1017B800FF01E4F5EA75EAFF2275FF03759580904D
:1017C800120DE0D3940122EF24FE700CE4F5FF75AE
:1017D800CE11F5FFAF058FCF2275FF018FDA227585
:1017E800FF0143D81022EFF0A3EDF0A3EBF0229015
:1017F800120F80F29012127401F07E127F00E4FD45
:10180800EF2DF582E43EF583E0FC901212E02CF017
:101818000DEDB412EB227B017A2079AF9020AC3128
:101828004F7F017C127D00E4FEED2EF582E43CF54D
:1018380083E02FFF0EEEB412F0901212E06F600AF0
:101848009020AC12171EE4120078229020AF740189
:10185800F0E49020B1F0E5F454077002C322E5FAF1
:1018680030E1FB75FF01E5D530E702D32212179668
:10187800E5D530E61C75FF019020B0E5DAF0E4F517
:10188800DA111E75FF01E5D630E3FB9020B1740133
:10189800F051BDE59B30E7FBE4FB75FF038B951228
:1018A8000CFBFF120EC80BEBB403EF75FF03759525
:1018B800801217489020B1E0700A7FC81217B01143
:1018C8001E1217A57A2079AF11EDB401031217E79C
:1018D80075FF019020B0E0F5DA9020AFE0B4010385
:1018E800D38001C3227B0111F690120DE022C202BF
:1018F80075FF03759B1F75FF0390120EE0FF20E72D
:101908001BE59A540FC394024012EF4480F0E4F5AB
:10191800FF75C2A143FC0475FF03D202E5FC30E663
:1019280009E59A540FC3940540CCE5FC30E611E470
:1019380012007875FC80F5FC75FC40E5FC20E6FBA0
:101948003002031217FC22EBF0A3EAF0A3E9F0221D
:10195800902064314F90206A1202C9000000019063
:10196800206E7401F0F5FFE5D554C0700451A850FD
:1019780002C322E4F5FF53967F75FF0175D5041263
:1019880017AE1217A575FF0143D508E4F5FF539468
:10199800FBF5FF53847FF5FF7598FF902068E5F409
:1019A800F075F49C75FF01A3E5E4F075E4257B016F
:1019B8007A20796E112490206EE0640160024187DC
:1019C800F5FF9020677414F090206A120D09FF78D3
:1019D8000112029290206A1202BDE5A730E1FB4392
:1019E800A70290206A120D09FFE5A730E005E47B05
:1019F800018002E4FBFAF9F8EF4BFFEE4AFEED49ED
:101A0800FDEC48FC90206A1202BD902067E014F0BB
:101A180070B690206A120D09FF781012027F7B6D54
:101A28007A4E79C67841120120EF2439FFEE34301E
:101A3800120EC0E4FBFA7901F81201ABEE547FFEF6
:101A4800E4FDFC51B090206A120D09FFEB6FFFEA2C
:101A58006EFEE8CDEFCDCCEECCECFF9020641217F3
:101A68001EEF12007890206412171E900001ED12EC
:101A7800008A90120EE030E606E4F5FF7596807550
:101A8800FF01E4F5D5902068E0F5F475FF01A3E0C7
:101A9800F5E451CA90206EE0B40103D38001C3225B
:101AA800E5F4C330E701D322C8ECC8C9EDC9CAEED2
:101AB800CACBEFCB2275FF03759B0475FC4175FFFC
:101AC8000322E4F5FF7584E6F5FF439404F5FF75FA
:101AD800981422E4F5FFF59375FF03759A4051CAEF
:101AE800E4F5FF759C93F5FF75A1A3F5FF758531A6
:101AF800F5FF758628E5FA54304480F5FA75FF013C
:101B080075E74A75FF0275DF4975FF0143D3047510
:101B1800FF0153D367E4F5FF53E6BF75FF0175D89E
:101B280025F5FF75B503F5FF75B215F5FF75BA0212
:101B3800F5FF75AFB3F5FF75CD0AF5FF75CB08F561
:101B4800FF75CA12F5FF75BF0EF5FF75CC96F5FF48
:101B5800F5BDF5FF75C281F5FF75AEE1F5FF75DAE4
:101B680055F5FF75F580F5FF75E903F5FF75E93360
:101B7800F5FF75972A75FF01759B42759CA4759DA5
:101B880029759E48759F2475A11275A312759AF838
:101B980020050CF5FF43968090120EE04440F02299
:101BA80090203A1202BDE4F5FF75BB0575BB85753B
:101BB800FF0175D5022003091217AE1217A51217D7
:101BC8004E75FF0143D5203003028177E4F5FF53BA
:101BD8008EF7438E077D04E4F5FF8DBCF5FF43B116
:101BE80002E5B130E2FBE4F5FFAFDFEFFEACDEEC7F
:101BF800FBEBFFED25E02438F582E43420F583EE95
:101C0800F0A3EFF0E4F5FFF5FF53B1FD0DEDB40CD3
:101C1800C690203A120D09FF780912027FA3EEF050
:101C2800A3EFF0E4FDED25E02442F582E43420F54D
:101C380083E0C313FAA3E013FB9191919E2BFFEE6F
:101C48003AFE9191EEF0A3EFF0ED240490120CF01F
:101C5800EDC394075019CFEDCF0DEF9192E0FEA39D
:101C6800E0FFC390203FE09F90203EE09E50B6E406
:101C7800F5FF758EC8F5FF90120CE0F5BCE4F5FF92
:101C880075BB8075FF01F5D522ED25E02440F5826E
:101C9800E43420F58322E0C313FEA3E0132290204E
:101CA800A8EEF0A31217EEB124AC00AD01AE02AF5E
:101CB80003C006C0079020A8919EFBAA06E4F9F885
:101CC800D007D006D31202587E0050047F0180024C
:101CD8007F00C006C007B124D0E02FFFD0E03E90BF
:101CE80020A8F0A3EFF053ECFC9020A8E0FCA3E0C0
:101CF800FDEC540342EC75FF02EDF5AF75ED02758E
:101D0800ED04A3E0600543EC08800353ECF7902052
:101D1800ABE0600443EC042253ECFB229020A8E0E3
:101D2800FEA3E0FBAA06E4F9F87F807E387D01FC7B
:101D38000203C671A8E4F5FFE5BD54F84404F5BDF7
:101D480022EF30E00E43F401E4F5FF43A404F5FF6D
:101D5800759624EF30E10E43F401E4F5FF43A4083F
:101D6800F5FF759624EF30E20943F402E4F5FF75B8
:101D7800961EEF30E30943F404E4F5FF75961075F9
:101D8800FF01EF5403600475D7122275D72D22CCBA
:101D9800EFCCCFEDCF74017E00C8EFC8088005C333
:101DA80033CE33CED8F9FFCDECCDEF5D601B3004D8
:101DB8001875FF0175DCAD75FF0175DDCDE4F5FF24
:101DC800759A74F5FF7594842275FF0175DC537557
:101DD800FF0175DD33E4F5FF759A14F5FF7594047A
:101DE8002275FF0175E46575FF0175D64722E5FA8E
:101DF8005430FFBF30037F0822E5FA5430FFBF207C
:101E0800037F0422E5FA5430FFBF10037F0222E566
:101E1800FA54307F0070027F012275FF01E5D5304A
:101E2800E602C32253FACFEFB4080543FA30801212
:101E3800EFB4040543FA208009EFB4020543FA1011
:101E48008000D322E5F45418131313541FFF22E51E
:101E5800F75406FFBF06037F0822E5F75406FFBFC5
:101E680004037F0422E5F75406FFBF02037F022222
:101E78007F0122E5F720E008E5F754C070F5FF225E
:101E880043F701AFF92275FF01E5D520E602C32229
:101E9800E5FA540360FA75FF018FC3D322CEEFCE63
:101EA80075FF01E5D520E602C32243FA04E4FDEDFF
:101EB800C39E50077F55D18E0D80F4E5FA543070DB
:101EC800047F0F80027FF0D18ED322E5F754E024FF
:101ED800FF22E5F71322E5F754C024FF22EF60073D
:101EE80075FF0243E6102275FF0253E6EF2275EDF7
:101EF800042275ED0222E5ED30E2FB75ED04AFEF4B
:101F0800228FEF22FFF12BE5ED20E0FB8FEF2290EF
:101F180020BCEFF0E0C4540FF10C9020BCE0FFF1BE
:101F28002B80E4EF540FFFD39409EF50042430FFC3
:101F3800222437FF229020BBEFF075F00A84F10CC1
:101F48009020BBE075F00A84AFF0F12B80B97F0DCB
:101F5800F10F7F0A80B1122070F156E4902076F0DC
:101F6800902075E0FFA3E0FEC39F502690207212D8
:101F7800204E12004BFFF117902076E0540FFFBF60
:101F88000F04F15680047F20F10F902076E004F0D2
:101F980080CE902076E0540F6002F1562290208582
:101FA80012031A90208BE0C4540FF1D2F1C412002E
:101FB8008A90208BE0F1D2F1C402008AFF9020853C
:101FC8001202FA8F82758300E422FFF12B90208899
:101FD8001202FA7401120027FE9020851202FA8E6E
:101FE80082758300EF12008A9020881202FA740129
:101FF800020027EF600443EC042253ECFB22EF605D
:102008000443EC082253ECF722E5ED5402FF22E5E5
:10201800ED5404FF22E5ED5401FF2290208C1203B9
:102028001A902092E0FF90208F121FF3FE90208CD0
:10203800114EEF12008A90208F121FF3FF90208C10
:10204800121FC802008A1202FA8E8275830022903B
:1020580020B8EEF0A3EFF09020B8E0FF121F179021
:1020680020B8A3E0FF021F179020B512031A902092
:10207800B51202FA12000E60139020B5E475F00153
:1020880012030312000EFF121F0F80E222E4F51A5A
:10209800F51BF51CF51D75FF0185FD1675FF0185FE
:1020A800C91775FF0185CA1875FF0185CB1922EF7D
:1020B80011BEF0020000901217F09020BD2290127D
:1020C80017E0FFF460059020BDEFF074FF11BEE04B
:1020D800FF22901217E0FE64069020BD6004EFF026
:1020E8008008EEF090121774FFF09020BDE0FF22F8
:1020F800E4F51E740D251EF8E625E0F51F051EE51E
:102108001FC313F51FE51E6515600C740D251EF819
:10211800E6251FF51F80E6AF1F220515AD0BAC0A9B
:10212800E515B40109ED25E0FDEC33FC8019E51552
:1021380024FEF53CE53CD39400400CECA2E713FCEC
:10214800ED13FD153C80ED11F8AB07ED2480E43C60
:10215800FFEB2FFF740D2515F8A60722050932900D
:1021680020571202A59020241202BD90205B120273
:10217800A59020281202BD902050E090202CF090CD
:102188002051E090202DF0229325E0FDE433FCEB74
:1021980075F010A4FFAEF01200ACCDEFCDEBFFE46C
:1021A800C313EF132225E025E02400F582E434125E
:1021B800F58322F5FFF59675FF0175D70975F418B3
:1021C80022E033333354F8F5F42275FF01438E10BF
:1021D80075FF0122902012E0FF14F0EF22902030CA
:0621E800E0FF14F0EF22FD
:00000001FF
