:020000020000FC
:100000000C945B000C947A000C947A000C947A00A7
:100010000C947A000C947A000C947A000C947A0078
:100020000C947A000C947A000C947A000C947A0068
:100030000C9475010C947A000C947A000C947A005C
:100040000C947A000C947A000C948C010C947A0035
:100050000C94FB020C947A000C947A000C947A00B5
:100060000C947A000C947A000C947A000C947A0028
:100070000C947A000C947A000C947A000C947A0018
:100080000C947A000C947A000C947A005A574156DA
:10009000455F50524F4752414D4D45525F56455274
:1000A00053494F4E5F5656495F34353233403737E8
:1000B00034303D01200011241FBECFEFD0E1DEBF60
:1000C000CDBF14E0A0E0B1E0E8E0F9E100E00BBF53
:1000D00002C007900D92AE39B107D9F71FE0AEE923
:1000E000B4E001C01D92A43AB107E1F70E945803A1
:1000F0000C94830C0C940000E0919F04F091A004F8
:1001000080819091A504892B80830000E0919F0459
:10011000F091A00480819095982390830000089529
:100120000F939093A00480939F047093A204609314
:10013000A1044093A3042093A4040093A5040F9169
:100140000895FF920F931F93F090A40410E000E035
:10015000912F990FE091A104F091A20480818F2149
:1001600019F0192F116002C0192F1E7F0E947C0008
:100170000F5F083069F789E18A95F1F7812F90E0E8
:100180001F910F91FF900895A091A304BA2FB095ED
:100190005091A504452F409520E030E0682F70E095
:1001A00080E890E0022E02C0959587950A94E2F7C8
:1001B00086239723E0919F04F091A004892B19F0E6
:1001C00080818A2B02C080818B238083E0919F04F1
:1001D000F091A0048081842380830000E0919F043B
:1001E000F091A0048081852B808300002F5F3F4F1A
:1001F00028303105A9F6E0919F04F091A004808198
:100200004823408389E18A95F1F70895A0E0B0E0A2
:10021000ECE0F1E00C94540CD090A304AD2CA0942D
:10022000B090A4040091A504C02EC09410E0C0E0DA
:10023000D0E0E82EFF2480E890E00C2E02C09595D7
:1002400087950A94E2F78E219F21E0919F04F09117
:10025000A004892B19F080818D2902C080818A2118
:100260008083912F990FE091A104F091A2048081E5
:100270008B2119F0192F116002C0192F1E7F809158
:100280009E048823A9F0E0919F04F091A00480814E
:10029000802B80839BE7892F8A95F1F7E0919F045B
:1002A000F091A00480818C2180839A95F1F702C09F
:1002B0000E947C002196C830D10509F0BCCF809106
:1002C0009E04882341F090E08BE78A95F1F79F5FC9
:1002D000903221F0F9CF89E18A95F1F7812F90E0F2
:1002E000EAE0CDB7DEB70C94700C1F920F920FB6F8
:1002F0000F9211248F939F938091A6049091A7044D
:1003000001969093A7048093A6049F918F910F90DC
:100310000FBE0F901F9018951F920F920FB60F925D
:1003200011242F938F939F93EF93FF938091DD047C
:100330009091DE04809710F580916105909162059F
:100340002CB1FC01E554FB4F20830196909362058C
:10035000809361058091610590916205809720F0FE
:1003600010926205109261058091DD049091DE0487
:1003700001969093DE048093DD0401C08CB1FF915F
:10038000EF919F918F912F910F900FBE0F901F9023
:1003900018958091DD049091DE0490E0089580919D
:1003A000B9049091BA04FC01E554FB4FE081019639
:1003B0009093BA048093B9048091DD049091DE0497
:1003C000892B59F0F8948091DD049091DE04019717
:1003D0009093DE048093DD0478948091B904909129
:1003E000BA04809720F01092BA041092B9048E2FAC
:1003F00090E00895F8941092A7041092A6047894BF
:1004000008958091A6049091A7040895282F80E074
:1004100092E10E94380C61507040222379F01092D2
:1004200098006093990080919A00886180939A0067
:1004300080919D00866080939D00089510929000A9
:1004400069B98AB188618AB9809195008660809384
:1004500095000895F89480E094E29BBD8ABD1DBC90
:100460001CBC8AE08EBD87B7806187BF1092A7044D
:100470001092A60460E874E080E00E9406028AB14F
:10048000806C8AB98BB18F738BB91092E004109293
:10049000DF048091DF049091E0049093DE04809368
:1004A000DD048091DD049091DE04909364058093D7
:1004B000630580916305909164059093DC048093BB
:1004C000DB048091DB049091DC049093BA04809368
:1004D000B9048091B9049091BA0490936205809315
:1004E00061051092B80478940895FC01808190E031
:1004F00002C0959587956A95E2F78170907008958E
:10050000FC01DB01808190E0042E02C09595879567
:100510000A94E2F780FFF6CF8C9190E00895FC01F9
:10052000808190E002C0959587956A95E2F7809565
:10053000817090E008950F931F93182FFB01DA014B
:10054000422F202F808190E0022E02C09595879542
:100550000A94E2F780FFF6CF208181E090E002C0AC
:10056000880F991F4A95E2F7282B20831C931F912F
:100570000F9108950F93382F8091DF049091E0043C
:1005800080389105C8F78091B80480FF19C0809128
:10059000DB049091DC04FC01EF51FB4F30830196AA
:1005A0009093DC048093DB04F8948091DF049091B5
:1005B000E00401969093E0048093DF0478940EC0E9
:1005C00005E026E04CE250E06BE270E0832F0E94F1
:1005D0009B028091B80481608093B8048091DB0411
:1005E0009091DC048038910520F01092DC04109288
:1005F000DB040F9108951F920F920FB60F921124F2
:100600002F938F939F93EF93FF938091DF049091AB
:10061000E004892B19F18091630590916405FC0138
:10062000EF51FB4F20812CB9019690936405809384
:1006300063058091DF049091E00401979093E004BA
:100640008093DF0480916305909164058038910563
:1006500050F0109264051092630505C08091B804B3
:100660008E7F8093B804F8941092A7041092A60489
:100670007894FF91EF919F918F912F910F900FBEE2
:100680000F901F90189524E130E0A901849F9001FC
:10069000859F300D949F300D112403C08BE78A9500
:1006A000F1F7215030405FEF2F3F3507B9F708953C
:1006B000F89488E10FB6F89481BD11BC0FBE789410
:1006C0008FEF809361008091610082B982B181BB1C
:1006D00081B381BB81B384BB84B387BB87B38ABB3F
:1006E0008FEF809362008091620083B983B182BBF7
:1006F00082B385BB85B388BB88B38BBB84E690E0AF
:100700000E944303109262008091620083B983B11A
:1007100082BB82B385BB85B388BB88B38BBB84E6C1
:1007200090E00E944303DCCF1F93982F162F8091F7
:10073000820B8250823060F48CEA0E94060180ECC9
:100740000E9406018091830B0E94060180E00FC089
:10075000953019F080E390E00EC08BE00E94060116
:10076000812F0E9406018FEF0E9406018FEF0E94E9
:10077000060181E390E01F9108951F93182F8CEAE2
:100780000E9406018DE50E94060180E00E9406019C
:10079000812F0E9406011F9108950F931F9397E2E6
:1007A00003C080E08A95F1F79150D8F78DE58A95DE
:1007B000F1F700E08CEA0E94060183E50E94060141
:1007C0008AEA0E940601182F85E50E94060113356A
:1007D00019F4802F90E00FC00F5F83E08A95F1F746
:1007E000949A00009498000083E08A95F1F7003213
:1007F00009F780E290E01F910F910895982F8250A1
:10080000843078F4979880910001882311F4C49A79
:10081000C49888EC90E00E9443030E94CD0390E0CE
:100820000895913019F08FEF90E00895979A909184
:100830000001992309F4C49A83E08A95F1F799237A
:1008400009F4C4980000992309F4C49A97980E9467
:10085000CD0390E008950F93BD98C59A9198949810
:10086000899A8C9A00E120E242E060E370E082E342
:1008700090E00E94900082E00E94FE03282F8032C8
:1008800020F081E00E94FE03282F20936A0580E07B
:1008900090E0203210F481E090E00F910895982FBD
:1008A0009A01452B11F46BEA74E08091A9048F5FE3
:1008B0008093A904FB01E20FF31F80832F5F3F4F5A
:1008C000AB0160E0892F0E948B0481E08093AA0431
:1008D000A89508959A01452B11F46BEA74E0FB0189
:1008E000E20FF31F10822F5F3F4FAB0161E00E94C8
:1008F0008B0481E08093AA04A89508950E94C90101
:1009000090E008951092910F1092900F10927D0B2D
:100910000E942A020895EF92FF920F931F93CF93A4
:10092000DF934115510561F05093B2044093B10437
:100930003093AF042093AE048093B4046093B30467
:1009400081E00E94BA028091AE049091AF040496B7
:10095000892F99270E94BA028091AE048C5F0E9471
:10096000BA020091AE041091AF040C5F1F4FE12E4C
:10097000FF2404501040E0940C5F0093B004809179
:10098000B3040E94BA021091B3048091B4040E948F
:10099000BA028091B404182710271E25C0E0D0E0C9
:1009A0000EC0EC0FFD1F80810E94BA02E091B104DD
:1009B000F091B204EC0FFD1F808118272196E09181
:1009C000B104F091B204309739F08091AE04909167
:1009D000AF04C817D90728F3812F0E94BA020E94DA
:1009E000FA018091B80488608093B804E6E0CDB73E
:1009F000DEB70C94740C0F931F93082F0E94C9014B
:100A0000882309F4B1C00E94CF01182F80917D0B7B
:100A1000853048F4833008F06CC0813059F1823061
:100A200008F041C008C0853009F466C0863009F47A
:100A300086C010E093C0113079F410937D0B8FEFD6
:100A400080937C0B1092910F1092900F8091B804BC
:100A500082608093B804B8C08091B80483FFB8C0A6
:100A6000163009F0B5C08091B804877F8093B80430
:100A700012E0AFC00E94FA0180917D0B8F5F8093DE
:100A80007D0B8091900F9091910FFC01E258F44FF3
:100A9000108301969093910F8093900F812F90E097
:100AA000982F88271CC00E94FA0180917D0B8F5FD0
:100AB00080937D0B8091900F9091910FFC01E258F3
:100AC000F44F108301969093910F8093900F212FF4
:100AD00030E08091AC049091AD04822B932B9093E5
:100AE000AD048093AC0480917C0B812780937C0BB8
:100AF0006DC08F5F80937D0B0E94FA012091900F53
:100B00003091910FF901E258F44F10832F5F3F4F5E
:100B10003093910F2093900F80917C0B81278093CD
:100B20007C0B8091AC049091AD042817390708F430
:100B30004DC080917D0B8F5F80937D0B47C000235C
:100B400039F080917C0B181729F486E00E94BA02D4
:100B500011E004C085E10E94BA0213E010927D0BFF
:100B60008091B8048D7F2DC08091B80481FD04C0B0
:100B70008091B80483FF28C0F8940E940102789401
:100B80008436910518F110927D0B8091B804846031
:100B90008093B8048091B80481FF02C014E001C0C2
:100BA00015E00E94FA018091B804877F8093B80411
:100BB0009091B8049695969592708091B8048D7F27
:100BC000892B8093B80405C00E94FA0110E001C08F
:100BD00016E0812F90E01F910F910895FC01609322
:100BE0006800C895802D90E008958091B504882311
:100BF00019F480E090E00895E091920FF091930F46
:100C0000099590E00895A3E0B0E0E9E0F6E00C94E7
:100C10005C0C69837A838B838091B504882319F4F3
:100C200080E090E009C0E091940FF091950F698108
:100C30007A818B81099590E0E2E023960C94780C00
:100C4000A3E0B0E0E6E2F6E00C945C0C69837A8302
:100C50008B838091B504882331F0E091960FF09159
:100C6000970F8B810995E2E023960C94780CA3E012
:100C7000B0E0EDE3F6E00C945C0C69837A838B833F
:100C80008091B504882331F0E091980FF091990F8D
:100C90008B810995E2E023960C94780CA3E0B0E0F8
:100CA000E4E5F6E00C945C0C69837A838B83809195
:100CB000B504882331F0E0919A0FF0919B0F8B815E
:100CC0000995E2E023960C94780CA3E0B0E0EBE603
:100CD000F6E00C945C0C69837A838B838091B50475
:100CE000882331F0E0919C0FF0919D0F8B81099545
:100CF000E2E023960C94780C1F93CF93DF93EC01E2
:100D0000162F1092B5040E94CA0B9B01AC0161150D
:100D100071058105910509F18DE799E09093930F95
:100D20008093920F81EE9AE09093950F8093940FA9
:100D30008AE69BE09093970F8093960F80E29BE06A
:100D40009093990F8093980F86EC9AE090939B0F65
:100D500080939A0F89EA9AE026C0612FCE010E9403
:100D6000E0069B01AC018BE197E09093930F809399
:100D7000920F8BE798E09093950F8093940F8CEFF0
:100D800098E09093970F8093960F86EB98E090935E
:100D9000990F8093980F80E698E090939B0F809333
:100DA0009A0F83E498E090939D0F80939C0F81E0CD
:100DB0008093B504CA01B901DF91CF911F910895C5
:100DC0000F939093A00F80939F0F60939E0F00E16D
:100DD00020E242E060E370E082E390E00E94900055
:100DE00060E070E080E091E00F9108951F93E09142
:100DF0009F0FF091A00F908180919E0F8095892385
:100E0000808319E1812F8A95F1F785E00E94C40063
:100E10000E94A100912F9A95F1F7E0919F0FF09118
:100E2000A00F908120919E0F922B90831A95F1F73D
:100E300090E01F9108958091B604882319F480E012
:100E400090E008950E94F60680FF03C081E090E0E4
:100E500008951092B60480E090E00895A3E0B0E019
:100E6000E4E3F7E00C94540C69837A838B836A0182
:100E70007901A02EB82E072F0E941B078823E1F7C7
:100E800081E08093B604E0919F0FF091A00F9081D4
:100E900080919E0F80958923808319E1812F8A9507
:100EA000F1F786E00E94C400812F8A95F1F7E09166
:100EB0009F0FF091A00F808190919E0F892B8083CE
:100EC000812F8A95F1F7E0919F0FF091A00F80811B
:100ED0009095982390831A95F1F782E00E94C400C0
:100EE000802F0E94C4008B2D08C0C114D10421F0B2
:100EF000F60181916F0101C08A2D0E94C4000894FF
:100F0000E108F108FFEFEF16FFEFFF0671F729E1A7
:100F1000822F8A95F1F7E0919F0FF091A00F8081C9
:100F200090919E0F892B80832A95F1F7EAE0239612
:100F30000C94700CA7E0B0E0E0EAF7E00C944C0CE5
:100F400069837A838B835D834C833F832E83102F49
:100F5000862F90E0A0E0B0E04C0177246624872F34
:100F600090E0A0E0B0E0BA2FA92F982F8827680E54
:100F7000791E8A1E9B1E8B81680E711C811C911C20
:100F8000A40193012F71307040705070211531050C
:100F90004105510509F46FC060E2262E312C412C29
:100FA000512C6E817F81CB01A0E0B0E0221A330A80
:100FB000440A550A82159305A405B50510F41C01D1
:100FC0002D016B82FF24E92CD82CC72CCA82B401D6
:100FD000882799276983012F91014C815D817C2DA0
:100FE000862D0E942E078E819F81821993099F83EF
:100FF0008E83620C731C841C951C6C817D81611531
:101000007105C9F1620D731D7D836C8334C08E81BF
:101010009F81819730F020E2222E312C412C512CDF
:1010200005C06E817F811B014424552451016B82D0
:10103000FF24E92CD82CC72CCA82B4018827992711
:101040006983012F91014C815D817C2D862D0E9449
:101050002E078C819D81009721F0820D931D9D8329
:101060008C836E817F816A197B097F836E83620C1A
:10107000731C841C951C8E819F81892B41F6E2E1B3
:1010800027960C94680C0F93CF93DF93CDB7DEB700
:1010900023970FB6F894DEBF0FBECDBF69837A8366
:1010A0008B83042F40E050E00E949A0723960FB6EE
:1010B000F894DEBF0FBECDBFDF91CF910F910895A1
:1010C0000F93CF93DF93CDB7DEB723970FB6F89486
:1010D000DEBF0FBECDBF69837A838B8300E00E94A1
:1010E0009A0723960FB6F894DEBF0FBECDBFDF91EF
:1010F000CF910F910895A3E0B0E0E1E8F8E00C94FF
:10110000590C69837A838B83F82E072F0E941B0763
:101110008823E1F7E0919F0FF091A00F90818091DB
:101120009E0F80958923808319E1812F8A95F1F79D
:1011300083E00E94C400802F0E94C4008F2D0E9473
:10114000C4000E94A100912F9A95F1F7E0919F0FA2
:10115000F091A00F908120919E0F922B90831A9571
:10116000F1F790E0E5E023960C94750CA3E0B0E075
:10117000ECEBF8E00C94560C69837A838B837A014C
:101180008901C82ED72E0E941B078823E1F7E09122
:101190009F0FF091A00F908180919E0F80958923E1
:1011A000808389E18A95F1F783E00E94C4008D2D48
:1011B0000E94C4008C2D0E94C40005C00E94A100A2
:1011C000F70181937F0101501040FFEF0F3F1F0790
:1011D000A9F729E1822F8A95F1F7E0919F0FF0910D
:1011E000A00F808190919E0F892B80832A95F1F723
:1011F000E8E023960C94720CA3E0B0E0E2E0F9E0A2
:101200000C94580C69837A838B83E42EF82E072F75
:101210000E941B078823E1F781E08093B604E091E8
:101220009F0FF091A00F908180919E0F8095892350
:10123000808319E1812F8A95F1F786E00E94C4002E
:10124000812F8A95F1F7E0919F0FF091A00F808197
:1012500090919E0F892B8083812F8A95F1F7E091E1
:101260009F0FF091A00F8081909598239083812FFC
:101270008A95F1F782E00E94C400802F0E94C4008A
:101280008F2D0E94C4008E2D0E94C400812F8A954C
:10129000F1F7E0919F0FF091A00F808190919E0F48
:1012A000892B80831A95F1F7E6E023960C94740C51
:1012B0001F93E091A20FF091A30F90818091A10F55
:1012C00080958923808319E1812F8A95F1F785E044
:1012D0000E94C4000E94A100912F9A95F1F7E0911D
:1012E000A20FF091A30F90812091A10F922B9083D8
:1012F0001A95F1F790E01F9108958091B704882323
:1013000019F480E090E008950E94580980FF03C01E
:1013100081E090E008951092B70480E090E0089595
:10132000A3E0B0E0E6E9F9E00C94530C69837A831A
:101330008B836A017901902EA82EB72E062F0E946A
:101340007D098823E1F781E08093B704E091A20F43
:10135000F091A30F90818091A10F809589238083C4
:1013600019E1812F8A95F1F786E00E94C400812F50
:101370008A95F1F7E091A20FF091A30F80819091EF
:10138000A10F892B8083812F8A95F1F7E091A20F1D
:10139000F091A30F80819095982390831A95F1F78F
:1013A0008AE00E94C400802F0E94C4008B2D0E94FE
:1013B000C4008A2D08C0C114D10421F0F601819126
:1013C0006F0101C0892D0E94C4000894E108F10852
:1013D000FFEFEF16FFEFFF0671F729E1822F8A95E5
:1013E000F1F7E091A20FF091A30F80819091A10FEE
:1013F000892B80832A95F1F7EBE023960C946F0CF0
:10140000A7E0B0E0E6E0FAE00C944C0C69837A8344
:101410008B835D834C833F832E83102F862F90E038
:10142000A0E0B0E04C0177246624872F90E0A0E094
:10143000B0E0BA2FA92F982F8827680E791E8A1E30
:101440009B1E8B81680E711C811C911CA401930151
:10145000307040705070211531054105510509F477
:1014600070C0212C61E0362E412C512C6E817F8181
:10147000CB01A0E0B0E0221A330A440A550A8215D3
:101480009305A405B50510F41C012D016B82FF2402
:10149000E92CD82CC72CCA82B401882799276983E4
:1014A000012F91014C815D817C2D862D0E94900938
:1014B0008E819F81821993099F838E83620C731C96
:1014C000841C951C6C817D8161157105D1F1620DC3
:1014D000731D7D836C8335C08E819F8181509140C7
:1014E00030F0212C21E0322E412C512C05C06E8190
:1014F0007F811B014424552451016B82FF24E92C78
:10150000D82CC72CCA82B401882799276983012F58
:1015100091014C815D817C2D862D0E9490098C81EA
:101520009D81009721F0820D931D9D838C836E8198
:101530007F816A197B097F836E83620C731C841C14
:10154000951C8E819F81892B39F6E2E127960C94B8
:10155000680C0F93CF93DF93CDB7DEB723970FB609
:10156000F894DEBF0FBECDBF69837A838B83042FCF
:1015700040E050E00E94000A23960FB6F894DEBFC8
:101580000FBECDBFDF91CF910F9108950F93CF93F1
:10159000DF93CDB7DEB723970FB6F894DEBF0FBE4B
:1015A000CDBF69837A838B8300E00E94000A239673
:1015B0000FB6F894DEBF0FBECDBFDF91CF910F9174
:1015C0000895A3E0B0E0E7EEFAE00C94580C6983CC
:1015D0007A838B83E82EF72E062F0E947D098823BD
:1015E000E1F7E091A20FF091A30F90818091A10FFC
:1015F00080958923808319E1812F8A95F1F783E013
:101600000E94C400802F0E94C4008F2D0E94C4003D
:101610008E2D0E94C4000E94A100912F9A95F1F78F
:10162000E091A20FF091A30F90812091A10F922B36
:1016300090831A95F1F790E0E6E023960C94740CF1
:10164000A3E0B0E0E6E2FBE00C94550C69837A83FA
:101650008B837A018901B82EC72ED62E0E947D0970
:101660008823E1F7E091A20FF091A30F9081809180
:10167000A10F80958923808389E18A95F1F783E022
:101680000E94C4008D2D0E94C4008C2D0E94C400B5
:101690008B2D0E94C40005C00E94A100F701819318
:1016A0007F0101501040FFEF0F3F1F07A9F729E10D
:1016B000822F8A95F1F7E091A20FF091A30F80811C
:1016C0009091A10F892B80832A95F1F7E9E0239669
:1016D0000C94710CA3E0B0E0E0E7FBE00C94570C35
:1016E00069837A838B83D42EE82EF72E062F0E94EF
:1016F0007D098823E1F781E08093B704E091A20F90
:10170000F091A30F90818091A10F80958923808310
:1017100019E1812F8A95F1F786E00E94C400812F9C
:101720008A95F1F7E091A20FF091A30F808190913B
:10173000A10F892B8083812F8A95F1F7E091A20F69
:10174000F091A30F8081909598239083812F8A95A3
:10175000F1F78AE00E94C400802F0E94C4008F2D00
:101760000E94C4008E2D0E94C4008D2D0E94C400D2
:10177000812F8A95F1F7E091A20FF091A30F80815C
:101780009091A10F892B80831A95F1F7E7E02396BA
:101790000C94730C0F931F939093A30F8093A20F3D
:1017A0006093A10F00E120E242E060E370E082E399
:1017B00090E00E94900020E08BE7982F9A95F1F737
:1017C0008A95F1F72F5F2F3FB9F7E091A20FF091C3
:1017D000A30F90818091A10F80958923808389E157
:1017E0008A95F1F78FE90E94C4000E94A10080321F
:1017F00039F50E94A100803819F50E94A100182F28
:101800000E94A100082F8F3F19F41AC00E94A10066
:101810000150E0F7123159F0133119F0113119F478
:1018200004C060E405C060E003C060E101C060E2A4
:10183000462F50E060E070E050686062726004C063
:1018400040E050E060E070E029E1822F8A95F1F7F6
:10185000E091A20FF091A30F80819091A10F892BAD
:1018600080832A95F1F7CB01BA011F910F9108955A
:10187000AA1BBB1B51E107C0AA1FBB1FA617B707B6
:1018800010F0A61BB70B881F991F5A95A9F78095D2
:101890009095BC01CD0108952F923F924F925F9297
:1018A0006F927F928F929F92AF92BF92CF92DF9270
:1018B000EF92FF920F931F93CF93DF93CDB7DEB7D5
:1018C000CA1BDB0B0FB6F894DEBF0FBECDBF099469
:1018D0002A88398848885F846E847D848C849B84C0
:1018E000AA84B984C884DF80EE80FD800C811B81CE
:1018F000AA81B981CE0FD11D0FB6F894DEBF0FBEFD
:10190000CDBFED010895FFCF010202D775FF02435D
:10191000E40453E4F975FF0253E6BF1202CA12024F
:10192000AC7F001201328F08E508120363003D0707
:1019300000F92E011339008A4D00AD5600DF9A00E0
:101940005EB5000000187F701201328F097F00120F
:1019500001328F0AAF0A12018A8F0BAF0B120132CC
:10196000E50A04F51480BAAF14051412018A8F0930
:10197000AF14051412018A8F0AAF14051412018ADC
:101980008F0BAF09120132AF0A120132AF0B1201F5
:1019900032808E7FD81201328F097F001201328F80
:1019A0000AAF0A1201328F0BAD0BAF0A1201CFE55D
:1019B0000A04F51401187F671201328F09AF09126A
:1019C00001328F0AAF0A1201328F0BAF140514AD2A
:1019D000091201CFAF140514AD0A1201CFAF1405DF
:1019E00014AD0B1201CF01187FA81201328F097FAD
:1019F000001201328F0A7F001201328F0B12020E89
:101A000001187FE61201328F097F001201328F0A1E
:101A10007F001201328F0B12024A01187F921201CD
:101A2000328F097F001201328F0A7F001201328F3C
:101A30000BAF0B12028001180118228F0C750D00DC
:101A4000750E08E5A030E4047F0180027F00EF708E
:101A5000F2E50C30E70543A008800353A0F7E50C3E
:101A600025E0F50CE5A020E4047F0180027F00EF73
:101A700070F2E50D25E0F50DE5A030E2047F018070
:101A8000027F00EF6003430D01150EAF0EEF70B340
:101A9000AF0D228F1375FF01E5C420E7047F01809D
:101AA000027F00EF602F75FF018513C575FF01539D
:101AB000C4FC75FF0153C4FB75FF0143C48075FF6F
:101AC00001E5C430E7047F0180027F00EF70EF750D
:101AD000FF01AFC6227F56228F0F8D1075FF01E5E3
:101AE000C420E7047F0180027F00EF602975FF01B9
:101AF000850FC575FF018510C675FF0153C4FC75C0
:101B0000FF0143C48475FF01E5C430E7047F018011
:101B1000027F00EF70EF2275FF01E5C420E7047F2C
:101B20000180027F00EF602A75FF01E5C454FCFFCD
:101B3000EF4402F5C475FF0153C4FB75FF0143C4B4
:101B40008075FF01E5C430E7047F0180027F00EF6C
:101B500070EF2275FF01E5C420E7047F0180027F5A
:101B600000EF602475FF01E5C454FCFFEF4402F56B
:101B7000C475FF0143C48475FF01E5C430E7047FE9
:101B80000180027F00EF70EF228F1175FF01E5C425
:101B900020E7047F0180027F00EF6018751200E5E6
:101BA00012C39440500BAD11AF121201CF05128039
:101BB000EE12024A2275FF0153C4DF75FF0143C4D0
:101BC0000875FF01E5C430E7047F0180027F00EF64
:101BD00070EF2275FF0153CAF775FF0143CA142243
:101BE000787FE4F6D8FD75811402031E020003E439
:101BF00093A3F8E493A34003F68001F208DFF48096
:101C000029E493A3F85407240CC8C333C4540F44E5
:101C100020C8834004F456800146F6DFE4800B01BF
:101C200002040810204080900389E47E019360BC88
:101C3000A3FF543F30E509541FFEE493A360010E57
:101C4000CF54C025E060A840B8E493A3FAE493A37E
:101C5000F8E493A3C8C582C8CAC583CAF0A3C8C59F
:101C600082C8CAC583CADFE9DEE780BED083D082DE
:101C7000F8E4937012740193700DA3A393F87401A8
:101C800093F5828883E4737402936860EFA3A3A33F
:101C900080DF0114000000000000000000008D0340
:061CA00000008D030000AE
:020000021000EC
:10F000000C945BF80C947AF80C947AF80C947AF8D7
:10F010000C947AF80C947AF80C947AF80C947AF8A8
:10F020000C947AF80C947AF80C947AF80C947AF898
:10F030000C9497FC0C947AF80C947AF80C947AF867
:10F040000C947AF80C947AF80C94AEFC0C947AF840
:10F050000C9425FD0C947AF80C947AF80C947AF8B8
:10F060000C947AF80C947AF80C947AF80C947AF858
:10F070000C947AF80C947AF80C947AF80C947AF848
:10F080000C947AF80C947AF80C947AF85A57415602
:10F09000455F50524F4752414D4D45525F56455284
:10F0A00053494F4E5F5656495F34353233403737F8
:10F0B00034303D01200011241FBECFEFD0E1DEBF70
:10F0C000CDBF11E0A0E0B1E0EAE8FDEF01E00BBF49
:10F0D00002C007900D92A030B107D9F719E0A0E067
:10F0E000B1E001C01D92AB3EB107E1F70E94CEF93D
:10F0F0000C94C4FE0C9400F8A0E0B0E0E2E8F8EF55
:10F100000C9493FE982E5B01A9018FB6F894209180
:10F1100011012095809113019091120189279091FE
:10F1200014018927909115018927821709F065C07C
:10F13000E199FECF4A9DC0014B9D900D5A9D900DC7
:10F1400011247C0100E010E0F1E3CF2EF5E0DF2E8A
:10F15000B801A701D501E6018881298191E030E05D
:10F16000322F2227280F311D0901FA0160935B001D
:10F1700090936800E89511244E5F5F4F6F4F7F4F6B
:10F1800012972296109741F785E0F70100935B00F4
:10F1900080936800E8958091680080FDFCCF81E154
:10F1A00080936800E895992019F1B50108C082E0C4
:10F1B00090E0A0E0B0E0E80EF91E0A1F1B1FD60188
:10F1C0008C91F60121810BBFF7014791569130E0F8
:10F1D000322F2227280F311D2417350789F462505A
:10F1E000704082E090E0C80ED91E61157105F9F6F5
:10F1F00081E390E08FBE789406C080E390E003C086
:10F2000080E390E0F7CFECE0CDB7DEB70C94AFFE33
:10F21000982F9A01452B11F465E071E0809102016D
:10F220008F5F80930201FB01E20FF31F80832F5F4A
:10F230003F4FAB0160E0892F0E9420FB81E080936B
:10F2400000010895982F9A01452B11F465E071E0B3
:10F25000FB01E20FF31F8091010180832F5F3F4F7D
:10F26000AB0161E0892F0E9420FB81E080930001C7
:10F270000895CF93DF939C01CA01829FA001839FD1
:10F28000500D929F500D1124E199FECF60E070E087
:10F29000A6E1B1E0C0E0D0E06BBFFA0187919691A2
:10F2A0008C93892F9927FD01818322964E5F5F4FB2
:10F2B0006F4F7F4F2250304012962115310561F774
:10F2C000AE0166E171E080912D050E9422F9DF9187
:10F2D000CF910895DF92EF92FF920F931F93D090FA
:10F2E00011019D2D9095B0911201A0911301709183
:10F2F0001401609115018A2F8B278727862789178C
:10F3000029F080EF80931601A99830C09FB7F89438
:10F31000EE24FF24870120E030E040E050E083E06D
:10F32000F90140935B0080936800E8958091680044
:10F3300080FDFCCF20E031E040E050E0E20EF31E23
:10F34000041F151FA801970180E0E81680EEF8065B
:10F3500081E0080780E0180711F781E180936800D9
:10F36000E8958DE0809316019FBF7894D0921701A5
:10F37000B0931801A093190170931A0160931B01B7
:10F3800046E050E066E171E080912D050E9422F98F
:10F390001F910F91FF90EF90DF9008951F93CF93EF
:10F3A000DF93F89488E10FB6F89481BD11BC0FBECD
:10F3B000789481E085BF82E085BFBC9A97988F9A48
:10F3C00084B7806884BF84BF80916200806180932D
:10F3D0006200809161008061809361008C989498B4
:10F3E000899891988D989598BD98C59A14981C9A6B
:10F3F000BC98C49AA09AA19AA29AA39AB99AC19ABF
:10F40000A89AA99AAA9AAB9AD098D898D198D9983C
:10F41000D298DA98D398DB98D498DC98D598DD9870
:10F420000E9417FB1092000110920101109202013C
:10F43000AB98C6E1D1E081E00E9499FB8130D1F127
:10F44000882329F480910301843209F4D6C02091E5
:10F4500000012130A1F1213070F32230D1F7E09189
:10F460002A05F0E0FE2FEE2780912B0590E0E82B97
:10F47000F92BE75DFA4FE08180910101E81799F0DF
:10F48000E0930101C19A10912D05143209F45CC07A
:10F490001532F8F4183109F486C0193109F471C035
:10F4A000163109F469C01092000181E00E9499FBB5
:10F4B000813031F622E020930001213061F680E0B6
:10F4C0000E9499FB882319F2109204011092000106
:10F4D000B2CF1732C9F0133581F0153221F780EF22
:10F4E000809316012093170142E050E0BE0185E2AF
:10F4F0000E9422F920910001ACCF80912E05882333
:10F5000009F06EC0A998CFCF80912E05809311018C
:10F5100080912F0580931201809130058093130113
:10F5200080913105809314018091320580931501FB
:10F530008DE08093160141E050E0BE0187E20E9419
:10F5400022F92091000185CF109211011092120131
:10F550001092130110921401109215018DE0809306
:10F56000170141E050E0BE0184E20E9422F91093AD
:10F570000301209100016DCF0E946AF920910001E2
:10F5800068CF40912E0550E0542F442780912F05DD
:10F5900090E0482B592B66E480E091E00E9439F915
:10F5A0002091000156CF20912E0530E0322F2227E6
:10F5B00080912F0590E0282B392B46E460E071E024
:10F5C000809130050E947CF88093160141E050E064
:10F5D000BE0180912D050E9422F92091000139CFB2
:10F5E000823029F0813009F05ECFAB985CCF8091FA
:10F5F0002F058823B1F0AA9856CF8C9894988998B3
:10F6000091988D98959ABD98C59A14981C9A88E1FE
:10F6100090E028E00FB6F894A89581BD0FBE21BDFB
:10F62000FFCFAA9A40CF0E94EDFC90E0089510927F
:10F630003D0910923C09109229050E94A0FD0895F1
:10F64000EF92FF920F931F93CF93DF9341155105D4
:10F6500061F050930C0140930B013093090120930A
:10F66000080180930E0160930D0181E00E9430FE3D
:10F6700080910801909109010496892F99270E9491
:10F6800030FE809108018C5F0E9430FE00910801DD
:10F69000109109010C5F1F4FE12EFF240450104010
:10F6A000E0940C5F00930A0180910D010E9430FEEE
:10F6B00010910D0180910E010E9430FE80910E018B
:10F6C000182710271E25A0910B01B0910C0110974F
:10F6D00009F18091080190910901892BD9F0C0E0CE
:10F6E000D0E008C021968091080190910901C817C7
:10F6F000D90780F4AC0FBD1F8C910E9430FEA09101
:10F700000B01B0910C01FD01EC0FFD1F808118274A
:10F71000109741F7812F0E9430FE0E941EFD8091BC
:10F720003E09886080933E09E6E0CDB7DEB70C94D1
:10F73000B5FE0F931F93182F0E94EDFC882309F04C
:10F740005FC080913E0981FD04C080913E0983FF26
:10F750009AC0F8940E9477FD78948436910508F455
:10F760004CC01092290580913E09846080933E0927
:10F7700080913E0981FD5BC015E00E941EFD8091D5
:10F780003E09877F80933E0990913E099695969514
:10F79000927080913E098D7F892B80933E09812F45
:10F7A00090E0C2C0813009F47CC0823008F46EC0A1
:10F7B0000E941EFD809129058F5F8093290580910D
:10F7C0003C0990913D09FC01E65DFA4F00830196EA
:10F7D00090933D0980933C09202F30E080910601F1
:10F7E00090910701822B932B909307018093060140
:10F7F0008091280580278093280580E090E094C0C0
:10F800000E94F3FC082F80912905853090F0853007
:10F81000B1F0863009F45EC090E010922905809125
:10F820003E098D7F80933E09892F90E07DC014E0D2
:10F83000A4CF833008F4B6CF8F5F809329050E9450
:10F840001EFD20913C0930913D09F901E65DFA4F1A
:10F8500000832F5F3F4F30933D0920933C098091F7
:10F860002805802780932805809106019091070143
:10F870002817390710F2809129058F5F8093290599
:10F8800080E090E051C00E941EFDB7CF0130D1F161
:10F8900080913E0983FF02C0063061F186E090E06E
:10F8A00043C00E941EFD809129058F5F809329052A
:10F8B00080913C0990913D09FC01E65DFA4F00837F
:10F8C000019690933D0980933C09802F90E0982FFA
:10F8D00088278ACF112361F080912805081729F025
:10F8E00085E10E9430FE93E098CF86E00E9430FED2
:10F8F00091E093CF80913E09877F80933E0982E01B
:10F9000090E012C0009329058FEF80932805109294
:10F910003D0910923C0980913E09826080933E0926
:10F920000E941EFD80E090E01F910F9108951F92AC
:10F930000F920FB60F9211248F939F9380910F0116
:10F940009091100101969093100180930F019F9167
:10F950008F910F900FBE0F901F9018951F920F92CE
:10F960000FB60F9211242F938F939F93EF93FF93D2
:10F9700080916309909164098097F0F48091E70980
:10F980009091E8092CB1FC01EF5BF64F20830196C2
:10F990009093E8098093E7098091E7099091E8093D
:10F9A000809760F480916309909164090196909327
:10F9B00064098093630907C08CB105C01092E809FF
:10F9C0001092E709EFCFFF91EF919F918F912F91C7
:10F9D0000F900FBE0F901F90189580916309909122
:10F9E000640990E0089580913F0990914009FC01DD
:10F9F000EF5BF64FE08101969093400980933F09B9
:10FA00008091630990916409892B59F0F894809151
:10FA10006309909164090197909364098093630945
:10FA2000789480913F0990914009809720F010923E
:10FA3000400910923F098E2F90E00895F89410929B
:10FA4000100110920F01789408951F920F920FB633
:10FA50000F9211242F933F934F935F936F937F9354
:10FA60008F939F93AF93BF93EF93FF93809165091B
:10FA700090916609892B19F18091E9099091EA0921
:10FA8000FC01E959F64F20812CB901969093EA09BF
:10FA90008093E90980916509909166090197909397
:10FAA0006609809365098091E9099091EA09803897
:10FAB000910550F01092EA091092E90905C0809171
:10FAC0003E098E7F80933E090E941EFDFF91EF91BB
:10FAD000BF91AF919F918F917F916F915F914F9166
:10FAE0003F912F910F900FBE0F901F90189580910E
:10FAF0000F01909110010895282F80E092E10E945B
:10FB000079FE61507040222379F010929800609342
:10FB1000990080919A00886180939A0080919D005D
:10FB2000866080939D0008951092900069B98AB113
:10FB300088618AB9809195008660809395000895C8
:10FB4000F89480E094E29BBD8ABD1DBC1CBC8AE099
:10FB50008EBD87B7806187BF1092100110920F0190
:10FB600060E874E080E00E947CFD8AB1806C8AB914
:10FB70008BB18F738BB910926609109265098091D1
:10FB80006509909166099093640980936309809157
:10FB90006309909164099093EA098093E90980913F
:10FBA000E9099091EA099093620980936109809133
:10FBB0006109909162099093400980933F09809177
:10FBC0003F09909140099093E8098093E7091092CA
:10FBD0003E0978940895FC01808190E002C09595DB
:10FBE00087956A95E2F7817090700895FC01DB01BA
:10FBF000808190E0042E02C0959587950A94E2F7E3
:10FC000080FFF6CF8C9190E00895FC01808190E018
:10FC100002C0959587956A95E2F78095817090E08E
:10FC200008950F931F93182FFB01DA01422F202F05
:10FC3000808190E0022E02C0959587950A94E2F7A4
:10FC400080FFF6CF208181E090E002C0880F991FED
:10FC50004A95E2F7282B20831C931F910F9108955A
:10FC60000F93382F8091650990916609803891052E
:10FC7000C8F780913E0980FF24C08091610990916E
:10FC80006209FC01E959F64F3083019690936209AD
:10FC900080936109F89480916509909166090196B5
:10FCA0009093660980936509789480916109909199
:10FCB000620980389105A0F01092620910926109E2
:10FCC0000FC005E026E04CE250E06BE270E0832FCD
:10FCD0000E9411FE80913E09816080933E09E5CF2C
:10FCE0000F910895FC0160936800C895802D90E005
:10FCF0000895AA1BBB1B51E107C0AA1FBB1FA61773
:10FD0000B70710F0A61BB70B881F991F5A95A9F7C4
:10FD100080959095BC01CD0108952F923F924F920E
:10FD20005F926F927F928F929F92AF92BF92CF928B
:10FD3000DF92EF92FF920F931F93CF93DF93CDB794
:10FD4000DEB7CA1BDB0B0FB6F894DEBF0FBECDBF0C
:10FD500009942A88398848885F846E847D848C84DD
:10FD60009B84AA84B984C884DF80EE80FD800C81E6
:10FD70001B81AA81B981CE0FD11D0FB6F894DEBFC9
:0AFD80000FBECDBFED010895FFCFC7
:00000001FF
